:020000040800F2
:10000000F8230020F1400108193B01081B3B0108BF
:100010001D3B01081F3B0108213B010800000000B7
:10002000000000000000000000000000233B010869
:10003000253B010800000000273B0108293B01087F
:100040006D410108714101082B3B01087541010810
:10005000794101087D410108353B01083F3B01081A
:100060008141010885410108894101088D4101084C
:10007000914101089541010899410108493B010856
:100080009D410108A1410108A5410108A9410108BC
:10009000AD410108B1410108B5410108B94101086C
:1000A000BD410108C1410108C5410108C94101081C
:1000B000CD410108D1410108D5410108D9410108CC
:1000C000DD410108E1410108E5410108E94101087C
:1000D000ED410108533B0108F1410108F5410108D8
:1000E000F9410108FD4101085D3B01080142010899
:1000F00005420108094201080D42010811420108A8
:100100001542010819420108673B01081D42010818
:100110002142010825420108294201082D42010817
:100120003142010835420108394201083D420108C7
:1001300041420108454201083EB5DFF8F04C02F0AB
:1001400005FC6061684602F0B9FCDFF8E40CDDE90B
:10015000002300F66821C1E90023256845F0100559
:100160002560D0F8780A00281EBF00690028804763
:100170000DF10C0DBDE8304000A328E04D414320B7
:100180007478446F6E650D0A000000002DE9F0419F
:1001900004460D4616469846DFF8907C02F0D6FBE2
:1001A0007860BC60BD81FE8187F810803868DFF818
:1001B000801C40F008003860D1F8780A00281EBF83
:1001C000006900288047BDE8F04100BF02A301227A
:1001D0000021022002F01BBD4D4143207278446F84
:1001E0006E650D0A0000000080B5DFF8400C016864
:1001F00041F004010160DFF8380CD0F8780A0028DB
:100200001EBF006900288047BDE8005000A3DEE75C
:100210004D414320747854696D654F75740D0A0023
:10022000DFF8080C016841F002010160DFF8000C02
:10023000D0F8780A18B10069002818BF0047704745
:1002400080B5DFF8E80B016841F001010160DFF8DB
:10025000E00BD0F8780A00281EBF0069002880470C
:10026000BDE8005000A3B2E74D41432072785469C5
:100270006D654F75740D0A00DFF8B40B90F8FC1033
:10028000022918BF062180F8B01B704710B5DFF8AF
:10029000A04BD4F8700A94F8441B40F08000C4F8D6
:1002A000700A012904BF002000F09DFD94F8B10BF5
:1002B00040F0220084F8B10BBDE81040DCE7F8B54F
:1002C000DFF86C4B054694F8FC00002702280E4628
:1002D00001D000F030FD02F032FE012806D10220EC
:1002E00002F023FE002002F025FE012794F8FC0016
:1002F000012815D102F025FE012806D1002002F0C8
:1003000015FE002002F017FE012702F01CFE012856
:1003100006D1002002F00BFE002002F00DFE28E0C6
:100320003FBB04F53B6794F8441B387890B901292A
:1003300008BF84F8695B284602F0B3FEE06A02F069
:100340000DFBD4F8E41A884213D304F6C82002F057
:100350007DFA0AE0012908BF84F8696B304602F093
:10036000A0FE94F8FC00022803D0787840F020002A
:100370007870BDE8F1407FE7DFF8B41AD1F8700A71
:10038000002804BF91F8B20B012801D1002070476A
:10039000012070472DE9F84FA0B0EFF3108072B63E
:1003A000DFF888BADBF8001003910022CBF80020B8
:1003B00080F310880398DFF878AA00280AF53465DE
:1003C0000AF527640AF6A4360AF6643700F0F682C6
:1003D000C0F30010002864D09AF8FC00022801D075
:1003E00000F0A9FC0AF52B68216F404602F059FA8B
:1003F000404602F0F0F9616F0AF6C82002F051FAA7
:100400000AF6C82002F0E7F99AF8FC0002281CBF9F
:100410002879012813D116210AF13C008DF8041027
:1004200001A9007902F09EFE0146606F0AF62838A5
:100430000918404602F035FA404602F0CCF9DBF8E4
:1004400014106A79CAF82C108DF81020059109A8AB
:1004500002F04EFB0AF58272D2E90001DDE909895A
:100460000091034641464A4609A802F0E6FADDE952
:100470000901CDE907010122A96806918DF8112033
:100480000AF1FC01087D10B900218DF811100AF164
:100490003C0004A9007902F08FFE287908B90021F8
:1004A00079710398C0F3C00000283ED09BF910106A
:1004B000BBF90E00DBF80880BBF80C908DF8041037
:1004C000002202920AF18001ADF80000CA6CBDF86A
:1004D0000000069200218DF8061039723081012249
:1004E0009DF80410307B8DF80520B172F072002168
:1004F000DFF8582AE981697469612983A976E9617D
:10050000297329623970D06A80470AF6C82002F040
:100510009DF94946404602F010FD012806D1BDF87C
:1005200000009DF80410F88731701FE29AF8FC0073
:10053000012817D102F005FD012807D1002002F0A3
:10054000F5FC002002F0F7FC04200AE002F0FBFCBE
:10055000012807D1002002F0EAFC002002F0ECFCA8
:100560000520F07298F80010DFF8E4B98DF800105B
:100570004809012800F0748103281ED005281AD0EC
:10058000072840F0DC81DFF8CCB9A9F1010292B272
:1005900008F10101584603F041F900216973032075
:1005A0002873A9F10100717BC5F814B041F0020174
:1005B00028767173C7E1012028730D229BF815007E
:1005C00095F91010DFF890B98DF812008DF8111020
:1005D0008DF810209AF88000012804BF0E218DF8B4
:1005E00010109BF8040004A902F0BCFDA9F10D0352
:1005F00000211BB29942B8BF194600B28842A8BF79
:10060000B9F10C0FC0F29681FF200AF668128DF83E
:1006100044001092CDF81C808DF8209007A803F0BC
:1006200095F9002840D1099A9DF828102A6211F006
:100630000F0F1EBF9DF83C0000284FF0000810D19E
:100640009DF8440010B94FF001080AE011F00F0FB7
:100650002AD19DF83C0000280CBF4FF002084FF053
:1006600003080AF1D40E0020DEF800300290934215
:1006700002BF0AF1D2021078012817D101208DF8AB
:1006800006005278DEF81C008DF805200268029200
:1006900006939AF8FC20022A04BF0320F072B8F1F6
:1006A000030F08BF11F0600F40F0448115208DF852
:1006B000100004A99BF8040002F054FD0AF58671AD
:1006C0000A689DF80510139211B1012903D03CE08E
:1006D0004FF004090FE09DF84E10012909D1B8F13F
:1006E000000F16BFB8F1030F4FF002094FF00109D8
:1006F00001E04FF00309BDF82A2081B202AB484661
:1007000003F09FFA9DF8001049098DF807100DF1CC
:10071000440BF8B1072814D10AF1FC020821907C9F
:10072000002804BF9DF80700052802BFDAF834004E
:10073000DBF80420904209D10AF1390301205870F6
:1007400004E0082808BF0A2100D001210298E861CE
:100750006973F1E007A80090029B06999DF80500D7
:100760004A4603F0C5FB20B1022814BF0C200B2021
:10077000E1E068739DF828009DF80610A973C0F3A6
:100780000010687400219DF82800696129764009ED
:100790000299E96100F00100A87638720021F07A30
:1007A0007971002814BF0128CAF828109DF8061096
:1007B00009B1022114E09DF80720DFF8841C052A06
:1007C0000BD101230AF1FC024B70917C19B9DBF8C3
:1007D0000410CAF83410012102E000224A700021FE
:1007E0002973030039799DF8282018BF012806D104
:1007F000012906BFC2F34010002803F0C8FC9DF891
:100800002820B8F1030F02F00F021FD8DFE808F02C
:10081000120D0214F07A9DF904309DF844200090E6
:100820000021109800F09AFB01E000F07DFA9DF89D
:100830003C0010E000F078FA10999DF83C006961E6
:1008400001229DF8441029766A7604E0012068733D
:10085000FFF71CFDE87BE873707B40F0020067E067
:10086000B9F1100F66DD0AF1FC02CDF858808DF861
:100870005C90107D00285DD103F013FF014616AA9D
:10088000FF2003F06AFA002846D19DF861009DF828
:10089000621040EA01209DF863100AF1800240EAEC
:1008A000014090640AF180011998C8649DF86800BD
:1008B000C0F302108BF801009DF8680000F00F00F3
:1008C0008BF808008BF810009DF8690000B9012032
:1008D0004FF47A71DFF88026DFF8688B4843506167
:1008E0000DF16A0100F57A7090611491002088F88A
:1008F0001200A9F111038DF8543014A9107902F0F7
:10090000CFFC022088F81400012002F0DEFB012851
:100910000BD10121002006E0012002F0D6FB0128C6
:1009200003D10121072002F09EFB707B40F00800FC
:10093000707308E001206873FFF7A8FC16E001203F
:100940006873FFF7A3FC2879012802D1387A0128BF
:1009500002E09AF8FC00022804BF002000F043FAED
:10096000707B40F020007073FFF786FC0398C0F3A3
:100970008000A0B19AF8FC00022801D000F0DBF959
:10098000FFF77AFC0220787102F08BFB28790128AE
:1009900004BF0121E970707B40F020007073039860
:1009A000C0F3400018B106210520FFF788FC03982A
:1009B000C10703D504210320FFF781FC02F0DAFA16
:1009C000707BC0F34010002800F041810020B0731C
:1009D000DFF884952068DFF86CBA010644BF20F088
:1009E00082002060707B10F0050F0ED00C2002F00A
:1009F0006CFB012802BF707B00F00500042804D1C5
:100A0000206820F0020020607EE0707BC0F3800050
:100A1000B8B1012002F059FB012804D102F033FBE8
:100A200058B9287009E0052002F04FFB012804D0D6
:100A3000062002F04AFB012803D1206820F00200C2
:100A40002060717BC8075FD538790022002818BF65
:100A500003280AF6982800F04B81012835D1E87860
:100A6000012851D195F801C0AB78634505D2C1F397
:100A7000400018B1387A012800D101229BF81200F9
:100A8000002840F04681002A40F01A8163451CD2BC
:100A90005B1CAB70DBB203EBD3704008A3EB4003ED
:100AA000012B12D122208DF800000AF16001087D8F
:100AB0008DF8020069469AF839008DF8010099F81E
:100AC000040002F04FFB8AF839000021707BE970C6
:100AD00000F0DF007073404601F0B8FE206820F09F
:100AE00020002060012000F0E4FC002818BF0B2843
:100AF0000AD09AF83900A978B8717972092078710A
:100B000002F0CFFA00F029FF9AF8B15B206848BBE9
:100B1000E90744BF05F0FE007073707BC0F38000EE
:100B200018B1707B00F0FB0070730120E907B0730F
:100B300004D561680A680AF668309047C5F38000FA
:100B400050B10AF67C3002F0C9FA02F0F1FA18B19D
:100B5000707B40F00400707302F0FBF9707B00F0D2
:100B6000DF007073206868B900218DF800106846B6
:100B700003F058FB9DF80000012803D1707B40F082
:100B8000100070730025206800285ED12421504693
:100B900002F063FEDAF8241088421CBFCAF8240071
:100BA000012514210AF1280002F057FED9F800109F
:100BB00088421CBFC9F8000045F00205D4210AF1A3
:100BC000400002F04AFEDBF8181088421CBFCBF848
:100BD000180045F00405BC210AF58C7002F03DFEBA
:100BE000DAF8D41188421CBFCAF8D40145F00805D0
:100BF000A0210AF5EC7002F030FEDAF87812884293
:100C00001CBFCAF8780245F010054FF493610AF54D
:100C10001F7002F022FE0AF21477396888421CBF66
:100C2000386045F0200514210AF5E36002F015FE56
:100C3000B96988421CBFB86145F04005A06800282A
:100C40001FBFC1680029284688470120B0730AF6F3
:100C5000AC35707BC0F3C00048B1707B00F0F7008A
:100C6000707329466268D3680AF539609847707BCB
:100C7000C0F3001070B100228DF8012007218DF81B
:100C8000001029466268D36868469847707B00F078
:100C9000EF007073707BC0F3400048B1707B00F0D0
:100CA000FD0070732946626853680AF64C30984715
:100CB000307B022808BF00F02BFE21B0BDE8F08F8A
:100CC000387A08B17B7227E002208DF808000AF517
:100CD000EC7100910AF51F720192694699F80400BF
:100CE00002F090FA002028713872A878787213E028
:100CF0002A789AF8600082420ED2C1F340000028A0
:100D000008D09BF8000038B1F07A00287FF4DDAEFF
:100D100002E0002A3FF4D9AE404601F097FD20687A
:100D200020F020002060EDE6F07A9DF9043000907C
:100D300000210BA812E18549C86A004710B501F0EF
:100D40001BFDD4F8700A20F02000C4F8700A0120BE
:100D500000F0AFFB002818BF0B2810D004F6693054
:100D600094F8391094F8422B4170027109210170F6
:100D7000092002F096F9BDE8104000F0EEBD10BD6C
:100D800010B52B4890F8452B00F6E8210A7000F1C9
:100D9000610200F52B6092F90030147DD27FCB7098
:100DA0000C7400234A744B8219E0214A92F8B00B6C
:100DB000002800D1704710B502F6FC2192F8450BCF
:100DC000087002F164000368447C007F4B60487443
:100DD0000C7400238B740120C87402F6C820BDE88F
:100DE000104000F07ABD10B5DFF8B04B04F62830A3
:100DF00001F02CFD04F643304178012904BF0122A3
:100E0000027094F8FC00022805D194F8B10B40F070
:100E1000200084F8B10BD4F8780A00281CBF0069C0
:100E2000002802D0BDE81040004710BD301B002054
:100E3000D4020020F8B5DFF8645B444C95F8FC1050
:100E40000746032019B1022954D04BD3F2BD3A0012
:100E500005F16C0606D105F16401D1E90023C6E96C
:100E60000023F2BD012F08D1012002F073F8010028
:100E700047D1012185F8FC10F2BD022F41D102209B
:100E800085F8FC0005F53167384605F6FC2114228B
:100E900003F098FC0220F87400202C2141432944DF
:100EA00091F8D220012A02D0401CF6DD12E001F1B7
:100EB000E80005F6443201683160007930717960EC
:100EC0005078717A387039740321307D7874F974F0
:100ED0000120B874002185F8441BE06A804700F0C7
:100EE00017FD0DE0384602F035F8010009D185F80C
:100EF000FC70F2BD2FB9002085F8FC00E16A88473C
:100F00000020F2BD1CB5DFF8582D8DF8010002F16C
:100F100074031C78197B8DF802400D248DF8004075
:100F2000012904BF0E208DF8000092F840006946A8
:100F300002F018F9C0B216BDDFF8240D90F8B11B0D
:100F400041F0100180F8B11B704700009C39010886
:100F5000340300203C0C0020100300202DE9FE4F3C
:100F600004468EB00F460DF10A0000218DF80810DE
:100F70008DF80F100180DFF824AA0AF684310AF1F7
:100F8000FE0009910AF160080AF1380B08900FE0A1
:100F9000A05D089A00F00F000121814091802F464A
:100FA000089B587000220DF10A01042003F07AF822
:100FB0009DF83C10F8B2884280F03F825FFA87F9D2
:100FC00014F8090003F042F99DF83C1048448142AE
:100FD000C0F2338214F809007F1C7D1C801E11288A
:100FE000FEB2E9D8DFE810F01300240012008300FD
:100FF000B800CF00FC00100153012902290267014B
:1010000029022902CC01DD01F7010E02C0E704200C
:1010100002F05BF80128CBD1042100F047FA0999CE
:10102000A05D0870E9B20998625C42706F1CBFE76E
:101030009DF80F00002100288DF80E10ADF80C105F
:101040008DF80910B4D101218DF80F10A2199DF867
:101050003C100898C91B491C531E8DF818100593A5
:101060000DF10D0301789BF8002098F814008DF81D
:101070001A108DF81C208DF819000AF586729BF85D
:1010800001108DF81B100DF1090098F800108DF873
:101090001D10019011689BF80800049103AA0092AA
:1010A00004A90DF10E0202F0EDF900F0F1F90BD1F7
:1010B0009DF80E009DF80D108BF801008BF80010C4
:1010C0009DF80C0088F80000002505E0012202A927
:1010D000032002F0E7FF6D1C9DF80900052190FB3D
:1010E000F1F1EAB28A42F1DB401EC71960E707213D
:1010F0008DF808106F1CA05D000900F007008DF846
:101100000100E8B2A15D01F00F018DF8001000F0C0
:10111000AAF902F0F5F900F0BBF910D19DF8000032
:101120009DF8001088F8080088F810100198C8F899
:101130000400C8F80C009DF8010088F801000122A5
:101140009DF808008DF80A000DF10A01052002F053
:10115000A9FFFFF7F1FE2BE7DAF8780AFF21002854
:101160001CBF0068002801D0804701469DF940005F
:101170008DF80A1000F03F008DF80B0002220DF1EF
:101180000A01062012E703208DF8080004ABA257DD
:101190008DF80420E8B200936F1C225C0492F9B22F
:1011A0001046625C7F1C40EA022000F055F9049072
:1011B00001466420414304910022F8B205927F1C4D
:1011C00021569BF808008DF81810694602F0BEF908
:1011D00000288DF80800BED400F060F90720E5E68D
:1011E000A15D11F00F0108BF01214FF47A70414356
:1011F00001F57A72CBF81C20CBF818102F4600228C
:101200000DF10A010820A2E7A15D0022ADF800203F
:10121000880644BF01228DF80120C80644BF012280
:101220008DF8002001F00F018DF8021069469BF83F
:10123000080002F0B1F910F1010F2F468BD09DF894
:10124000010000BF80A188F815009DF80200085C2D
:1012500003F0C4FAC8F8180002219DF800008DF8C8
:10126000120088F814008DF8101004A99BF80800EB
:1012700001F078FF9BF9011042B28A42B8BF0846DC
:101280008BF8010000220DF10A0109208EE60321EE
:101290008DF80810E8B2A25D8DF800206F1C00F0F8
:1012A000E2F802F09FF900288DF8080067D400F0FA
:1012B000F5F80A204BE70A2001F007FF01285ED16C
:1012C0000A2100F0F3F804A80021C0E9001106A8E3
:1012D000EAB2C0E900110AA86F1CC0E90011A15DC3
:1012E00004910846A15C40EA012000F0B5F8F9B28B
:1012F00004907F1C625C40EA026004904FF47A71B3
:10130000F8B27F1C205CADF8140010FB01F0001255
:10131000ADF81400DDE90401CDE906010246DFF86D
:10132000240B82180692684601F0C8FBDDE9002311
:10133000CDE90A230AF6682EDEE900010346DDE95D
:1013400006500091024629460CA801F076FBDDE923
:101350000C010346DDE90A500091024629460CA81B
:1013600001F04CFBDDE90C23CDE90623DDE90601A4
:1013700001F088FB01F0F8FD01208AF8640B17E604
:101380000D2001F0A2FE0128F9D10D2100F08EF808
:101390009AF8B00B042818BF052801D001F0E0FD31
:1013A00006E6E8B26F1CFBB2A15D225CE05C7F1C2C
:1013B00041EA0221FAB241EA0041A05C642200F055
:1013C0000F00514301F0CDFD8DF80A007F1C00F0A5
:1013D00069F81120EAE50E2001F077FE012810D10E
:1013E0000E2100F063F8E9B2A05D625C40EA0220E1
:1013F0006F1CFBB2DFF8502AE15C526801F0B3FDCC
:101400007F1CD5E5E9B26F1CFBB2A05D625CE15CBC
:1014100040EA022040EA01406421484301F0A5FD72
:101420007F1C012807BF01218DF80A1000228DF8CA
:101430000A2000F037F81320B8E511B0BDE8F08FAE
:101440000D030020D0030020080A0C0D0E1012140A
:1014500015181A1B1D1E2124F9B204907F1C625C12
:1014600040EA02407047215C0191F8B27F1C225C87
:1014700041EA0221F8B201917F1C225C41EA02415B
:10148000019164204143019169469BF8080070472F
:101490008DF8080000F00700072870479DF8080045
:1014A0008DF80A0001220DF10A017047002001F0B9
:1014B000DABD2DE9F84F8CB0824601F040FD0128DD
:1014C00008BF0E200ED0DFF8D48498F8FC00012865
:1014D00009D101F036FD012803D001F034FD0128C7
:1014E00001D10F2058E1D8F83000DFF8606908F525
:1014F000346528B9A868F1884143081AC8F8300053
:1015000008F63407387830B104286CD108F6380072
:1015100003F0A8F903E008F6380003F06DF900289D
:101520005FD1387A98F83910A8F830078DF8201074
:10153000D8F83000069030798DF8220001A801F02B
:10154000D7FA08F58272D2E900010346DDE90140CD
:1015500000910246214601A801F06FFADDE9010180
:10156000CDE909010122D8F82C0007900021B8F834
:101570003007ADF82E008DF82C108DF82120307D2D
:1015800020B98DF82C2000228DF8212008F13000A0
:1015900008F14004009008F6B433207808F645328C
:1015A00006A902F06DF8010008F5376908F5276B08
:1015B0001BD00B2808BFBAF1010F13D1D9F8441082
:1015C00000290DD0DBF8000040F02000CBF800002F
:1015D00008F69828404601F064F9404601F0FBF80F
:1015E000D9E01120D8E00320D6E008F1610A98F98B
:1015F00039209AF900309AF81410207802F0A6F8F1
:1016000008F6E821009141B26368227A207801F05F
:1016100093FE08F6FC2100916368227A9AF907107C
:10162000207801F089FE08F6F420226901684369F8
:10163000D4F814C0307D8A189C4420B9A2698A1855
:10164000E16903EB010C0021CBF87020CBF874C0EA
:101650000191D0B101A802F0ADFD08B113209BE0CB
:10166000019898F867A98DF8000098F93900FFF7FC
:1016700049FC9DF8001051448AB2904203D389B2CC
:10168000B1F5807F01DB082086E068798DF80000E5
:10169000002198F839009DF800208DF809008DF898
:1016A00001108DF8082008F6483398F838008DF8B6
:1016B0000A000DF1010208F178004FF0030A0168F9
:1016C00040680490039102A9B8F83007ADF81400FF
:1016D000207801F093FE08F669300121017098F836
:1016E00039209DF80110427081709DF80000A968B2
:1016F000C9F80800C9F80010C9F8101001F025FC5D
:10170000012805D1A86801F032FC08B1102043E09F
:101710003078012808BF01F02CFC01F019FC0020F2
:1017200001906E7998F839403878DFF8F49AB8B1BA
:10173000042836D101A802F079FA10B14FF0120A4C
:101740002FE0287810B9A878012802DD0198401E02
:1017500001904B4601983246214602F06DFB02E0B3
:10176000484602F0D4FAD0B9387ADBF80010A8F86D
:10177000300741F002012879CBF8001010B9297820
:10178000491C297008F23270DFF8982AB8F830172F
:10179000936AC9B2984700200DB0BDE8F08F4FF0B2
:1017A000110A5046F8E72DE9F043DFF8B48408F554
:1017B000817008F1280E08F6223500218173CEF8D9
:1017C0000010A97708F64236012108F1B80C012271
:1017D00031700180EA7700229CF80C009CF80D1013
:1017E0008EF8100008F1A1048DB0727088F8FF2007
:1017F0008EF8111008F1A409207888F8610008F12A
:101800006407D9E90001C7E9000108F1AC00D0E99B
:10181000002308F16C00C0E90023E07C387408F56F
:101820001F72217DDCF80000797478610020DCF8FB
:101830000410B0708EF81200B96101208DF810000C
:1018400008F5EC710291039202A99EF8180001F0CC
:10185000D9FC0021F17008F6FC213A684A600020AA
:1018600008703A7F787C08744A74002001228874DA
:10187000CA7408F53160142202F0A4FF0120287018
:1018800002210022D8F8780A69700092019218B1FA
:10189000416800910069019008F5396108F64C3201
:1018A0000591069208F67C3108F6B132079108924C
:1018B00008F1CC0108F1400209910A9208F14401B3
:1018C00008F1D0020B910C92694608F5E36205A875
:1018D00001F02AFB0DB0BDE8F083F8B50C4600F02E
:1018E000B5FFDFF84059DFF87863286B06F1400751
:1018F0008047387806F53562214601F057FD01280A
:1019000005D1F868696B8847E07C86F8B00BF1BDBB
:10191000F8B5224C94F9701004F1400604F53167D3
:101920007368327A3078009701F006FD04F62235AC
:10193000022068700121297004F53562307839463B
:1019400001F034FD012807D1DFF8D8184A6B0020D8
:101950009047687884F8B00BF1BDC14901F6AF300B
:101960008278C2F3400222B10078002818BF012813
:1019700006D091F8FE00012802D1886A401C8862D6
:1019800001F53460002202700271C270D1F8700A51
:1019900020F00200C1F8700A01207047D402002034
:1019A0002DE9F84F5FEA000918BF5FEA010888B027
:1019B00016460FD0D9F8000000281CBFD9F8040043
:1019C000002807D0D9F8080000281CBFD9F80C005F
:1019D000002801D1032036E1304601F0B9FB08B9F7
:1019E000092030E1484601F002FBDFF874B24FF401
:1019F000E6620021584601F029FF4FF4A162002160
:101A00000BF5E66001F022FF0BF624340120A077ED
:101A10000BF1400560770BF1FC0A2E7000200BF1F2
:101A200080068AF8000030700F20DFF8E0298DF87A
:101A30000400CAF8102001A900F00AF900B1012041
:101A40008AF8040001A90A208DF804000BF1C407EC
:101A500000F0FEF8387001A9062000F0F7F8787061
:101A600001A910208DF804000BF1A00700F0F0F898
:101A7000F06001A9112000F0E9F8306101A91220FD
:101A800000F0E4F8706101A9132000F0DFF8B06104
:101A900001A9142000F0DAF8F06101A9172000F084
:101AA000D5F8787001A9182000F0D0F87860F860B7
:101AB00001A9192000F0CAF83872387401A91E2053
:101AC00000F0C4F8387501A91F2000F0BFF8787540
:101AD00001A9202000F0BAF8B86101A9212000F086
:101AE000B5F8F86101A90B2000F0B0F8208001A939
:101AF0000C2000F0ABF860800A2101203870716082
:101B00000622327269600BF51F7206212972F06895
:101B1000E8603169296170696861B169A961012171
:101B2000F069E8618BF8601000200BF5EC718DF81E
:101B300014000391049203A9287801F063FB0BF5CC
:101B40002764C4F80880FFF72EFE0120C4F8049033
:101B50008AF801000BF6B139002089F80000012154
:101B600021600022CBF830000090CBF82C204FF001
:101B7000FF31DFF89C380BF6982000F013FE0020B0
:101B800000900022DFF88C384FF0FF310BF52B600E
:101B900000F008FE002000900022DFF87C384FF0B3
:101BA000FF310BF6C82000F0FDFD00200090002260
:101BB000DFF868384FF0FF310BF6283000F0F2FD07
:101BC00006A800F095FFDDE906010BF58272DFF84B
:101BD0005038C2E90001E360DFF84808DFF8481830
:101BE0006061E161DFF84408DFF844182061A16119
:101BF0000BF67C20DFF82C4621688847D8F80810BF
:101C00000BF58C7002F0F9FB68B9584601F0ECFF57
:101C100048B902F03BFA08B1132014E00BF1D000F0
:101C200002F047F808B111200DE06069804701F02B
:101C3000D9FD9AF80100A16D8847E06A804701212B
:101C400089F80110002009B0BDE8F08F8DF804007C
:101C5000287801F087BA02490020C1F8700A70475D
:101C6000D4020020F8B50C46DFF8C8178B6A01F1E2
:101C70007402054688B092F9510092F950600293BF
:101C800000278DF800008DF8016001970CB9032042
:101C900046E000208DF81000059301F6243001F590
:101CA0008676038840881278376891F8FE60ADF830
:101CB0001A00ADF818308DF81E2003978DF81160CA
:101CC00002AB91F839008DF81C000DF1010291F87A
:101CD000380091F840108DF81D008DF81F1003A8F2
:101CE000694602F02BFE9DF90000FFF70BF96070CA
:101CF00001A802F05FFA08B1132011E00198102842
:101D00000BD261780A46824207D3091A21700199E1
:101D100049198A4203D3002002E0002020700820E5
:101D200009B0F0BDFEB5044600250CB90320FEBD88
:101D30002778DFF8501A282F01F1FC0201F1800307
:101D400001F1400001F1600600F27680DFE807F063
:101D50001517191C1F2123747474747474747425FA
:101D6000272A2E313437403E484A4C4E5052545761
:101D70005D5A6062656967746C0010784BE0107D95
:101D800049E002F07DFC4DE002F08BFC4AE09078E7
:101D900041E0986C46E0D86C44E050783BE019781C
:101DA00021714DE01D228DF8002014E001F1640046
:101DB00007E001F1A40004E001F16C0001E001F191
:101DC000AC00D0E90023C4E9012339E01B2100E085
:101DD0001A218DF800106946007801F0C3F921E05E
:101DE000307818E0C0681DE000691BE0406919E028
:101DF000806917E0C06915E093F845000BE091F8A1
:101E0000390008E093F8440005E091F8380002E05A
:101E1000406807E0007A207112E0F06902E061603A
:101E20000EE0D86B60600BE001F5867108686060B9
:101E300001F0D0FCA06003E0204601F08DF80546DB
:101E40002846FEBD803DD512301B0020D003002067
:101E50002DE9FE4F044600250CB90320CCE1DFF844
:101E6000D4B5DBF8701A880748BF0120F6D4227871
:101E7000DFF8B083272A0BF180000BF1FC090BF18E
:101E800060060BF1C40A0BF1380700F2B081DFE8FD
:101E900012F028002C00320036003C0040004400C4
:101EA00048004E0054005A00600066006C0072004A
:101EB0007D008700AE018A009A00A300BB00CC0021
:101EC000C600D700DE00E100E400E700EA00ED0014
:101ED000F900150109012001240128012B012E011F
:101EE0009F012079FEF7A6FF84E1207902280BD01C
:101EF00089F814007FE1606802F0B9FB02E06068D5
:101F000002F0C1FB002803D06FE1207989F80200BC
:101F100071E16068CAF804006DE16068CAF8080001
:101F200069E160680028EFD00146002028E0606881
:101F30000028E9D00146012022E060680028E3D0B3
:101F4000014602201CE060680028DDD00146032025
:101F500016E060680028D7D001467F2010E0606856
:101F60000028D1D0014680200AE060680028CBD04C
:101F70000146812004E060680028C5D00146822027
:101F800001F0ABFE002840F02E8134E1207989F881
:101F90000100D8F858108847D8F82C0080472AE16B
:101FA0002179017027E100F02EF9012847D16068FE
:101FB0000090002200F02FF9012840D1D4E901015E
:101FC0000BF1640228E000F01EF9012837D1D4E9B2
:101FD00001010BF1A4021FE000F015F901282ED138
:101FE000D4E901010BF16C0299F80030C2E900015B
:101FF000022B08D199F81400002804D0D8F82C003E
:102000008047FFF785FCF6E000F0FDF8012816D1C7
:10201000D4E901010BF1AC02C2E90001EBE0616817
:10202000019101228DF8082003E0616801918DF88B
:10203000085001A9387A01F059F9002806D1D4E0F6
:1020400020790028FBD01028F9DA3070D3E06068DE
:102050007861D0E06068B861CDE06068F861CAE09E
:1020600060683862C7E060687862C4E000F0C6F873
:10207000062200F0D0F80128E1D19DF800008AF88E
:102080000100B8E094F90400317D8DF800008DF86E
:102090000210052200F0BFF80128D0D19DF8000001
:1020A0007870A8E000F0AAF80A2200F0B4F801283D
:1020B000C5D19DF800008AF800009CE000F09EF871
:1020C000092200F0A8F80128B9D19DF80000387065
:1020D00091E061684160F9608DE0217901723974A5
:1020E00089E06068F06186E06168C16383E06068F0
:1020F00000287AD0044678D0012918BF01257AD16A
:10210000242101F0AAFB616A884204D128222146D9
:10211000584601F083FB142104F1280001F09DFBD7
:10212000E16B884206D1182204F128010BF1280046
:1021300001F074FBD42104F1400001F08EFBD4F8CF
:102140001411884213D1D82204F140010BF1400050
:1021500001F064FB0BF531609BF8451BF2680170E0
:1021600042600122717D017482740221C17404F500
:102170008C76BC21304601F070FBD4F8D411884233
:1021800005D1C02231460BF58C7001F047FB04F5F8
:10219000EC76A021304601F060FBD4F8781288423A
:1021A00005D1A42231460BF5EC7001F037FB04F5A4
:1021B000E3661421304601F050FBD4F82C17884216
:1021C00019D1182231460BF5E36001F027FB12E02C
:1021D000A079012809DC60680BF5867108606068E9
:1021E00001F01EFD38B1112006E0032503E0204672
:1021F00000F0B4FE05462846BDE8FE8F94F90400C1
:102200008DF80000704794F90800717D8DF800008A
:102210008DF801100722387A694601F019B80000DC
:102220000C0B00209C3901082DE9F04186B00021FB
:1022300004460225ADF800100CB90320C1E0FEF7FA
:102240009BF801283CD000F077FF012838D000F03F
:102250006FFFDFF8E08128B91422002108F67C30F6
:1022600001F0F4FA98F8B11B012088F87D0B41F0D9
:10227000040188F8B11B012120788DF804000022A8
:102280008DF805108DF8072008F6443620780128CF
:1022900008F1380710D0042851D0052857D0062857
:1022A00071D00A2878D00C2800F0A3800D2877D0B0
:1022B0000E2800F0958076E098F8701A880601D50F
:1022C00001207EE0FFF76FFA94F90410387A0022BB
:1022D00001F0AEF9787007208DF805000020FEF7B8
:1022E000A9FD08F63400002108F23272FF230170C4
:1022F00042600372417202F0D4F90146082208F6E6
:102300003E0001F08BFA02F0BBF90146082208F604
:10231000460001F083FA0020FFF7CBF8054630B9FC
:10232000D8F8B40B206101A800F075FE48E094F9DC
:102330000410387A012201F07BF9787033E000252F
:102340006946022001F0AEFE002850D1E8E7A188DE
:1023500070787A783B788DF808008DF80920ADF810
:1023600014108DF80A3002A9386C7A6C039004922C
:10237000387A01F0C5F9D8F8700A40F00200C8F8C0
:10238000700A0025CCE7DFF80034A28894F90C101D
:10239000A068DE6BB047EEE7002569460D20D1E767
:1023A00098F8FC0080B1D8F8B40B206100F0C0FEB2
:1023B00030B998F8B11B307001F0FB0188F8B11BFF
:1023C000284606B0BDE8F081277907F0070000F045
:1023D000BEFD8DF800700025012269461020B1E78E
:1023E0006946122001F05EFE0025002898D01325D2
:1023F000D9E78DF8071000F09BFD28B900F095FD96
:10240000002000F097FDBCE70125CCE700030001A8
:102410003D0D0008810D0008AB0D0008E70D000818
:10242000390100088D01000821020008E9010008B7
:1024300041020008D40200202DE9F34F8DB005467B
:10244000022600240020002D8DF8000082468346DD
:1024500000F08480FDF790FF01287CD0DFF8249302
:102460001422002109F6683001F0F0F909F668310C
:1024700001204870012209F624300027827729784C
:1024800021B1012908D0032919D023E009F624310C
:1024900093464A77402708E0E87B082809F624316C
:1024A000A8BF082093464877802728798DF8000038
:1024B000AC68A889ADF8020095F90EA00AE009F60B
:1024C000243193464A776C682889ADF80200E027EA
:1024D00095F90AA099F874108DF82E1009F13808B2
:1024E0008DF82C600BA998F8080000F03BFE41B273
:1024F0005145A8BF8246BBF1000F28D009F1FC0668
:10250000DFF888B2B07888B99BF8001098F8080016
:102510008DF80E108DF80CA0052203A900F098FE8E
:1025200001281BD19DF80C0088F8010098F90110D2
:1025300098F900208DF808108DF80120D9F828109E
:102540000591307D60B90726002089F8440BD9F841
:10255000B40B286130460FB0BDE8F08F0320FAE7D6
:10256000F07810B90021C9F8301005ABB078C1017E
:102570003078012898F802000CBF41F0100A01F0F1
:10258000EF0A012809F5867008BF4AF0200A0168A1
:10259000D9F82800069108904FEA0A61C90F8DF812
:1025A0001D1001227A4801884088ADF826008DF878
:1025B0001C20ADF824100AF0BF0A98F8010098F822
:1025C00000109BF800208DF828008DF829108DF858
:1025D0002A20424698F808008DF82B0009F13901AD
:1025E00006A802F0ABF94AEA8016BDF802A0002066
:1025F000A9F8300789F8440B0490019004B9824689
:102600005246214609F6680001F008F909F5E6602E
:1026100089F867A9877078090228DFF878A132D095
:1026200004282DD0072840F08A80002C1CBF99F880
:102630006729002A09D0214609F2337001F0EEF82B
:1026400099F86709401CA9F830079DF83800FEF793
:1026500030FF0028064674D09DF808009DF8011050
:1026600088F8010088F80010002E74D199F8B11B89
:1026700028788AF8000041F0010189F8B11B66E76B
:10268000012089F8440B09F63404042009F2327160
:102690002070616067729DF80000DBF85810E160FF
:1026A00009F65807FF2222723870267409F668016D
:1026B00099F867093872796004A801F0B7FA08B18F
:1026C0001226C9E70021AAF8041004980499608230
:1026D000CAF80C1001A801F06DFD40BB019800285C
:1026E000B3D098F90100FEF70DFC99F8671909F6C7
:1026F000B83BB9B1019910290ED209F6480201A9D7
:102700000F2001F060FD90B9019806F0F00600F08E
:102710000F000643267498E75A4601A901F053FDBD
:1027200028B992E75A4601A901F04DFD08B11326D8
:1027300092E701993870C7F804B0397285E702262C
:102740008AE7059988F80200C9F8281001F011FD00
:10275000002889D01326F7E638B50A4D044695F8C7
:1027600040008DF800400F22694600F071FD0128FD
:1027700008BF85F8004131BD024C04F6982000F0F6
:1027800065B80000D40200209C39010848030020ED
:10279000F80D00203C0E00209649974A0020086062
:1027A00013681847F8B5040015461E4611D03000CE
:1027B0000FD0069F00202060084600F044F86060BB
:1027C000E66000202761E57220726072A07260618D
:1027D000F2BD0120F2BD2DE9F0410446002574B39D
:1027E00000F0CAF8002804BF607A002827D1EFF370
:1027F000108872B6804F6668386A8047B04238BF2A
:1028000030462060012060722572A572794E3068D2
:1028100018B938698047204609E0B86980472168BF
:1028200040182060326813689842204602D200F0B7
:10283000D7F801E000F0C1F888F3108800E0012526
:102840002846BDE8F0816C494A6A1047F8B5002473
:1028500020B3EFF3108572B6664E32680127134637
:1028600011468772BAB1824244720BD15069147218
:1028700018B1306000F08BF80DE05F48C168884700
:10288000346008E0814204D00B4649690029F9D13F
:1028900001E04869586185F3108800E00124204672
:1028A000F2BD38B50446084600250CB901250DE0F7
:1028B000FFF7C9FF6060204600F05EF830B12046A7
:1028C000FFF7C4FF2046FFF786FF0546284632BDC6
:1028D000F8B5EFF3108572B6474E464F70698047E2
:1028E000316904468847041B386860B301688C422C
:1028F00034BF091B0021016040690028F6D1396806
:10290000086828B1B069804739680A68824214D2E1
:102910003C68606938600021217261722069E16859
:102920008847E07A012801BFA07A00282046FFF7F7
:1029300052FF38680028E2D105E021B1087A10B9C9
:10294000084600F024F885F31088F1BD10B52A4C34
:10295000E0698047A16ABDE81040084770B5264D80
:102960000446E86980470646696A20468847AA6A9D
:10297000301ABDE8704010471E49096800E04969F7
:1029800019B18142FBD10120704700207047F8B592
:10299000194D0446286A8047012121720646AF6915
:1029A000B84721683018814202D2B84736182660ED
:1029B0002068A968BDE8F440084710B50D490A68C9
:1029C000536901E01A465B69516931B11C680168BD
:1029D0008C42F7D35061436110BD5061416110BD1D
:1029E000044A116809B100230B7241611060CEE7FF
:1029F00000000000E41B00206C3E01080EB41CB473
:102A00000FF2A411039CD1E90023CDE9002305991D
:102A1000BDF810200C19BDF8181000948A1813B2D4
:102A2000B3F57A7FADF8042006DB009B5B1CA2F5B2
:102A30007A720093ADF804201CE00EB41CB40FF2BF
:102A40007011039CD1E90023CDE900230599BDF85D
:102A50001820641ABDF8101000948A1A11B20029C7
:102A6000ADF8042006D5009B5B1E02F57A72009338
:102A7000ADF80420DDE90023C0E9002313BC03B056
:102A80007047000078B504464BA0464ED0E90023BD
:102A900085B00D46CDE90123316902A8884700F0D1
:102AA00050F803A8FFF7C9FF039831688847BDF9BC
:102AB0001000B168884706B070BD0000F0B504464C
:102AC0003FA0384D2969D0E9002385B004A8CDE99D
:102AD000032388470390E8688047ADF808006868DA
:102AE00080470190DDE90301DDE9016751E0000065
:102AF0001CB5044634A02B49D0E90023CDE90023BE
:102B000001A80A6990470090DDE90001C4E90001CD
:102B100013BD7FB5234E0446F0680D468047ADF8DF
:102B200008007068804700F00CF801A8FFF785FFE7
:102B30000198BDF908104FF47A7202FB001004B03E
:102B400070BD01902A46DDE901010091034621464E
:102B50007047F0B5044685B04FF47A70B1FBF0F0E1
:102B6000039002464FF47A7000FB1211ADF810107A
:102B70000822002101A801F045FF0A4DE8688047BE
:102B8000ADF80800686880470190DDE90101DDE9E2
:102B900003670091034631463A462046FFF72EFF71
:102BA00005B0F0BD9C4001080000000000000000DE
:102BB0000000000000000000000000000000000015
:102BC0000000000000000000000000000000000005
:102BD00080B518220021DFF8400301F028FF4FF4F0
:102BE00080620021DFF8340301F021FF0FF2A11011
:102BF000DFF82C130968884702BDDFF81C03418AFF
:102C0000008A814201D1012000E0002070472DE9B7
:102C1000F84785B005000E0014001F000020ADF835
:102C200002005FF0000ADFF8F022107AA84202D218
:102C30007FF0040055E0D0683040B04202D07FF011
:102C400005004EE05068002806D0002C04D00DF19D
:102C5000020101A8526890470DF1380843463A0036
:102C60004FF40071DFF8BC0201F0E8FE814600F08D
:102C700036F96946BDF8020010EB090080B200F099
:102C8000D8F810F1010F28D05FF0000A5046BDF8C7
:102C9000021080B2884210D201A8514689B2405C2D
:102CA000DFF87812BDF800208854BDF80000401C01
:102CB000ADF800001AF1010AE8E743463A004FF484
:102CC0000071DFF85802BDF800C0604401F0B6FEA4
:102CD00000F00FF900F00EF803E000F00AF97FF0C1
:102CE000020006B0BDE8F0878B49486070478A490A
:102CF00008727047F8B500240025EFF3108672B60D
:102D000000F001F900283CD100F0E9F8824F388A40
:102D1000798A884230D0B87801280ED13988388A2B
:102D2000091AB9820220B87000203880B88A0028B9
:102D300003D10020B87000203882B87800280CD168
:102D4000388A798A884204D2798A388A091AB982FB
:102D500003E0388AD0F58060B8827048398A084428
:102D6000050086F3108802F06DF8B98A28006C4AD5
:102D7000D2689047040006E000F0BBF886F31088A4
:102D800001E086F31088200040B2F2BD0000000090
:102D900070B504000025EFF3108672B65E4988789E
:102DA000022804D1002088700020088205E0088AEB
:102DB0008A8A10188005800D0882088A4A8A904203
:102DC00030D0C88A01282DD1887801280ED10A88F0
:102DD000088A121A8A820220887000200880888A55
:102DE000002803D1002088700020088288780028FD
:102DF0000CD1088A4A8A904204D24A8A088A121A56
:102E00008A8203E0088AD0F58060888243480A8A73
:102E10001044050086F31088898A2800404AD26849
:102E2000904705E086F3108802F012F800F061F890
:102E300070BDF0B402005FF0FF30EFF3108372B6A4
:102E4000354C658A268AB54216D1658AD5F58065E6
:102E500016002F00B6B2BFB2BE422BD31600278A8F
:102E6000B6B2BE4226D20126A670668A2680268A7F
:102E70003500002666821DE0258A668AB54216D294
:102E8000658AD5F5806516002F00B6B2BFB2BE4286
:102E900010D31600278AB6B2BE420BD20126A67006
:102EA000668A2680268A35000026668202E0268A07
:102EB000658A751B16002F00B6B2BFB2BE4209D29A
:102EC000668A0E80668A16FA82F6B605B60D6682A6
:102ED0000024200083F3108800B2F0BC7047EFF3A9
:102EE000108072B60C49CA8A521CCA8280F31088BC
:102EF0007047EFF3108072B60749CA8A521ECA8221
:102F000080F3108870470448C08A002801D100204F
:102F100000E0012070470000481B00200C0F00203B
:102F2000E04001080C13002070477047704770475D
:102F3000002070477047704770470020704700209E
:102F4000704700207047002070470020704770478E
:102F50007047704702207047022070470220704778
:102F6000704700207047704770470020704700206E
:102F700070477047704730B4002513E050F8042BB9
:102F8000D30744BFA9F101039A18091F042942F885
:102F9000045BFAD213468C0744BF15809B1CC907FB
:102FA00048BF1D7050F8041B0029E7D130BC7047A2
:102FB000664901F11C02904202D101F10C007047F8
:102FC000001D704770B505460846604991F82040DD
:102FD0005CB1002602E0FFF7EBFF761CF1B2A142E4
:102FE00003D20178A942F6D170BD002070BD10B5A2
:102FF000564C2060002084F8200004F10C01616030
:1030000004F10C00A0601422FF2100F01FFC01213C
:1030100084F8211010BD38B54C4C94F82020052AB6
:1030200001DB002032BDA16803780B7000234578D6
:103030004D70521CC078C8708B7084F820200846F0
:10304000FFF7B6FFA060012032BD10B53F4C94F8E9
:10305000200038B1401E84F820006068FFF7A8FF08
:103060006060012010BD10B50446384B084693F847
:10307000201039B19A685968FFF7A4FF10B10121F7
:103080004470817010BD80B5304B93F8201031B181
:103090009A685968FFF796FF08B1407802BD012091
:1030A00002BD38B5294D95F820100446686885F8AA
:1030B000214049B1C178447009B901228270FFF7FB
:1030C00077FFA9688842F5D131BD80B51F498A686C
:1030D0004968FFF777FF00B1012002BD2DE9FC41EF
:1030E0001A4D95F82080064600271CE001788DF8DF
:1030F000001042788DF80120C0788DF803000BE0B5
:10310000686801783170427872708478012CEDD152
:1031100029688A6830469047FFF797FF14B96846D8
:10312000FFF779FF7F1CF8B24045E9DBBDE8F3818A
:10313000064890F820007047044890F820100529B0
:1031400001DB01207047002070470000941A002026
:10315000052884BFC01F022801D801207047002025
:1031600070470000C0B2092821D8DFE800F0050848
:103170000B0E111420171A1D084601F0C5BE084693
:1031800002F02EBC084603F097B9084603F0ACBD28
:10319000084604F0EDBA084605F05AB8084605F0AE
:1031A000A9BD084606F010BB084607F055B80FF257
:1031B0003060006870470000092809D8DFE800F097
:1031C00005090C0F121508181B1E084601F057BF01
:1031D0007047084602F0C8BC084603F00DBA08461E
:1031E00003F01FBE084604F05CBB084605F0C9B8F2
:1031F000084605F015BE084606F083BB084607F0F2
:10320000C7B80000092821D8DFE800F005080B0E38
:10321000111420171A1D084601F049BF084602F094
:10322000BBBC084603F000BA084603F012BE0846CD
:1032300004F04FBB084605F0BCB8084605F008BED0
:10324000084606F076BB084607F0BAB8704700009B
:103250000B460928114621D8DFE800F005080B0EBF
:10326000111420171A1D184601F068BF184602F005
:1032700010BD184603F020BA184603F03CBE1846AD
:1032800004F079BB184605F0E6B8184605F032BEE2
:10329000184606F0C8BB184607F0D9B8002070479A
:1032A000092821D8DFE800F005080B0E11142017BB
:1032B0001A1D084601F072BF084602F016BD084606
:1032C00003F017BA084603F03DBE084604F07ABB87
:1032D000084605F0EBB8084605F030BE084606F093
:1032E000C2BB084607F0DAB870470000092821D8A9
:1032F000DFE800F005080B0E111420171A1D084610
:1033000001F08BBF084602F01FBD084603F010BA5B
:10331000084603F056BE084604F093BB084605F085
:1033200004B9084605F049BE084606F0CBBB08467E
:1033300007F0F3B80020704710B500F0DBF933D880
:10334000DFE800F0050A0F14191E3223282D20464D
:10335000BDE8104001F079BF2046BDE8104002F002
:1033600024BD2046BDE8104003F0FAB92046BDE870
:10337000104003F03EBE2046BDE8104004F079BB8B
:103380002046BDE8104005F0E8B82046BDE81040F2
:1033900005F02BBE2046BDE8104006F0CFBB20460E
:1033A000BDE8104007F0D1B810BD00000B46092859
:1033B000114621D8DFE800F005080B0E1114201784
:1033C0001A1D184601F070BF184602F017BD1846C6
:1033D00003F0EFB9184603F03BBE184604F078BB83
:1033E000184605F0E9B8184605F02EBE184606F056
:1033F000CEBB184607F0D8B80020704710B50C4671
:10340000092811463CD8DFE800F0050B11171D23F1
:103410003B292F352046BDE810401A4601F0B4BFC5
:103420002046BDE810401A4602F03DBD2046BDE8EA
:1034300010401A4603F011BA2046BDE810401A4663
:1034400003F076BE2046BDE810401A4604F0B0BB3B
:103450002046BDE810401A4605F01EB92046BDE8DA
:1034600010401A4605F060BE2046BDE810401A46DE
:1034700006F0E2BB2046BDE810401A4607F004B94A
:10348000002010BD38B50C4611461A46049B059D18
:10349000092833D8DFE800F0050A0F14191E32237B
:1034A000282D0095204601F0EDFF32BD0095204605
:1034B00002F055FD32BD0095204603F028FA32BDDA
:1034C0000095204603F0B2FE32BD0095204604F080
:1034D000EDFB32BD0095204605F05CF932BD00954C
:1034E000204605F09FFE32BD0095204606F00DFCFB
:1034F00032BD0095204607F045F932BD002032BDAF
:10350000092821D8DFE800F005080B0E1114201758
:103510001A1D084602F061B8084602F023BE0846AC
:1035200003F0A9BA084603F02DBF084604F06ABCB0
:10353000084605F0DAB9084605F027BF084606F048
:10354000E7BC084607F0C9B900207047092821D810
:10355000DFE800F005080B0E111420171A1D0846AD
:1035600002F056B8084602F021BE084603F09EBAA3
:10357000084603F022BF084604F05FBC084605F089
:10358000CDB9084605F020BF084606F0EBBC08465A
:1035900007F0BEB900207047092821D8DFE800F005
:1035A00005080B0E111420171A1D084602F052B818
:1035B000084602F0FCBD084603F07ABA084603F05C
:1035C0001EBF084604F05BBC084605F0C9B90846B2
:1035D00005F01CBF084606F0C7BC084607F0BAB99C
:1035E00000207047092821D8DFE800F005080B0EFD
:1035F000111420171A1D084602F02EB8084602F0D2
:10360000D9BD084603F058BA084603F0FBBE084689
:1036100004F038BC084605F0A6B9084605F0F9BE26
:10362000084606F0A5BC084607F097B90020704789
:103630000B460928114621D8DFE800F005080B0EDB
:10364000111420171A1D184602F01EB8184602F071
:10365000B5BD184603F031BA184603F0EBBE184664
:1036600004F028BC184605F09CB9184605F0E9BEE0
:10367000184606F07EBC184607F087B90020704750
:1036800010B500F037F833D8DFE800F0050A0F1462
:10369000191E3223282D2046BDE8104001F0F6BF48
:1036A0002046BDE8104002F09EBD2046BDE8104017
:1036B00003F004BA2046BDE8104003F0BCBE20462B
:1036C000BDE8104004F0F7BB2046BDE8104005F00F
:1036D00069B92046BDE8104005F0B4BE2046BDE8FB
:1036E000104006F05BBC2046BDE8104007F04EB924
:1036F000092010BD0C4611461A46029B0928704746
:10370000092821D8DFE800F005080B0E1114201756
:103710001A1D084602F09AB8084602F0FDBD084698
:1037200003F034BA084603F066BF084604F0A3BCB1
:10373000084605F01CBA084605F064BF084606F0C6
:10374000C5BC084607F0FFB97047000010B50C462D
:10375000092811463CD8DFE800F0050B11171D239E
:103760003B292F352046BDE810401A4602F0A6B886
:103770002046BDE810401A4602F0F3BD2046BDE8E1
:1037800010401A4603F043BA2046BDE810401A46DE
:1037900003F06ABF2046BDE810401A4604F0A2BC00
:1037A0002046BDE810401A4605F02CBA2046BDE878
:1037B00010401A4605F05EBF2046BDE810401A468C
:1037C00006F0D0BC2046BDE810401A4607F0F2B91A
:1037D000C8B210BD0148704700000000000300019E
:1037E0000000000029490860704770B5274A284D3D
:1037F000146843F2390305FB043414606FF000468B
:10380000B4FBF6F66FF00042091A02FB1644491C9D
:1038100094FBF1F501FB1541401870BD03E011F870
:10382000013B00F8013B13465A1E9BB2002BF6D118
:1038300070471044401E03E011F8013B00F80139C5
:1038400013465A1E9BB2002BF6D17047130003D0CB
:103850000A46194607F0F2B9704770B503004FF0F9
:10386000FF3001D1002070BD00240A4E09E09A5CAF
:103870005040082200F010F8521E85EA5000F9D19D
:10388000641CA2B28A42F2D3C04370BDCC020020B5
:103890006D4EC6412083B8ED00F001056D1E26EA8D
:1038A0000505704738B504001CBF2068002801D109
:1038B000022032BD0078607103222368591CA01DCC
:1038C000FFF7ACFF2068011D032204F10900FFF798
:1038D000A5FF2068C179E160027A41EA0221E16036
:1038E000427A41EA0241E160827A41EA0261E160A2
:1038F000C07A20742168087B2179607411390D2009
:1039000010291FD1206800F10D01102204F11200CE
:10391000FFF784FF1D2021680A5C6262401C83B2AD
:10392000401CCD5C42EA052283B26262401CCD5C41
:1039300042EA054280B26262085C42EA0062626268
:10394000002032BD0129E6DB012032BD38B504007C
:103950001CBF2068002801D1022032BD00786071B0
:1039600020684178A160827841EA0221A160C27892
:1039700041EA0241A160027941EA0261A160407915
:10398000207320688179E181C27941EA0221227B9A
:10399000E18102F00F02102A37DA00F1080104F188
:1039A0001000FFF73BFF002104F12805207B84F87D
:1039B0002010297000F00F000830217982B28B1A94
:1039C0001B1F012B0DDB23689A5C84F82020401C10
:1039D000091A0A1F80B22A701918606AD2B2FFF75A
:1039E0001DFF206821790144081F01786960427831
:1039F00041EA02216960827841EA02416960C07847
:103A000041EA00616960002032BD012032BD310011
:103A10002DE9F047050088B008BF0A2057D00024E0
:103A200004AFA446A046A146A24687E80017109816
:103A3000DDF844E0EC4600278CE880078DF80500AF
:103A40008DF80630180C8DF808001F0A1B0E4FEA7F
:103A50001E208DF809308DF80B008DF807700126B7
:103A60004FEA1E434FEA1E608DF800608DF80AE0B1
:103A70008DF80C308DF80D008846174603E01034A1
:103A8000A8F11008E4B20FFA88FABAF1000F1DDDB0
:103A90008DF80F6004AB3A461021684600F049FDEE
:103AA000761C88B904ABBAF1100FD4BF514610216F
:103AB0008842E4DA011913F800C06A5C8CEA020259
:103AC0006A54401CC0B2EEE70F2000E0002008B0AE
:103AD000BDE8F08778B5079909B90A2072BD069C40
:103AE000059A49250D704B718A71130A8C72CB713E
:103AF0000026150C120E4A72C8734E708E70CE706E
:103B00000E710D72220A230C240E4C738E73CA722E
:103B10000B73002072BD30B50022DFF80835D4B237
:103B200013F82450854205D0521CD4B2022CF6DB87
:103B30000C2030BD03EB84000860002030BDF8B5D8
:103B400084B06C46002500260027AC4684E8E010CF
:103B5000022802D0032820D023E001258DF8005050
:103B60008DF804208DF801108DF807300C0A090C2F
:103B70008DF803101B0A160A120C8DF806208DF81A
:103B8000083002468DF802408DF805600121684634
:103B900000F006FD30B10F2004E002248DF8004053
:103BA000DEE70B2005B0F0BD09B90A207047DFF849
:103BB00078241268401E032814D8DFE800F00208B9
:103BC0000C1010690860116911620020704750697B
:103BD00008605169F8E7906908609169F4E7D06975
:103BE0000860F2E70520704710B508B9092010BD3C
:103BF000DFF83444206028220021FFF727FE2068E8
:103C00000121C17081704170002202704FF0FF31BC
:103C1000C2600161416181610162C161002010BD2A
:103C2000DFF804140A6810600020704708B90A2001
:103C30007047DFF8F4130A68D3685B1C0360002048
:103C400070477CB50E46002115461C4600910CB904
:103C50000A2076BD6946FFF7A7FF010028D100982A
:103C600010F1010F10D080B2281A002802DD009D4B
:103C7000451909E0009802D12060072076BD000CAC
:103C800005EB004505F58035DFF89C1325600A68D3
:103C9000907860B9009800230021281A63EB010195
:103CA000994204DB01DCB04201D3082076BD00203C
:103CB00076BD30B508B90A2030BD0021DFF8682391
:103CC00013682C224A4303EB8104024404F11C05CF
:103CD000491C1562F2DD002030BD1FB5044600F01E
:103CE000D3FB78B984B9DFF84003026890780021EB
:103CF00000F09CF930B9684600210022002300F052
:103D0000BFF908B10F2000E0002004B010BD1CB5C1
:103D1000040001D10A2016BD0020019001A800F086
:103D20009BFCC1480068019981808088E082204620
:103D300000F062FD78B904F11800009001232168B9
:103D40001322002000F0D6FB08B10F2016BD20463C
:103D500000F052FD00B1112016BD2DE9F84180465A
:103D60000D46140014BF002D0A208DB061D0212112
:103D700004A8AD4E06F096FF316800208DF80C00C7
:103D800003A88F88029004A9019129462279009204
:103D90003A462368404600F026FC08B10F2048E070
:103DA0002279206804A9FFF739FD2046FFF77AFD44
:103DB00008B110203DE0A579E079217A45EA002597
:103DC000306845EA014581688D420DD0856000214B
:103DD0009DF80C0000F02AF901002AD1042000F01F
:103DE0003FF9010002D024E0032022E0617AA07AAA
:103DF00041EA0020E17A40EA01443B462246294656
:103E00000320FFF79CFE010013D13B4622462946C2
:103E10000220FFF794FE01000BD130689DF80C10D2
:103E2000817000224FF0FF31C26081610161416108
:103E300000200EB0BDE8F0812DE9F8411C460322B8
:103E4000002C87B007464FD0DFF8DC81D8F800009F
:103E5000C1688F4238BF062043D394F8200000B9D0
:103E60000222B9420AD2002001970090A36894F878
:103E70002810606AFFF7CCFD010032D1204600F027
:103E8000F1FC002832D120792568A168061F002D99
:103E900018BF14F12C0027D0B0B240F201129042AA
:103EA000A8BF0E201DDA03A80290009101970023FD
:103EB00000220221B0B2FFF70DFE04F12C000090A9
:103EC0000223B2B2294603A800F014FB08B10F2068
:103ED00007E0204600F0C6FC40B9D8F80000C760F3
:103EE000002008B0BDE8F0810A20FAE71120F8E7C9
:103EF0002DE9F04FCBB00746549C002C0D461E46D2
:103F00003DD08DF80C200022009269469DF80C00EF
:103F1000FFF74AFEC0B90098B04202D310F1010F7A
:103F200012D12046FFF712FD80B904A93846FFF7E9
:103F3000F2FD010073D104980595A16890F8018005
:103F40008D4205D002206AE0062068E0102066E07D
:103F5000DFF8D4B0207BDBF80010400900F0010945
:103F6000887808B94FF0000904F1280041680498E6
:103F7000069190F802A020792568071F0DB90A2044
:103F80004DE0B8B240F201118842A8BF0E2046DAD7
:103F90004FF48872002107A8FFF758FC059900919B
:103FA00007A80290019601234A465146B8B2FFF78E
:103FB00091FDBAB229460BA8FFF730FC069A1037DC
:103FC0005346B9B207A800F09FFA88B994F82000C8
:103FD00008B94FF00208012001960090059B94F863
:103FE0002810606A4246FFF713FD010004D016E076
:103FF000012814D00F2012E09DF80C10DBF800000F
:10400000491E03290AD8DFE801F008060402C66148
:1040100004E0866102E0466100E0066100204BB0EA
:10402000BDE8F08F44020020DC1B002038B584B0CE
:1040300009B10B2012E0694600220023002400256C
:1040400081E83C00012804BF20208DF800000422F4
:104050000021684600F0A4FA00B10F2005B030BD81
:104060001FB5042818BF0B2008D168460021002284
:104070000023002400F004F800B10F2004B010BDAC
:1040800080E81E007F22042100F08ABA10B56E4C31
:10409000FC2200212046FFF7D9FB002200202260ED
:1040A000606010BDF8B5044609B90120F2BD0023D7
:1040B000654D05F108001E0600EB16564FF0000C8A
:1040C0001FFA8CF0305CE0B90CF1010C1FFA8CF097
:1040D0001028F5D3286800B92E60686800B1066022
:1040E0000020306017466E603471B76092B2701D68
:1040F000FFF794FB641F02D0E41E022C07D80120B6
:1041000006E05B1CD8B20F28D3D10220F2BD0020FC
:1041100030737F1CD5F8F8003F18C5F8F870002000
:10412000F2BD10B508B9012010BD474A1168884298
:1041300006D041B10B68834218BF1946F9D102E09D
:104140000368136000215468844208BF516009B1BC
:1041500003680B6000210160D2F8F83081685B1AB7
:104160005B1EC2F8F83010220021FFF76FFB002021
:1041700010BD10B53448006800E0204630B1017B26
:104180000468002908BFFFF7CCFFF6E710BD10B5A3
:104190002D48006800280AE0FFF7C3FF06E0017918
:1041A0000468491FF8D0C91E0229F5D92000F6D1AC
:1041B000002010BD08B9012070472349D1F8F8202C
:1041C0000260002070472DE9F041804616461E48E7
:1041D000046800270D46002E18BF002D0FD10120C6
:1041E0001EE02079F0557F1CA268FFB292B2611DDB
:1041F000F019FFF713FBA0682468C719FFB25CB180
:10420000A168A8EB0700491C8842EAD2266820462C
:10421000FFF787FF3400F9D12846FFF7CBFF0020D6
:10422000BDE8F08108B901207047074909680022FC
:10423000027000E0096821B10A7B012AFAD101214C
:1042400001700020704700000C160020014600207D
:10425000891E112915D8DFE801F009110B110F0D86
:104260000B0B1114140D14140F11131303207047AA
:1042700002207047062070470120704705207047D4
:104280000420704718B591B0044610A900F0E3F877
:10429000002869D1200008BF0FF2204328D0012C4C
:1042A00008BF0FF2304323D0032C08BF0FF23C436A
:1042B0001ED0022C04D10FF24C43002200211AE040
:1042C000042C08BF0FF2544312D07F2C08BF0FF20A
:1042D00064430DD0802C08BF0FF2704308D0812CAE
:1042E00008BF0FF2804303D0822C06D10FF28C431B
:1042F000002200210220FEF78AFC1098DFF8AC3380
:10430000017C10980F910022C17B10980E91817B47
:1043100010980D91417B10980C91017B10980B9196
:10432000C17A10980A91817A10980991417A10986F
:104330000891017A10980791C179109806918179B6
:104340001098059141791098049101791098039182
:10435000C17810980291817810980191417800916C
:1043600002200021FEF753FC12B010BD70B50022F0
:1043700000F081F805D0521CD3B20A2BF8D30320E9
:1043800070BD73E02DE9F841CBB006460D001ABFB1
:10439000529C002C022090461F462BD005A806F008
:1043A00084FC69463846FFF7E1FF070021D10098F9
:1043B000411C05A806F08AFC26B11022314605A84A
:1043C00006F089FC4246294605A806F084FC05A9AA
:1043D00001A806F0DDFC01A882789DF80710120400
:1043E00042EA016241789DF8040042EA0122024358
:1043F000226038464CB0BDE8F08110B5B0B004463C
:104400006846AB49C02200F0DDF90CB902201BE080
:10441000A8480460C02269462046FFF7FFF90FF262
:10442000743300F013F80020FFF72CFF0120FFF792
:1044300029FF0FF2783300F009F80320FFF722FF7D
:104440000220FFF71FFF002030B010BD0022002126
:104450000220FEF7DCBB70B5002200F00CF805D09E
:10446000521CD3B20A2BF8D3032070BD03F1100005
:104470000860002070BD8F4B1C68D5B205EB051598
:1044800063191E7C86427047F8B50246080084B066
:1044900008BF02200CD00021864C236801EB0115D7
:1044A0002B441E7C964205D0491C0A29F5D30320D3
:1044B00005B0F0BD802A15D16946002200230026F0
:1044C000002781E8CC006B467F22102100F031F8F4
:1044D000064620682844102269461130FFF79EF9ED
:1044E0003046E5E70146102203F11100FFF796F987
:1044F0000020DDE71CB57F2B01DB032016BD049CEB
:104500000094FFF73FFF16BD3EB5144608B90220E0
:104510003EBD01AA009200250A46014601950020F1
:10452000FFF730FF010003D101998C4218BF012031
:104530003EBD2DE9F04104001D4614BF002D0220B0
:10454000BEB00E46174628D0C90806EB11721209F4
:10455000B6EB021018BF05201FD1F022002101A8E0
:10456000FFF774F969463846FFF700FF5FEA000875
:1045700012D1009801AA1021401C06F038FD002736
:1045800007E001AAE919E01906F0A4FD1037FFB20F
:10459000103EB0B20028F4D140463EB0BDE8F081F4
:1045A000F8B584B0144608B902201AE07F2A03D176
:1045B000042918BF032014D16D46002200230026D1
:1045C000002785E8CC000A466B461021FFF7B1FFB3
:1045D000010006D169462046FFF756FF010008BFDB
:1045E000002005B0F0BDF8B51E001CBF079C002CD4
:1045F00001D0089D0DB90220F2BD069F222F01DBDC
:104600000520F2BD3A4631462046FFF707F9791EEC
:10461000631C012289B2701CFFF78BFF08B10720D1
:10462000F2BDE07AC009287014D1E019012310F816
:10463000042D41788578C07842EA012242EA054299
:1046400042EA0062391F89B22046FFF75DFF10B1D0
:104650000120F2BD0420F2BD10B5040001D10220FA
:1046600010BD1548416988472060002010BD80B505
:1046700008B9022002BD01460E48006808220CE07D
:104680000C480068704780B508B9022002BD014699
:1046900008480368082203F10800FFF7BFF800206C
:1046A00002BD0448016801F108007047803B010821
:1046B0009C370108E01B00209C3901082323232399
:1046C0002323204170704B65793A20202020202040
:1046D00000000000232323232323204E776B4B6508
:1046E000793A2020202020200000000023232323CB
:1046F000232320417070534B65793A2020202020DD
:1047000000000000232323232323204E776B534BE9
:1047100065793A2020202020000000002323232355
:104720002323204D43526F6F744B65793A2020202C
:1047300000000000232323232323204D434B454B1C
:1047400065793A2020202020000000002323232325
:104750002323204D434B65795F303A2020202020D1
:1047600000000000232323232323204D43417070A6
:10477000534B65795F303A20000000002323232348
:104780002323204D434E776B534B65795F303A209E
:1047900000000000232323232323204F54414120E2
:1047A0002323232323230D0A000000002323232394
:1047B00023232041425020202323232323230D0A97
:1047C000000000004AB1000011F8013B521E00F841
:1047D000013B1CBF11F8013BF8E7704700280AD0E5
:1047E000B0FA80F18840D1F19D01C905020672F14D
:1047F000004241EB1020704710B504001CBF206838
:10480000002801D1012010BD2179162901DC0220E8
:1048100010BD6379037008222068A11D401CFFF7BA
:1048200008F82068082204F10E010930FFF701F8AA
:104830002168E08A48742168E08A000A8874216847
:10484000A069C8742168A069000A08752168A06978
:10485000000C48752168A069000E8875172020712A
:10486000002010BD70B504001CBF2168002901D1D3
:10487000012070BD227B04F1280502F00F02287888
:10488000083200B1521C10182379001D80B28342F7
:1048900001D2022070BD607908702268A168517051
:1048A000A0682168000A88702168A068000CC870A0
:1048B0002168A068000E08712168207B487121687A
:1048C000E08988712168E089000AC87104F110014B
:1048D000227B206802F00F020830FEF79FFF267B44
:1048E000287806F00F06083628B1216894F82000D1
:1048F000B2B2761C8854B3B220682A78616A184430
:10490000FEF78CFF297823686A68701886B2401C0D
:104910009A5583B269682268090A00F009F8090CFF
:1049200000F006F8090ED154401C2071002070BD23
:10493000D154401C6968226883B270472DE9F04F5A
:10494000044685B0A0780028884693461F4655D176
:1049500094F910A094F91190A0683860002561794D
:10496000012945D102208DF800006946A27C8DF80E
:104970000220E07CFEF7F6FB46B25645A8BFB246E1
:10498000B24508BF3D6033D0A089A168E289814269
:1049900028BF0125101881422AD308218DF8001064
:1049A0006946E07CFEF7DEFB8146A068E189B0FB4A
:1049B000F1F201FB120001281AD122218DF800101A
:1049C0008DF801A06946A07C8DF80200E07CFEF71E
:1049D000C9FB824640B2B04202BF002520790128BF
:1049E00006D102218DF8101002A9E07CFEF70AFC26
:1049F00088F800A08BF80090284600E0002005B061
:104A0000BDE8F08F10B5044610460A460146204620
:104A100006F014F9204610BD03E011F8013B00F840
:104A2000013B13465A1E9BB2002BF6D17047130070
:104A300003D00A46194606F001B970472DE9F84F30
:104A4000002994B0D8BF002040F31681491E02907F
:104A5000064600910DF10C09154601930AE07146D6
:104A60000029A1F1010E04DD2021401E06F8011BE2
:104A7000F5D16D1C029A2978B21A19B900988242B0
:104A8000C0F2F780009B02989A4280F2F2802529BA
:104A900018BF06F8011BECD115F8011F00233029BF
:104AA00008BF012330390A294FF0FF370BD2002706
:104AB00005E015F8012B0A2101FB0727303F297873
:104AC00030390A29F5D3297858294FF00A0A4BD0F2
:104AD00063291CD0642918BF69294AD0732921D0C1
:104AE00075294DD0782941D025291CBF252106F8EC
:104AF000011B009A311A914242DA2978002914BF29
:104B000006F8011B6D1E37E0202006F8010B7F1E02
:104B1000002FF9DC0198001D0190001F006806F8C5
:104B2000010BA6E70199091D019151F8048DB8F117
:104B3000000F08BF0FF25018404606F01DFC044657
:104B4000BC42A7EB040A05DA20225146304606F0A3
:104B500075F856440020A042BEBF18F8011B06F8A5
:104B6000011B401CF7DB84E743F040034FF0100AC1
:104B700006E043F0020303E0009A311A9142F2DBAF
:104B8000990705D5019A121D019252F8041D04E0FF
:104B90000199091D0191091F0968DFF8E480BE46EB
:104BA000009F301A381A5C0648BFDFF8D880AAF197
:104BB0000207232F4FF0FF3228BF0026D3D2DF0792
:104BC0004CBF302720279C0748BF00294FF0000C1E
:104BD00004D54FF02D0C4942AEF1010E002421B94D
:104BE00030228DF80C2001240DE0B1FBFAFB0AFB0A
:104BF0001B1118F8011009F80410641C5FEA0B017E
:104C0000F3D1002C00D42246D907AEEB020E0AD411
:104C100071460029A1F1010E05DD2021401E06F894
:104C2000011BF5D125E7BCF1000F03D0401E06F8AB
:104C300001CBF7D071460029A1F1010E09DD401E1C
:104C400006F8017BF6D114E73021401E06F8011B5F
:104C5000F9D011464A1E8C42F6DB21464C1E002933
:104C60007FF7FDAE19F8041006F8011B401EF4D1C1
:104C7000FFE600203070104615B0BDE8F08F000050
:104C8000243C01084C3C01083C4E554C4C3E000075
:104C900067490A6832F4004202430A607047654877
:104CA000006870476448007800F0FF007047624871
:104CB0000068000A704780B50020FFF7E9FFFDF7A4
:104CC0006BFD06F07DFB06F095FBFDF781FF0FF213
:104CD0003910FEF709F80220FEF709F806F090FBFC
:104CE00006F062FC06F062FC0121012006F06BFC7C
:104CF00001BD80B506F07DFC01BD7CB5002406F049
:104D0000CEFB0500280080B240F6B931884201D3BD
:104D1000FE2610E0280080B2B0F5E16F01DA00262F
:104D200009E0290089B2B1F5E161FE2041434FF469
:104D30009660B1FBF0F63000C0B200903F4B01220C
:104D400000210220FDF763FF3000C0B276BD10B530
:104D5000002406F059FB4FF4807190FBF1F080B213
:104D600010BD70B504000026FFF799FF050015F18E
:104D7000010F1CD106F071FC060006F074FC8619C8
:104D800006F06EFC3100090EE1713100090CA171D1
:104D90003100090A617126710100090EE1700100FC
:104DA000090CA1700100090A6170207017E0E5711B
:104DB0002800000AA0712800000C60712800000E75
:104DC0002071FFF76FFF0600E670FFF770FF050028
:104DD000A5702800000A60702800000C207070BDCB
:104DE00038B50024FFF75BFF050015F1010F09D16D
:104DF00006F033FC040006F033FC444006F033FCBC
:104E000044402500280032BD3EB504000D0001A835
:104E1000FDF754FEBDF908000090019B084A1021DF
:104E2000200000F01BF8200006F0A6FA288037BD0D
:104E3000080000588075FF1F8475FF1F3C41010862
:104E40004841010880B50121022006F0B4FB01BDF4
:104E500080B50021022006F0AEFB01BD08B4F0B51C
:104E600004000D00160005AF3B00320029002000B1
:104E7000FFF7E4FDF0BC5DF808FB0100002070477F
:104E800080B506F094FC02BD01B5009806F0B7FCB1
:104E900001BD320010B5DFF8F4190A6A04469047E4
:104EA00038B1DFF8EC09DFF8EC1904198C428041C5
:104EB000C00F10BDF8B507460FF63C2284B00C4673
:104EC000D55700F0D8F8DFF8C429566A072F0146F5
:104ED0000CD10120039005230093E4B200224FF48B
:104EE0007A70029401920023454308E0082300935E
:104EF0000122E4B2002003920294019001232A4689
:104F00001846B04705B0F0BDFEB50FF63421DFF806
:104F100088390A68009201785A68491E382902F5D2
:104F2000906300F2A680DFE801F01D20A4A4A4771E
:104F3000A455A43A3C3E404755575A5D60636669A4
:104F4000727477797B7E9D8080828524A4A4A4A43A
:104F5000A4A4A4A4A4A4A4A4A4928896A4A492966D
:104F6000A4989F00C07810B934E0807890B30222F2
:104F700078E00FF6D01191E8E0006C4684E8E0009C
:104F800090F901108DF80010807800B102208DF8A2
:104F9000020001930292684606F09DFF68E000223D
:104FA00060E0402155E020225CE0817861B990F911
:104FB00001000FF66C1205E0817829B990F9010023
:104FC0000FF66412115C44E090F901100FF66012C4
:104FD000535C23E000213CE040F6B83242E04FF45D
:104FE0007A7136E04FF4FA623CE041F2883130E009
:104FF00041F2707236E04FF480412AE04FF47A714A
:10500000DFF89808FEF7F1FB00F5FA6030E00020C9
:105010002EE0DFF88C2825E002211AE0009328E03A
:1050200002F28C4115E010221CE0012111E04FF04A
:10503000834217E0DFF86C180BE011228DF8002096
:10504000022100228DF801108DF8022011E0DFF816
:10505000581800910DE0032204E090F901000FF6CA
:1050600098010A5C009204E090F9010000F003F856
:1050700000900098FEBD0FF6880106F04CBFF8B511
:1050800000F10C01DFF810482568D1E900670097AE
:10509000334642788168666800780C24604334188F
:1050A0001820667A4643A81906F0C7FCF1BDF8B58A
:1050B00086B0044668460FF62801DFF8DC57182250
:1050C000FFF780FB6968227A01F590601AB1022A25
:1050D0002ED024D330E0206800281CBF616800294E
:1050E0002AD06960286018226946FEF797FB0FF600
:1050F000600168680FF6640691E81C0080E81C00F7
:1051000096E8805000F10C05032185E88050A0F856
:105110008C14012200F28C4100F5906005E0002221
:105120004A600A6101F28C41012206F077FC03E03B
:10513000028881890A43028007B0F0BD80B503462A
:1051400051B105290CD0062913D0072913D00929FC
:1051500018BF0A2918D01FE01868BDE8024099E678
:10516000997893F9000000291ABF0722022107222B
:105170000DE0052209E0597893F9000000291ABFD3
:1051800007220221072202E007220021585606F0DA
:1051900007FC10B1012002BD002002BD70B586B031
:1051A000044650208DF80C002079102802BF216899
:1051B000C87B00282FD100250226206828440178CA
:1051C00001910A46417842EA0122019264218378E2
:1051D00042EA03424A4301920022029206E0072873
:1051E000EBDB002001908DF80C000290019838B1A3
:1051F00001A904918DF8146004A800F0B9FA04E044
:105200008DF80060684600F009FB761CF0B2ED1CDA
:105210000F28EDB2E3DD06B070BD10B5DFF87816EB
:1052200004794B6814B1012C08D00CE0016801220C
:1052300003F5906006F0F2FB012010BD0168012229
:1052400003F28C40F6E7002010BDFEB51E4607288D
:10525000A8BF07200C46707015460FF2A4673946A8
:1052600006F059FEB07096F90100072803D13220EC
:1052700006F04FFD06E057F820100FF27C62105C3C
:1052800006F03FFD0746DFF80406C16D884706F1CA
:10529000080306F10C020093019203462A462146B8
:1052A000384606F03BFDF7BD2DE9F0470446DFF830
:1052B000DC7578688AB094F90160D4F80480894676
:1052C000804708B100205CE0E07C58B92178DFF825
:1052D000C8250C204143506850F80180001D4058FB
:1052E00000B180460FF2106010F906A0F968404640
:1052F0008847A068D7F818C0A17C072E18D10025D0
:105300000991089507950695012105910495039546
:1053100080B202904FF47A71DFF890350093052047
:1053200011FB0AFA0190002352464CF2503110E072
:105330000125099180B208950022079206920592F4
:105340000290049208200392019000920123A17818
:1053500052461846E047617C7A6D012907BF0FF27B
:10536000C850815D0FF2B851895D0D31C9B2284630
:105370009047E07C3246414606F0EEFD89F8006039
:1053800001200AB0BDE8F0872DE9F04F8BB08A46C6
:1053900004460FF2645094F9011046562378DFF862
:1053A000F874DFF8E89478680C214B43C1189346F1
:1053B00091F809C03A68182010FB0CFC02EB0C00B5
:1053C00000F076FA804694F90100FFF754FE0A9047
:1053D000A2686168404606F0C7FC8DF824000C20E6
:1053E0002278796842438858D9F80C10884794F994
:1053F0000100D9F81CC0072814D14FF47A600025A9
:1054000008900795069505950120049003950522BF
:1054100002924FF47A70019510FB06F6009646F260
:10542000A8120EE04FF47A6200200125089207903E
:10543000069005900495082103900291019500962D
:1054400000220A9B9DF924102846E04723787A68B9
:1054500094F901100C204343D05806F09DFDA1891A
:1054600094F90100FFF726FDCBF800002846A1893A
:10547000D9F85420C9B290478AF8008001200BB0B7
:10548000BDE8F08F2DE9F04F8DB004468946924675
:105490009B46062101A805F005FC4FF000080726F1
:1054A000ADF80080DFF8F05301E0C0B90626207A9D
:1054B000804531DA606801A9404406F0C4FB58B366
:1054C00040445FFA80F89DF80710BDF80800ADF879
:1054D000000000294FF0070EE7D0881FE6D16B6867
:1054E000002601270C20B7407043062907D1185821
:1054F00068B1BDF800000743ADF8007007E0BDF8E3
:1055000000203A4203D0185808B90EF0FE0E761C5F
:10551000102EE6DB7646CAE702208DF80C0003A8C1
:10552000617A8DF80E10FFF7EFFC8DF818601023EC
:10553000A17A8DF819109DF805108DF81A109DF8B4
:1055400006108DF81B109DF804108DF81C10E17AE0
:105550008DF81D10217B8DF81E1094F90D208DF80B
:105560001F208DF820300722CDF824D08DF8280098
:105570008DF8292001AB69680B918DF8302000214E
:105580008DF831100DF105012268059205A80DF185
:10559000060206F079FB0446072C0BD168680C2242
:1055A000002100F59060FEF751F96968BDF8000030
:1055B000A1F8800416989DF8051089F800109DF850
:1055C00006208AF800209DF804108BF8001080F85F
:1055D000008020460DB0BDE8F08F38B504460725A1
:1055E0006068FFF757FC00B90625002107226056C6
:1055F00006F0D6F908B905F0FD0594F90100072277
:10560000002106F0CDF908B905F0FB05284632BDAA
:105610001FB502681168032439B901798DF80010AB
:10562000684600F0FBF890B910E0019200798DF81F
:10563000080001A800F09CF848B1042802D0052811
:1056400002D003E0022402E0012400E0002420460E
:1056500004B010BD0020704738B5054603246868C3
:10566000FFF718FC00B902248B4A297852680C20F5
:105670004143505808B904F0FD04032C02D1686876
:10568000121D5050204632BD022070472DE9F841CE
:105690000646144698460022002395B011A80F46EE
:1056A00000218C4680E80E10ADF8081003217A4DD9
:1056B000ADF80A1001226B68002103F5906006F036
:1056C00091F908B900F04CF806F10C03707A8DF8E6
:1056D0000C00317A8DF80D106968059101F5906222
:1056E0000492102229680691ADF81C200DF10A01E0
:1056F000089132680992012270680A90B17A8DF897
:105700002C108DF82D20D3E90001CDE90C01307D5E
:105710008DF83800F18A96F90800FFF7CBFB03A952
:105720000DF109020F9010910092019402AB11AAA1
:10573000414609A806F08BFB040009D19DF808102A
:10574000491E0020FEF751F811A9085C387003E0EB
:105750000C2801D100F004F8204616B0BDE8F08115
:105760006868B0F8801441F00301A0F88014704715
:10577000F8B50646002735790024012D28DD102DC7
:1057800001DB0320F2BD00F043F843F3030006F011
:1057900007F900B9012700F03BF843F3031006F0C6
:1057A000FFF800B90127306890F9081041F30310A1
:1057B000316891F9082042F303018842306800689B
:1057C000B8BF0127FFF766FB00B90124274201D0CB
:1057D0000620F2BD0FB10520F2BD0CB10420F2BDD0
:1057E0002D4F316878680C2414FB05F40C222044FA
:1057F000FEF714F878680219002151720121B0F8FF
:10580000803401FA05F51D43A0F880540020F2BD54
:10581000306890F9083007220021704770B5017890
:105820000A46022A01DA002070BD1B4B5B680C207F
:105830004243981800240025002680E87000BDE847
:105840007040102203F5906006F0B2B870B50446BF
:105850000C252278104E706831686A430244182083
:10586000537A4343C81800F023F82278716815FB77
:1058700002F54D59A268616806F076FAA289034BD9
:10588000DC6B01462846A04770BD00009C3901082A
:10589000403576C9415DC6008C1B002018FCFFFF17
:1058A00000EA06379A99094040F709378545010013
:1058B00090F9021094F9020006F029BB0023012898
:1058C0001DA0805608BF02230A1A9A4204DB062A4A
:1058D000ACBF0521091A00E01946C8B270470000A4
:1058E0006400000000000000000000000000000054
:1058F00000000000000000000C0B0A090807073236
:1059000048E8010048E8010048E8010048E80100D3
:1059100048E8010048E8010090D0030000000000C2
:1059200033333373F2F2F2F233333373DEDEDEDE1F
:1059300000000B357DF2F2F2000102030405FFFEC8
:105940000000000000070010000000000000000040
:1059500000EA0637000000005000000040F7093759
:10596000000000005000000010B5DFF8181A0A6AA5
:1059700004469047C8B1DFF8100ADFF8102A001972
:10598000904208D2DFF8083ADFF8041AB0FBF3F3CC
:1059900001FB130008B1002010BDDFF8F809DFF8A3
:1059A000F81904198C428041C00F10BD38B50D465E
:1059B00084B0044600F0D4F801220392EDB2002135
:1059C0000FF61C22029501910823009301461257FD
:1059D000DFF8B049656A01230120A84705B030BD52
:1059E000FEB50FF64C21DFF8B4390A685B68DFF8C2
:1059F000B019009203F590640578DFF894296D1EC4
:105A0000382D00F2AB80DFE805F01D21A9A9A926F9
:105A1000A975A9823E40424E825A5D606366696CF8
:105A200075999B77797C7E8082848728A9A9A9A90A
:105A3000A9A9A9A9A9A9A9A9A9948A989BA994984F
:105A40009B9DA400C078002877D002E080780028D1
:105A500050D002227BE0022170E00FF6D81191E8CD
:105A6000E0006A4682E8E00090F901108DF800102D
:105A7000807800B102208DF80200029301946846FC
:105A800006F029FA69E0402158E020225FE090F911
:105A900001108078002819BF0FF67412505C0FF6C1
:105AA0005012505C59E090F90110807818B90FF647
:105AB0005012505C51E00FF66812515C3EE040F627
:105AC000B8313BE04FF47A7241E04FF4FA6135E0CF
:105AD00041F288323BE041F270712FE04FF4804296
