:020000040800F2
:10000000482C0020655F0108C3F80008CFF80008FD
:10001000DBF80008E7F80008F3F80008000000002B
:10002000000000000000000000000000FBF80008D5
:10003000FDF8000800000000FFF8000801F90008C2
:10004000B55F0108B95F010803F90008BD5F010849
:10005000C15F0108C55F0108C1F90008CBF90008BC
:10006000D5F90008DFF90008E9F9000835F90008BA
:100070003FF90008C95F010849F9000821F90008A3
:100080002BF90008CD5F0108D15F0108D55F010899
:10009000D95F0108DD5F0108F3F90008E15F01089D
:1000A000E55F0108E95F0108ED5F0108F15F010804
:1000B000F55F0108F95F0108FD5F010801600108B3
:1000C00053F900085DF9000867F9000805600108A8
:1000D00071F900087BF9000885F90008096001083A
:1000E0000D600108FFF900080BFA00081160010813
:1000F00015600108196001081D60010821600108F0
:10010000256001082960010815FA00082D60010822
:1001100031600108356001080DF9000817F9000881
:10012000396001083D60010841600108456001082F
:10013000496001084D600108E0B503F097FCDFF865
:100140003C1C0860684603F049FDDFF8341CDDE91B
:10015000002311F54E70C0E90023DFF8280C026877
:1001600052F010020260D1F84803002808D0D1F8FC
:1001700048030069002803D0D1F84803006980478C
:10018000DFF8143D01220021022003F0C6FD07BD67
:100190002DE9F04104000D0016001F00DFF8948CDB
:1001A00003F064FCC8F80000C8F80440A8F8085040
:1001B000A8F80A6088F80C70DFF8C80B016851F0E5
:1001C00008010160DFF8B81BD1F84803002808D007
:1001D000D1F848030069002803D0D1F8480300692A
:1001E0008047DFF81C3D01220021022003F095FD2D
:1001F000BDE8F08180B5DFF88C0B016851F0040197
:100200000160DFF87C1BD1F84803002808D0D1F842
:1002100048030069002803D0D1F8480300698047EB
:10022000DFF8E03C01220021022003F076FD01BD51
:1002300080B5DFF8500B016851F002010160DFF872
:10024000401BD1F84803002808D0D1F848030069C2
:10025000002803D0D1F848030069804701BD80B56C
:10026000DFF8200B016851F001010160DFF8101B7D
:10027000D1F84803002808D0D1F8480300690028C5
:1002800003D0D1F8480300698047DFF87C3C0122A5
:100290000021022003F041FD01BDDFF8700C90F851
:1002A000FC00022805D00620DFF8D41A81F880046B
:1002B00004E00220DFF8C81A81F8800470472DE9B5
:1002C000F8438AB0DFF8446C96F8FC00022803D0AB
:1002D000DFF8180DC06A8047DFF8A45A15F560777B
:1002E000D5F8B013380003F06CFB380003F003FBC3
:1002F00015F56677D5F8B413380003F062FB3800C3
:1003000003F0F9FA96F8FC00022803D095F81404DB
:10031000012813D116208DF8180006A996F8400080
:1003200003F092FE040015F57E77D5F8B41361183A
:10033000380003F046FB380003F0DDFADFF83C0A32
:100340000168F16295F815148DF8041000680290A8
:1003500008A803F05DFC16F58270D0E90089CDF89D
:1003600000904346DDE908010A00010008A803F0F7
:10037000F4FBDDE90801CDE90401D5F81804039088
:1003800001208DF8050096F81001002802D1002008
:100390008DF8050001A996F8400003F07FFE95F85E
:1003A0001404002802D1002085F839040BB0BDE800
:1003B000F08310B5DFF8C849D4F8400350F080004E
:1003C000C4F8400394F81404012802D1002000F07E
:1003D000B9FE94F8810450F0020084F8810494F886
:1003E000810450F0200084F88104FFF756FF10BD0F
:1003F0002DE9F04FA3B05FF0130BDFF8380A416826
:1004000006910489B0F90A10ADF8141090F90C5057
:100410005FF0000800200490DFF8F09AD9F8CC00D3
:100420000A9000260127DFF858A900208AF83C042A
:10043000BDF81400AAF87C048AF87E549AF8800467
:100440008AF87F0400208AF81F0400208AF81E041E
:1004500000208AF821040020CAF8240400208AF829
:10046000280400208AF8290400208AF82A040020A1
:10047000CAF82C0400208AF81C040020CAF83004B2
:1004800000208AF83404DFF8640BC06A80471AF54C
:10049000667003F06BFA210089B2069804F01DF92A
:1004A000012806D1BDF81400AAF872048AF8745421
:1004B000DDE299F8FC0001281AD104F012F90128B4
:1004C00009D1002004F002F9002004F004F904200E
:1004D0008AF87F040CE004F006F9012808D1002016
:1004E00004F0F5F8002004F0F7F805208AF87F04FE
:1004F00006984146C9B2405C8DF80E0018F101081B
:100500008DF80D809DF80E00C0B24009C0B20128E0
:1005100009D0032800F09C80052800F09680072869
:1005200000F0648283E2200080B2112805DA012005
:100530008AF81D04FFF73DFF99E206981990200004
:100540008DF8680099F81001002805D001208AF87C
:100550001D04FFF72EFF8AE204F009FB19AA01002F
:10056000FF2004F03AFD83465846C0B200285CD113
:100570009DF86D00C9F8C800D9F8C8009DF86E1044
:1005800050EA0120C9F8C800D9F8C8009DF86F10DA
:1005900050EA0140C9F8C8001C98C9F8CC009DF881
:1005A0007400C0F3021089F861009DF8740010F027
:1005B0000F0089F868009DF8740010F00F0089F8AA
:1005C00070009DF87500C9F85000D9F85000002857
:1005D00002D10120C9F85000D9F850104FF47A70B8
:1005E0004143C9F85010D9F8500010F57A70C9F895
:1005F0005400002089F80E010DF1760017902000BC
:1006000011388DF8600017A999F8400003F0BAFD81
:10061000022089F81001012004F005FF01280DD106
:100620000121002004F0CDFE08E0012004F0FBFED3
:10063000012803D10121072004F0C3FE9AF88104A8
:1006400050F008008AF88104F6E101208AF81C04C1
:1006500099F875008DF822009AF920048DF8210090
:100660000D208DF8200099F88000012802D10E207D
:100670008DF8200008A999F8400003F0E5FC0790E8
:10068000B4F10D0000B2002801D5002002E0B4F161
:100690000D0000B207A9B1F90010814203DB200070
:1006A00080B20C2805DA01208AF81D04FFF781FECC
:1006B000DDE106980B9020008DF830001AF50E70E1
:1006C0001490FF208DF854000BA804F043FF00287D
:1006D00005D001208AF81D04FFF76BFEC7E10D98D5
:1006E000CAF8300403A90BA801F0A5FF002805D023
:1006F00001208AF81D04FFF75CFEB8E10020060027
:100700000020049000200100C9B2002934D12C211E
:100710000200D2B24A434A44D2F8D4200D9B9A42F6
:1007200028D10200D2B24A434A4492F8D220012A88
:1007300020D1012216000200D2B24A434A4492F864
:10074000D32017000200D2B24A434A44D2F8F02024
:10075000126804920200D2B201FB02F14944D1F8BE
:10076000D4100A9199F8FC10022902D103218AF8C9
:100770007F1401E0401CC6E73000C0B201280ED152
:100780009DF80C00032804D19DF8380010F0600F8C
:1007900005D001208AF81D04FFF70BFE67E1152044
:1007A0008DF8200008A999F8400003F04DFC07904F
:1007B00004A802900DF10F000190079880B20090FC
:1007C00019F5867003680BAA9DF80C103800C0B2AA
:1007D00000F0E1FC80464046C0B200282AD04046E6
:1007E000C0B2072815D108208AF81D0499F80E0117
:1007F000002819D19DF80E00C0B24009052813D178
:10080000D9F83400169988420ED1012089F83A00AF
:100810000AE04046C0B2082803D10A208AF81D0425
:1008200002E001208AF81D040498CAF82C04FFF79E
:10083000C0FD1CE10BA80090049B9DF80F200A99B5
:100840003800C0B204F094FC83465846C0B2002879
:100850000DD05846C0B2022803D10B208AF81D04DF
:1008600002E00C208AF81D04FFF7A3FDFFE0002042
:100870008AF81D048AF81E649DF83800C0F3001041
:100880008AF821040020CAF8240400208AF82804E9
:100890000498CAF82C049DF83800C0B2400910F042
:1008A00001008AF82A0400208AF839049DF83800EB
:1008B000C0B2400910F001008AF83C049AF87F04A5
:1008C000002803D09AF87F04012802D10020C9F83B
:1008D00028003000C0B2012803D102208AF81C048D
:1008E00019E09DF80E00C0B2400905280DD1012085
:1008F00089F83A0099F80E01002802D11698C9F833
:10090000340001208AF81C0405E0002089F83A0030
:1009100000208AF81C049AF838249DF838109AF8B8
:100920007F0401F05AFB9DF80C00002805D0022836
:1009300031D01ED303283ED04CE09AF87F040090BB
:100940002B005BB29DF8382012F00F0200210FA897
:1009500000F038FD9DF84C008AF81F041498CAF87E
:1009600024049DF854008AF8280401208AF82904F8
:1009700035E09AF87F0400902B005BB29DF8382098
:1009800012F00F0200210FA800F01CFD9DF84C0092
:100990008AF81F0423E09AF87F0400902B005BB2D2
:1009A0009DF854200021149800F00CFD9DF84C0097
:1009B0008AF81F0413E09DF84C008AF81F0414986D
:1009C000CAF824049DF854008AF8280401208AF803
:1009D000290404E001208AF81D04FFF7EAFC9AF8D4
:1009E000810450F002008AF8810425E01AF50E789F
:1009F0009DF80D20A21A92B206989DF80D100144A0
:100A0000404604F025FE03208AF81C0400208AF8E2
:100A10001D04CAF824849DF80D00201A8AF82804C1
:100A20009AF8810450F002008AF8810404E0012061
:100A30008AF81D04FFF7BDFC9AF81404012807D1B9
:100A40009AF83C0401280AD1002000F07BFB06E064
:100A500099F8FC00022802D1002000F073FB9AF8FC
:100A6000810450F020008AF88104FFF716FC23B0BF
:100A7000BDE8F08F10B5DFF8940490F8FC00022870
:100A800003D0DFF86805C06A8047FFF706FCBC4C5E
:100A9000022084F83904022004F0B1FC94F8140414
:100AA000012802D1012084F8130494F8810450F045
:100AB000200084F8810410BD2DE9F04104000D00F0
:100AC0000026DFF8487497F8FC00022803D0DFF80E
:100AD0001C05C06A804703F002FE012807D10220EE
:100AE00003F0F3FD002003F0F5FD0120060097F868
:100AF000FC00012817D103F0F4FD012807D10020E4
:100B000003F0E4FD002003F0E6FD0120060003F001
:100B1000EAFD012807D1002003F0D9FD002003F0F1
:100B2000DBFD012006003000C0B2002835D1DFF81F
:100B3000508298F8800400281BD198F814040128EA
:100B400001D188F839442000C0B204F058FCF86A9A
:100B500002F094FFD8F8B41388421ED318F56670DB
:100B600002F004FF98F8810450F0200088F8810416
:100B700013E098F81404012801D188F839542800AA
:100B8000C0B204F03CFC97F8FC00022805D098F8AD
:100B9000810450F0200088F88104FFF77EFBBDE857
:100BA000F08180B506210520FFF786FF01BD80B5E5
:100BB00004210320FFF780FF01BD38B5EFF3108556
:100BC00072B6704804680021016085F31088002C1B
:100BD0001BD0C4F30010002801D0FFF770FBC4F352
:100BE000C000002801D0FFF703FCC4F380000028F8
:100BF00001D0FFF73FFFC4F34000002801D0FFF70A
:100C0000D0FFE00701D5FFF7D2FF31BD5C49D1F835
:100C10004003002805D191F88204012801D1002069
:100C200000E001207047564981F88204704738B5CA
:100C3000534C94F88154D4F84003002840D194F8E0
:100C4000810410F00100002805D094F8810410F010
:100C5000FE0084F8810494F88104C0F38000C0B2DF
:100C6000002805D094F8810410F0FB0084F881047A
:100C70000120FFF7D8FF15F00100002805D014F57A
:100C80008760D4F8441309688847C5F38000C0B270
:100C900000280DD004F24C4004F0CEFB04F0F6FB2B
:100CA000002805D094F8810450F0040084F88104F1
:100CB00003F01FFD94F8810410F0DF0084F8810434
:100CC00031BD80B52E48D0F8400300280BD100205C
:100CD0008DF80000684604F0CBFD9DF80000012867
:100CE00001D100F064FB01BD18B587B0244C94F825
:100CF0008104C0F3C000C0B200280DD094F8810474
:100D000010F0F70084F8810404F27C4114F58C6043
:100D1000D4F84423D268904794F88104C0F30010BB
:100D2000C0B2002812D007208DF8000000208DF8F6
:100D3000010004F27C416846D4F84423D26890470D
:100D400094F8810410F0EF0084F8810494F8810491
:100D5000C0F34000C0B200280DD094F8810410F018
:100D6000FD0084F8810404F27C4104F21C40D4F8B4
:100D700044235268904708B010BD00001C24002096
:100D8000880800201824002070B5DFF8184D94F86A
:100D9000810410F0010000284AD00025002694F8B4
:100DA0003804002803D094F83804032803D101F054
:100DB00076FC05001BE094F83804012817D194F85C
:100DC0001304012811D101F08BFC05004F4890F865
:100DD0000E0100280BD12800C0B2002802D101F07A
:100DE000D9FC04E001F002FD01E00120060028002A
:100DF000C0B201280CD114F55A7002F0B7FDD4F836
:100E0000400330F02000C4F8400301F085FC0FE0FF
:100E10003000C0B200280BD194F8810410F0DF003C
:100E200084F88104002084F81304002000F018F9ED
:100E300070BD00008C23002010B5DFF8684C94F8DA
:100E40008104C0F38000C0B2002823D0012004F048
:100E5000EAFA01280ED1012004F0C3FA002802D1D9
:100E6000002084F81004D4F8400330F00200C4F8E5
:100E700040030FE0052004F0D6FA012804D0062034
:100E800004F0D1FA012805D1D4F8400330F0020073
:100E9000C4F8400310BD0000045F010880B50C20B9
:100EA00004F0C1FA012816D1DFF8F81B91F881048B
:100EB00010F0010000280ED191F88104C0F38000E9
:100EC000C0B2002807D0D1F8400330F00200C1F8CA
:100ED0004003012000E0002002BDDFF8C80B90F8BD
:100EE000401309060BD5D0F8401331F08001C0F84B
:100EF0004013D0F8401331F00201C0F8401370479E
:100F0000145F0108245F0108345F010858010020C4
:100F1000F8B5040000260025DFF8880BD0F8400360
:100F2000002861D12421200004F0B1FB0700606A91
:100F3000874202D0676255F00105142114F12800A0
:100F400004F0A5FB0600E06B864202D0E66355F094
:100F50000205D42114F1400004F099FB0700D4F8F5
:100F60001401874203D0C4F8147155F00405BC2164
:100F700014F58C7004F08BFB0600D4F8D401864283
:100F800003D0C4F8D46155F00805A02114F5EC7025
:100F900004F07DFB0700D4F87802874203D0C4F840
:100FA000787255F010054FF4936114F51F7004F03A
:100FB0006EFB0600D4F81407864203D0C4F8146709
:100FC00055F02005142114F5E36004F060FB0700E0
:100FD000D4F82C07874203D0C4F82C7755F040058D
:100FE000280080B201F0C2FBF1BD000024570108C7
:100FF00038B50024FFF7E1FD03F08CFBDFF8A45ABD
:1010000095F88104C0F34010C0B200281FD0002022
:10101000FFF709FEFFF761FF01F00AFC002803D08B
:10102000FFF73CFF204304002000C0B2002803D19A
:10103000FFF702FFFFF7A8FEFFF7F9FDFFF741FEFC
:10104000DFF8500DFFF764FF0120FFF7ECFDFFF71D
:101050004BFE95F88004022801D101F0AAF831BDB9
:1010600038B50400DFF83C5A15F55A7002F07EFCE2
:10107000D5F8400330F02000C5F84003012000F00F
:10108000B9FE002801D00B2800D111E0DFF8040DD3
:1010900090F8390085F83A0495F8120485F83D0473
:1010A000092085F83904092004F0A9F901F034FB7E
:1010B00031BD10B50400DFF8EC0990F8151480F884
:1010C000B813DFF8D01C91F9612080F8BB2391F8A8
:1010D000752080F8C82391F8801080F8C91300218A
:1010E00080F8CA13002180F8CB1310F56E7110F54B
:1010F000607001F03EF810BD10B50400DFF8A429BF
:1011000092F8800400281CD092F8150482F8CC03D1
:10111000DFF8800C416EC2F8D01390F8751082F899
:10112000DC1390F8800082F8DD03002082F8DE03F3
:10113000012082F8DF0312F5737112F5667001F079
:1011400018F810BD38B50400DFF8585915F57E7051
:1011500002F00CFC95F81404012802D1012085F856
:101160001304DFF8300C90F8FC00022805D195F844
:10117000810450F0200085F88104D5F84803002848
:1011800008D0D5F848030069002803D0D5F84803F3
:101190000069804731BD2DE9F84380468946140037
:1011A000089F099D0A9E002C03D0002D01D0002E1F
:1011B00001D10A2026E04046C0B2002816D00128FE
:1011C00017D19DF8020001280DD14846C0B2002871
:1011D00003D04846C0B2032802D10220287004E0A0
:1011E0000120287001E00320287004E0042028700A
:1011F00001E0052006E03300E289390089B2287851
:1012000003F05FFEBDE8F283F8B504000325DFF8C4
:10121000846B96F8FC00002803D002287DD070D3A0
:1012200086E02000C0B2002807D116F16400D0E9A2
:10123000002316F16C00C0E900232000C0B2012891
:101240000AD12000C0B203F055FA05002800C0B250
:10125000002801D186F8FC402000C0B202284FD1FE
:1012600086F8FC40DFF83C7817F5787017F5737155
:10127000142204F03DFB022087F8F3030020010054
:1012800049B2012932DA2C21020052B212FB01F2DA
:10129000324492F8D220012A26D1020052B212FB27
:1012A00001F23244D2F8E820F266020052B212FB98
:1012B00001F1314491F8EC1086F8701097F815148C
:1012C00087F8E013F16EC7F8E41396F8751087F805
:1012D000F01396F8801087F8F113032187F8F313C1
:1012E000012187F8F21301E0401CC8E7002087F8CD
:1012F00014043348C06A804700F05BFF00200500FB
:1013000016E02000C0B203F0F5F905002800C0B2D5
:10131000002801D186F8FC400AE02000C0B2002875
:1013200006D186F8FC402648C06A804700200500A8
:101330002800C0B2F2BD1CB50400DFF8580A90F8CE
:1013400074108DF802108DF801400D218DF80010F9
:1013500090F88010012902D10E218DF80010694605
:1013600090F8400002F070FEC0B216BD2DE9F041C9
:1013700004000D00160000275FF00008280040B2AE
:10138000FFF7D9FF02003000C0B250FA84F110001C
:101390000B0080B29BB2984206D3080080B2B0F531
:1013A000807F01DA012000E00020BDE8F081DFF855
:1013B000F40690F8811451F0100180F88114704700
:1013C000245701082DE9F04F9BB004000E001500D2
:1013D000994600208DF808005FF0000802210022E5
:1013E0000DF10A07380004F0C7FA30002900C0B236
:1013F000C9B2884280F053833000C0B2205C04F050
:101400004BFA50FA86F02900C9B28142C0F24783F4
:101410003000461CC0B2205C022826D003283CD0F5
:10142000042800F0A780052800F0BB80062800F003
:101430000F81072800F02A81082800F06C81092814
:1014400000F089810A2800F0DE810D2800F0188262
:10145000102800F09382112800F0A582122800F0D5
:10146000CF82132800F0F38218E3042003F0DBFF9F
:10147000012811D10421002003F0A3FFDFF8240686
:101480003100C9B2615C80F85414761C3100C9B2D5
:10149000615C80F85514761CA7E700208DF80E00DB
:1014A00000208DF80D0000208DF80C0000208DF834
:1014B00009004046C0B200285BD1012080463000C0
:1014C000C0B22044401E1090A81BFF388DF8440085
:1014D000DFF8507A97F8FE008DF8460097F8740010
:1014E0008DF8450097F839008DF8470097F83800D7
:1014F0008DF8480097F860008DF8490017F5867060
:1015000000680F900DF10900019003A800900DF103
:101510000D030DF10E020FA997F8400002F024FF11
:101520008DF808009DF8080010F0070007280BD17F
:101530009DF80E0087F839009DF80D0087F83800F7
:101540009DF80C0087F8600000279DF80900052130
:1015500090FBF1F03900C9B2814206DA012202A9FA
:10156000032004F0C5F87F1CEFE79DF80900401E3A
:1015700086193AE7DFF8AC193000C0B2205C10F0F1
:101580000F0081F8FF00761C012291F9FF008240D4
:10159000A1F8022100220DF10A01042004F0A8F8AC
:1015A00023E707208DF808003000C0B2205CC0F3AC
:1015B00002108DF811003000C0B2205C10F00F0056
:1015C0008DF81000761C3000C0B2205C0590761CAF
:1015D00005983100C9B2615C50EA01200590761C83
:1015E00005983100C9B2615C50EA01400590761C53
:1015F0000599642041430591DFF8287904A997F8FB
:10160000400002F0EFFE8DF808009DF8080010F091
:10161000070007280FD19DF8100087F868009DF893
:10162000100087F87000059878660598F8669DF8B0
:10163000110087F861009DF808008DF80A0001226A
:101640000DF10A01052004F053F8FFF7B0FECCE6D7
:10165000FF27DFF85014D1F84803002809D0D1F84B
:1016600048030068002804D0D1F848030068804788
:1016700007008DF80A7019F03F008DF80B00022268
:101680000DF10A01062004F033F8AEE603208DF8D0
:1016900008003000C0B220568DF86000761C0CA8FF
:1016A00017903000C0B2205C0C90761C0C98310072
:1016B000C9B2615C50EA01200C90761C0C98310094
:1016C000C9B2615C50EA01400C90761C0C99642010
:1016D00041430C9100200D903000C0B220568DF88F
:1016E0003800761C17A9DFF83C0890F8400002F09B
:1016F0009FFE8DF808009DF9080040B2002809D42B
:101700009DF808008DF80A0001220DF10A0107205A
:1017100003F0EEFF69E63000C0B2275C17F00F0758
:10172000761C3800C0B2002800D17F1CDFF8F41707
:101730003A00D2B24FF47A7042430A65086D10F550
:101740007A70486500220DF10A01082003F0D0FFED
:10175000FFF72DFE49E63000C0B214F800A0761C59
:1017600000208DF8000000208DF801005046C0B226
:10177000800602D501208DF801005046C0B2C00697
:1017800002D501208DF800001AF00F008DF802003C
:10179000DFF890B769469BF8400002F06FFE10F149
:1017A000010F2FD09DF800008BF874009DF8010008
:1017B0008BF87500DFF8340D9DF80210405C04F0E2
:1017C0000FF9CBF8780002208DF854009BF87400D4
:1017D0008DF8560015A99BF8400002F035FC070073
:1017E00038009BF9391040B2884202DA9BF939007F
:1017F00000E038008BF8390000220DF10A010920C1
:1018000003F076FFF1E503208DF808003000C0B248
:10181000205C8DF82000761C3000C0B2205C09905E
:10182000761C09983100C9B2615C50EA0120099028
:10183000761C09983100C9B2615C50EA01400990F8
:10184000761C099964204143099108A9DFF8D40660
:1018500090F8400002F038FE8DF808009DF908006D
:1018600040B200280BD49DF808008DF80A00012230
:101870000DF10A010A2003F03BFFFFF798FDB4E5E4
:101880000A2003F0D0FD012877D10A21002003F0BF
:1018900098FD0821002206AF380004F06DF80821F9
:1018A00000220AAF380004F067F80821002213AFC5
:1018B000380004F061F83000C0B2205C0690761C5D
:1018C00006983100C9B2615C50EA01200690761C8E
:1018D00006983100C9B2615C50EA01400690761C5E
:1018E00006983100C9B2615C50EA01600690761C2E
:1018F0003000C0B2205CADF81C00761CBDF91C00A5
:101900004FF47A7110FB01F00012ADF81C00DDE914
:101910000601CDE90A010A99DFF8080C41180A917D
:1019200019A802F05BF9DDE91901CDE913015D4F5A
:1019300017F54E72D2E9000100910300DDE90A01BA
:101940000A00010019A802F008F9DDE91901009167
:101950000300DDE913010A00010019A802F0DEF816
:10196000DDE91901CDE90A01DDE90A0102F01AF900
:1019700002F0CAFE012087F8340436E50D2003F09A
:1019800052FD01280ED10D21002003F01AFD45481B
:1019900090F88014042905D090F88004052801D01F
:1019A00002F0AEFE21E503275FF0000A3000C0B26E
:1019B000215C761C3000C0B2205C51EA0021761C0C
:1019C0003000C0B2205C51EA0041761C64204143E3
:1019D00001913000C0B2205C10F00F008DF80F00B4
:1019E000761C01999DF80F0002F08BFE83468DF85E
:1019F0000AB001220DF10A01112003F079FEF4E48E
:101A00000E2003F010FD012820D10E21002003F04C
:101A1000D8FC00275FF0000A3000C0B2205C761CC2
:101A20003100C9B2615C50EA0120ADF80400761CB7
:101A30003000C0B214F800B0761CDFF8D80C026891
:101A40005946C9B2BDF8040002F05DFECDE45FF076
:101A5000000A3000C0B2275C761C3000C0B2205CA7
:101A600057EA0027761C3000C0B2205C57EA0047D6
:101A7000761C64204743380002F047FE012803D15A
:101A800001208DF80A0002E000208DF80A000122F2
:101A90000DF10A01132003F02BFEA6E4FFE71BB0B3
:101AA000BDE8F08F880800202DE9F84F88B00500C8
:101AB0000E0017009846129C5FF00309DFF864A43B
:101AC0009AF939008DF806009AF938008DF805006A
:101AD000DAF8280002909AF81001002801D10720B6
:101AE0009EE09AF8FF00002802D10020CAF83000DA
:101AF00000208DF804009DF8040010F0F0008DF82F
:101B000004009DF8040010F07F009AF8FE1050EADF
:101B1000C1108DF804009AF8FC00012806D19DF848
:101B2000040050F010008DF8040005E09DF804005A
:101B300010F0EF008DF804009AF83A00012805D162
:101B40009DF8040050F020008DF804001AF586700E
:101B50000068039001208DF810009DF80400C0B2C9
:101B6000C0098DF81100DAF828000590A048B0F8F7
:101B7000F413ADF81810B0F8F603ADF81A009AF89F
:101B800039008DF81C009AF838008DF81D009AF87D
:101B900074008DF81E009AF840008DF81F0002AB0B
:101BA0001AF138021AF1390103A803F027FF9DF852
:101BB000041060F386118DF80410404680B2009046
:101BC0003B003200D2B201A9280000F01EFB834680
:101BD0005846C0B2002803D05846C0B20A2804D1E3
:101BE0002000C0B200F006F983465846C0B2002873
:101BF00008D09DF806008AF839009DF805008AF89B
:101C000038000BE000208AF83A000298CAF8280051
:101C100003F0D5FD002801D0132001E05846C0B2E2
:101C200009B0BDE8F08F2DE9F04104000025002641
:101C300001272000C0B2FF2825D10020FFF7E4FAD9
:101C4000DFF8AC81002088F8040118F10200C8F820
:101C50000801FF2088F80C0116F01F0688F80D61B6
:101C600002F085FF0100082218F5877003F0F0FCF0
:101C700002F06CFF0822010018F58B7003F0E8FCFD
:101C80000020070001E0022005003800C0B200F08B
:101C9000B1F8C0B2BDE8F08180B502F020FD0128A6
:101CA00001D10E2011E09F4890F8FC0001280BD1D3
:101CB00002F017FD012801D10F2006E002F013FD0C
:101CC000012801D10F2000E0002002BD38B5314CC1
:101CD00094F9610003005BB294F9392094F875100F
:101CE00094F8400002F0A4FC414D15F56E7100918E
:101CF000636C94F84820010049B294F8400002F067
:101D00008DFA15F573700090636C94F8482094F97F
:101D10006800010049B294F8400002F07FFA216D9A
:101D2000D5F8C4034118C5F8B013616DD5F8D803D0
:101D30004118C5F8B41394F8100100280BD1A16D17
:101D4000D5F8C4034118C5F8B013E16DD5F8D80330
:101D50004118C5F8B41331BD1CB5002000900D4CDE
:101D600094F81001002813D0684603F049FD0028BC
:101D700001D013200DE0009AD2B294F939101C481A
:101D800090F83702FFF7F2FA002801D1082000E0AE
:101D9000002016BD5801002010B5154C94F8040120
:101DA000002802D004280FD01DE014F5847003F041
:101DB00089FE01000800C0B2002801D0112015E002
:101DC00094F80C01208010E014F5847003F0B0FE4C
:101DD00001000800C0B2002801D0112006E094F8EC
:101DE0000C01208001E0032000E0002010BD000075
:101DF000880800202DE9F04389B004000325FFF78F
:101E00004BFF07003800C0B2002802D03800C0B233
:101E100084E000F0D1F8FFF7BFFF06003000C0B249
:101E2000002802D03000C0B278E03E4F386B0190FD
:101E300097F839008DF80C0097F800018DF80E0026
:101E400007A801F0E5FE17F58270D0E90089CDF80A
:101E500000904346DDE907010A00010007A801F0F0
:101E60007CFEDDE90701CDE90401F86A029000205B
:101E70008DF8180001208DF80D00DFF8CC59288866
:101E8000ADF81A0097F81001002805D101208DF84F
:101E9000180000208DF80D0017F13000009005F2B9
:101EA000844305F2154201A997F8400002F05AFB5D
:101EB00007003800C0B2002820D03800C0B20B287C
:101EC00019D12000C0B2012815D1D5F8840400280A
:101ED0000FD0D5F8400350F02000C5F8400315F5A9
:101EE0005A76D5F88414300001F06BFD300001F013
:101EF00002FD002012E03800C0B20FE0FFF7E6FE5E
:101F0000FFF72AFF06003000C0B2002802D03000E0
:101F1000C0B203E095F8150400F049FA09B0BDE835
:101F2000F083000058010020F8B504000D001326CE
:101F300000200090DFF8107997F80401002802D003
:101F400004280FD034E017F5847003F020F8010066
:101F50000800C0B2002801D011202CE097F80C0135
:101F6000388027E0684602F0A1FF002801D0122047
:101F700021E097F81004002803D197F812040228F2
:101F800002DB0098401E009017F584732A00D2B23D
:101F90002100C9B2009803F08FF801000800C0B218
:101FA000002801D0112006E097F80C01388001E0EC
:101FB000032000E00020F2BDDFF85C1C086B002865
:101FC0000AD1DFF88428D2F81834B1F8020143436B
:101FD000D2F818041B1A0B63704732B504001500C1
:101FE0002000C0B2002803D02000C0B201280FD1C9
:101FF0002800C0B2012809D19DF80000C0F34010AC
:10200000C0B2002804D003F0E8FB01E003F0E5FBD8
:1020100031BD30B58DB0DFF8004C002084F81001E0
:102020000020A062DFF8C85C002085F810040120C1
:1020300085F81104012085F81204002085F81304A6
:10204000002084F8FF000120A4F8020194F8C400E5
:1020500084F8380094F8C50084F8390094F8A10099
:1020600084F8610014F1A400D0E9002314F16400A5
:10207000C0E9002314F1AC00D0E9002314F16C0096
:10208000C0E9002394F8B40084F8740094F8B50013
:1020900084F87500D4F8B800A067D4F8BC00E067F5
:1020A000002085F81404002084F83A0001208DF8FF
:1020B000100014F5EC70029014F51F70039002A943
:1020C00094F8400002F010F8002085F8150495F807
:1020D000150485F8CC03606EC5F8D00394F875003C
:1020E00085F8DC0394F8800085F8DD03002085F88E
:1020F000DE03012085F8DF0315F5787015F573719F
:10210000142203F0F5FB012085F8F203022085F884
:10211000F3030020009000200190D5F84803002828
:1021200007D0D5F8480340680090D5F84803006907
:10213000019015F58C60059005F21C40069005F2A3
:102140004C40079005F28140089014F1CC000990B2
:1021500014F140000A9014F144000B9014F1D000E7
:102160000C9014F5E362694605A802F0ADFA0DB0D3
:1021700030BD2DE9F04104000D00200001F0F6FB18
:10218000DFF8706B306B8047DFF88C7ADFF8608B9C
:1021900018F58462290097F8400002F079F80128C8
:1021A00005D1F86C716B8847E87C88F88004BDE83D
:1021B000F0817CB5DFF8904614F57875DFF8586A41
:1021C0000095736C96F8482096F97000010049B2AA
:1021D00096F8400002F022F8022084F8F303012070
:1021E00084F8F20314F58462290096F8400002F0A6
:1021F0004FF8012808D10020DFF8F81A496B88470A
:1022000094F8F30384F8800473BD2DE9F74F0600BA
:102210000F001C000C9DDFF830960020A9F800008C
:10222000002089F8140400200190002000905FF045
:102230000008002C01D10020050019F59C7B2A0024
:1022400092B22100584603F003FA89F837523078E9
:1022500089F802003078C0B24009C0B2022808D024
:10226000042803D0072800F089809BE0012089F82A
:102270001404042089F8040119F10200C9F80801C6
:10228000FF2089F80C01307889F80D019DF80800CD
:1022900089F82801DFF880A9DAF8CC00C9F8100124
:1022A000387889F8140199F8370289F83001C9F8AB
:1022B0002CB101A802F0FAFD002801D0122074E030
:1022C0000198A9F81601002089F83D04002089F83A
:1022D0003C040198C9F84404684603F091FA0028C8
:1022E00001D0132061E00098002846D09AF9390007
:1022F000FFF721F8804699F83702002815D000989A
:10230000102812D219F58C7269460F2003F081FA59
:10231000002801D0132048E00098397860F30301C9
:102320003970387889F8140127E099F837020028C5
:102330000FD0009810280CD319F5916269464046D9
:10234000C0B203F066FA002801D013202DE00A2065
:102350002BE019F5916A524669464046C0B203F037
:1023600058FA002801D013201FE0002089F8280126
:10237000C9F82CA1009889F8300115E0002C10D084
:1023800099F8370200280CD099F8372292B2210030
:1023900019F1030003F05CF999F83702401CA9F821
:1023A000000001E0022000E00020BDE8FE8FF0B553
:1023B00085B00400032500208DF800008DF804404E
:1023C000DFF8546896F839008DF8050096F8380063
:1023D0008DF80600B06F0290F06F0390DFF868741C
:1023E0003888ADF8100017F583636A4601A996F89E
:1023F000400001F075FF012087F8390496F8390094
:1024000087F83A049DF8000087F83B042000C0B22A
:10241000C7F84804D7F81804C7F84004D7F81804D8
:10242000C7F8500402F061F9012808D1D7F8180460
:1024300002F06DF90100002901D010202DE096F87E
:10244000FC00012801D102F064F902F051F997F87B
:10245000151496F83900C0B2FFF766FD060030008B
:10246000C0B2002802D03000C0B216E0D7F8400356
:1024700050F00200C7F8400397F81404002804D174
:1024800097F81004401C87F810043988C9B2B81CAA
:10249000DFF86028926A9047002005B0F0BD38B59B
:1024A00084B00400DFF8485895F815048DF8000052
:1024B000DFF8640790F839108DF8011090F83810A3
:1024C0008DF80210816F0191C16F0291ADF80C403F
:1024D000694690F8400002F085F8D5F8400350F0C6
:1024E0000200C5F84003002005B030BD445F01087C
:1024F00070B504000D001600220092B2310049B2FE
:102500002800DFF8F037DB6B9847DFF8E407D0F8F6
:10251000401351F00201C0F84013002070BDDFF8F5
:10252000F8067047803DD5122DE9F04104000026E1
:10253000002C01D103207CE0C34DD5F840030128D5
:1025400001D0012075E02421200003F0A0F807004D
:10255000606A874205D128222100DFF8BC0603F01B
:1025600077F8142114F1280003F091F88046E06B0D
:10257000804506D1182214F12801DFF8E40903F0A0
:1025800067F8D42114F1400003F081F80600D4F874
:102590001401864219D1DFF88076D82214F1400167
:1025A00017F1400003F054F895F8150485F8E0039E
:1025B000F86EC5F8E40397F8750085F8F00301207C
:1025C00085F8F203022085F8F303BC2114F58C7022
:1025D00003F05DF80500D4F8D401854206D1C0228D
:1025E00014F58C71DFF87C0903F032F8A02114F5A2
:1025F000EC7003F04CF80600D4F87802864206D15D
:10260000A42214F5EC71DFF8600903F021F814211D
:1026100014F5E36003F03BF80500D4F82C0785427D
:1026200006D1182214F5E361DFF8400903F010F831
:102630000020BDE8F0810200002A01D0002901D16C
:1026400003202BE0107B10F00F00002806D092F83A
:102650002000002802D0002008701EE092F8280018
:10266000002802D10120087017E0107B10F00F0F36
:1026700006D192F82000002802D1022008700CE058
:10268000107B10F00F0F06D192F82000002802D026
:102690000320087001E0172000E000207047DFF8F9
:1026A0007815DFF84C2692F8100491F860309842C3
:1026B00001D3012013E092F88104C0F34000C0B2BE
:1026C00000280BD091F8FC00002801D1012006E081
:1026D00092F87F04002801D1012000E0002070471B
:1026E000DFF80C1691F8120491F81124904201D3EE
:1026F00001200DE091F88104C0F34000C0B2002831
:1027000005D091F83C04012801D1012000E000200F
:10271000704700008C2300204B4991F88104C0F3DE
:102720004000C0B2002807D091F87F0400280CD0E8
:1027300091F87F04012808D0DFF8DC0490F8FE202F
:10274000012A02D1826A521C8262002081F81004A0
:10275000002081F81404002081F81304D1F840030C
:1027600030F00200C1F840030120704710B50400AA
:10277000DFF87C15D1F8480300280AD0D1F84803C7
:10278000C068002805D0200080B2D1F84813C9687D
:10279000884710BD1CB5DFF8580590F8121490F862
:1027A0001124914221D290F81214491C80F812147D
:1027B00090F81204022190FBF1F201FB12000128B3
:1027C00013D122208DF80000DFF84C4494F87400F7
:1027D0008DF8020094F839008DF80100694694F8EC
:1027E000400001F031FC84F8390013BD1FB5DFF85B
:1027F000004594F83C04002815D102208DF808000B
:10280000DFF8140410F5EC71009110F51F710191BF
:10281000694690F8400001F067FC002084F8140439
:10282000002084F83C0494F8120484F83D041FBD91
:10283000DFF8BC0490F8810410F0050F01D00120EE
:1028400000E0002070470000880800202DE9F04FCC
:1028500089B004000D009246002C01D0002D01D15A
:102860000320CFE12068002808D06068002805D048
:10287000A068002802D0E068002801D10320C1E14F
:102880005046C0B201F0D6FB002801D10920B9E1C1
:10289000200002F05AFDE04E4FF4E66200213000C5
:1028A00002F0EEFEDFF848744FF4A1620021380018
:1028B00002F0E6FE012087F81204012087F81104D7
:1028C00086F840A0002086F8FC00002086F88000F2
:1028D000DFF8F80BC6F80C010F208DF8080002A9EC
:1028E00096F8400001F0B0FB01900198002801D05B
:1028F000012000E0002086F800010A208DF8080081
:1029000002A996F8400001F09FFB0190019886F81B
:10291000C40006208DF8080002A996F8400001F0D6
:1029200093FB0190019886F8C50010208DF80800EF
:1029300002A996F8400001F087FB01900198C6F8C3
:102940008C0011208DF8080002A996F8400001F0D3
:102950007BFB01900198C6F8900012208DF80800CA
:1029600002A996F8400001F06FFB01900198C6F8AB
:10297000940013208DF8080002A996F8400001F099
:1029800063FB01900198C6F8980014208DF80800A8
:1029900002A996F8400001F057FB01900198C6F893
:1029A0009C0017208DF8080002A996F8400001F05D
:1029B0004BFB0190019886F8A10018208DF80800C3
:1029C00002A996F8400001F03FFB8046C6F8A480BB
:1029D000C6F8AC8019208DF8080002A996F84000CE
:1029E00001F032FB814686F8A89086F8B0901E2050
:1029F0008DF8080002A996F8400001F025FB01902F
:102A0000019886F8B4001F208DF8080002A996F8F6
:102A1000400001F019FB0190019886F8B5002020D4
:102A20008DF8080002A996F8400001F00DFB019016
:102A30000198C6F8B80021208DF8080002A996F880
:102A4000400001F001FB01900198C6F8BC000B208A
:102A50008DF8080002A996F8400001F0F5FA0190FF
:102A60000198A7F8F4030C208DF8080002A996F845
:102A7000400001F0E9FA01900198A7F8F60301205F
:102A800086F8A0000A20C6F88400062086F8880090
:102A9000D6F88400706496F8880086F84800D6F866
:102AA0008C00F064D6F890003065D6F8940070651C
:102AB000D6F89800B065D6F89C00F06596F8A000AE
:102AC00086F8600000208DF8180016F5EC70049070
:102AD00016F51F70059004A996F8400001F004FB5C
:102AE000C7F84853FFF795FA012086F8FD00C7F8AC
:102AF0004443002087F881040120C7F840030020E8
:102B0000F0620020306300200090DFF8C43900221A
:102B10005FF0FF3117F55A7000F0D4FE00200090EE
:102B2000DFF8B03900225FF0FF3117F5607000F078
:102B3000C9FE00200090DFF8A03900225FF0FF31CD
:102B400017F5667000F0BEFE00200090DFF88C39AB
:102B500000225FF0FF3117F57E7000F0B3FE07A88A
:102B600001F056F8DDE9070116F58272C2E90001AD
:102B7000DFF86C09C7F84C03DFF86809C7F854039D
:102B8000DFF86409C7F85C03DFF86009C7F8500391
:102B9000DFF85C09C7F85803DFF858B117F5537030
:102BA000DBF800108847A96816F58C7001F08BFEE1
:102BB000002801D0112025E0300002F055F900284E
:102BC00001D011201EE002F087FD002801D0132063
:102BD00018E016F1D00002F0ACF9002801D0112065
:102BE00010E0DBF81400804702F016FD96F8FD00B7
:102BF000DBF858108847DBF82C0080470120FEF7EF
:102C000012F8002009B0BDE8F08F00203849C1F863
:102C100040030020704700005801002038B588B0FC
:102C200005000C00DFF8CC08816A029190F9C5100C
:102C30008DF8001090F9C4108DF801100021019159
:102C4000002C01D1032050E010F586710968039132
:102C500000218DF8101090F8FE108DF81110816A87
:102C600005912349B1F8F423ADF81820B1F8F61313
:102C7000ADF81A1090F839108DF81C1090F8381033
:102C80008DF81D1090F874108DF81E1090F840000B
:102C90008DF81F0002AB0DF10102694603A802F096
:102CA000ADFE9DF90000FEF746FB607001A802F042
:102CB000A7FD002801D0132017E00198102811D299
:102CC0006078019988420DD361780198091A2170C2
:102CD0006078019951FA85F1884201D3002004E01F
:102CE000082002E000202070082009B030BD00005C
:102CF00088080020245701087CB504000026002C19
:102D000001D103202BE12078002854D0012858D08D
:102D100002285CD003285ED0042860D0052864D047
:102D2000062868D00F286CD0102870D0112874D0D5
:102D3000122800F07F80132800F08380142800F010
:102D40008780152800F08B80162800F09C801728BB
:102D500000F08C80182800F0A380192800F0A680CD
:102D60001A2800F0A8801B2800F0AA801C2800F078
:102D7000AC801D2800F0AE801E2800F0B0801F2817
:102D800000F0B380202800F0BC80212800F0B38040
:102D9000222800F0BC80232800F0BE80242800F008
:102DA000C180252800F0C780262800F0C080282890
:102DB00000F0C780CDE0DFF83C0790F8FC00207100
:102DC000CBE0DFF8300790F810012071C5E001F08A
:102DD000BDFE6060C1E001F0CAFE6060BDE0DFF8EA
:102DE000140790F8FE002071B7E0DFF80807D0F86C
:102DF000C8006060B1E0DFF8FC06D0F8CC0060608D
:102E0000ABE0DFF8F00690F8FD002071A5E0DFF8F8
:102E1000E40690F8800020719FE01D208DF80000EE
:102E20006946DFF8D00690F8400001F00DF9050082
:102E3000656092E0DFF89C08D0E90023C4E9012333
:102E40008BE0DFF89408D0E90023C4E9012384E093
:102E5000DFF88808D0E90023C4E901237DE0DFF82A
:102E60008008D0E90023C4E9012376E01B208DF817
:102E700000006946DFF87C0690F8400001F0E4F8B5
:102E80000500656069E01A208DF800006946DFF8EA
:102E9000640690F8400001F0D7F8050065605CE03A
:102EA000DFF8500690F86000207156E0DFF8440625
:102EB000C06C606051E0DFF83C06006D60604CE083
:102EC000DFF83006406D606047E0DFF82806806D6F
:102ED000606042E0DFF81C06C06D60603DE0DFF836
:102EE000140690F8C500207137E0DFF8080690F866
:102EF0003900207131E0DFF8FC0590F8C400207142
:102F00002BE0DFF8F00590F83800207125E0DFF8BD
:102F1000E405406C606020E0DFF8D80590F84800D8
:102F200020711AE0DFF8CC05C06F606015E0FFF794
:102F3000F6FA606011E0DFF8BC05D0F8BC00606014
:102F40000BE0DFF860090068606001F0B5FBA0608D
:102F500003E0200001F0D0FB06003000C0B276BDD7
:102F60008001002070020020300300207008002043
:102F70007FB504000025002C01D10320A3E2DFF877
:102F8000280990F84003800701D501209BE22078B2
:102F9000002870D0012873D002287DD0032800F0CB
:102FA0008380042800F08880052800F08B800628A4
:102FB00000F08E80072800F09180082800F09C80A7
:102FC000092800F0A7800A2800F0B2800B2800F042
:102FD000BD800C2800F0C8800D2800F0D3800E289A
:102FE00000F0DE800F2800F0E980102800F0F48067
:102FF000122800F0F780132800F01D81142800F03B
:103000003681152800F05D81162800F08781172889
:1030100000F07381182800F09281192800F09E8139
:103020001A2800F0A0811B2800F0A2811C2800F0C3
:10303000A4811D2800F0A6811E2800F0A8811F2869
:1030400000F0BB81202800F0E881212800F0CF812A
:10305000222800F0F881232800F0FE81242800F0C7
:103060000582252800F00782262800F00A822728FA
:1030700000F0128221E22079FEF7C6F8050020E276
:103080002079022805D02079DFF8681481F8100132
:1030900001E00320050014E2606801F04EFD002805
:1030A00001D0032005000CE2606801F052FD002809
:1030B00001D00320050004E22079DFF8381481F8FC
:1030C000FE00FEE16068DFF82C14C1F8C800F8E1EA
:1030D0006068DFF82014C1F8CC00F2E160680028D5
:1030E00007D06168002001F038FF002803D01120CC
:1030F000E9E103200500E4E16068002807D0616889
:10310000012001F02AFF002803D01120DBE1032079
:103110000500D6E16068002807D06168022001F050
:103120001CFF002803D01120CDE103200500C8E1D9
:103130006068002807D06168032001F00EFF0028B6
:1031400003D01120BFE103200500BAE16068002828
:1031500007D061687F2001F000FF002803D0112014
:10316000B1E103200500ACE16068002807D0616888
:10317000802001F0F2FE002803D01120A3E10320FB
:1031800005009EE16068002807D06168812001F099
:10319000E4FE002803D0112095E10320050090E112
:1031A0006068002807D06168822001F0D6FE002800
:1031B00003D0112087E10320050082E1DFF834030A
:1031C000217980F8FD10DFF8E46690F8FD00B16D1C
:1031D0008847F06A804774E12079DFF8181381F896
:1031E00080006EE194F908008DF80000DFF80463B8
:1031F00096F875008DF801000722694696F84000A0
:1032000000F098FF012802D00320050012E060685A
:1032100000900022694696F8400000F08BFF0128DC
:1032200002D00320050005E0D4E9010116F1640293
:10323000C2E9000145E194F908008DF80000DFF8CB
:10324000B46296F875008DF801000722694696F879
:10325000400000F06FFF012806D1D4E9010116F10A
:10326000A402C2E9000101E00320050029E194F96C
:1032700008008DF80000DFF87C6296F875008DF884
:1032800001000722694696F8400000F053FF01282C
:1032900014D1D4E9010116F16C02C2E9000196F8DB
:1032A000FC0002280CD196F81001002808D0DFF8A5
:1032B000FC05C06A8047FEF77CFF01E003200500A3
:1032C000FFE094F908008DF80000DFF8286296F816
:1032D00075008DF801000722694696F8400000F05D
:1032E00029FF012806D1D4E9010116F1AC02C2E997
:1032F000000101E003200500E3E060680190012087
:103300008DF8080001A9DFF8EC0190F8400000F00A
:103310005FFF002801D103200500D2E06068019022
:1033200000208DF8080001A9DFF8C80190F84000DE
:1033300000F04EFF002801D103200500C1E02079F4
:10334000002808D02079102805DA2079DFF8A411A8
:1033500081F8600001E003200500B2E06068DFF85A
:103360009411C864ADE06068DFF888110865A8E0D2
:103370006068DFF880114865A3E06068DFF87411C9
:1033800088659EE06068DFF86C11C86599E094F983
:1033900004008DF80000DFF85C610622694696F8AB
:1033A000400000F0C7FE012804D19DF8000086F817
:1033B000C50001E00320050083E094F904008DF8C6
:1033C0000000DFF8306196F874008DF802000522E5
:1033D000694696F8400000F0ADFE012804D19DF842
:1033E000000086F8390001E00320050069E094F947
:1033F00004008DF80000DFF8FC600A22694696F8A8
:10340000400000F097FE012804D19DF8000086F8E6
:10341000C40001E00320050053E094F904008DF896
:103420000000DFF8D0600922694696F8400000F0FD
:1034300081FE012804D19DF8000086F8380001E0E3
:10344000032005003DE0DFF8AC006168C0F884109F
:10345000D0F88410416434E0DFF89800217980F8D6
:10346000881090F8881080F848102AE06068DFF82B
:103470008410C86725E06068DFF87810C1F8BC00E8
:103480001FE06068002804D06068FFF74DF8050071
:1034900001E00320050014E0A07902280ADA606840
:1034A000DFF800140860606801F0FAFC002803D01F
:1034B000112008E00320050003E0200001F01EF9C0
:1034C00005002800C0B204B070BD00000003000178
:1034D00061100008B3100008F91000084511000839
:1034E000390100089101000831020008F5010008C7
:1034F0005F02000858010020FEB5040002250221E9
:1035000000226E46300002F037FA002C01D1032071
:10351000DFE0FDF77BFB012801D10120D9E001F0BC
:10352000B9FF012801D10120D3E001F0AFFF00284D
:1035300005D114220021DFF8780302F0A1F8DFF8AA
:103540006863012086F84D0496F8810450F0040069
:1035500086F8810420788DF8040001208DF805009C
:1035600000208DF80700207801280ED0042838D0DC
:10357000052842D0062845D00A284CD00C287BD0FC
:103580000D2854D00E286BD089E096F840038006B1
:1035900001D501209DE0FEF73CFDDFF81873002205
:1035A00094F90400010049B297F8400000F0B2FF1E
:1035B00087F8390007208DF80500FF20FEF733FB60
:1035C00005002800C0B200280AD0012294F90400A6
:1035D000010049B297F8400000F09CFF87F83900DD
:1035E0005DE00020050000226946022002F080F81C
:1035F000002801D01320050051E0A088FEF74FFFFE
:1036000005004CE0207B0200D2B2A168A088FEF742
:103610006FFF050043E000200500002269460D20F1
:1036200002F066F8002801D01320050037E0A14819
:1036300090F8FC00002812D12779207910F00700BB
:1036400001F055F88DF80070002005000122694650
:10365000102002F04DF8002801D0132005001EE0D4
:103660000020050000226946122002F041F80028DF
:1036700001D01320050012E001208DF8070001F0B1
:1036800027F8002808D1002001F01FF8002001F0E1
:1036900021F80020050001E001200500FFE7D6F831
:1036A000840420612800C0B200280DD001F0EEFE95
:1036B00000280CD1002086F8140496F8810410F03C
:1036C000FB0086F8810402E001A801F052FE280008
:1036D000C0B2FEBDBC010020FC010020C4010020DE
:1036E000040200202DE9F24F86B0040002250026D6
:1036F00000275FF0000B5FF00008002C01D10320D1
:10370000BDE0FDF783FA012801D10120B7E00020D8
:103710008DF80400DFF890911422002119F58760DC
:1037200001F0AEFF012089F83904012089F8120464
:103730002078002804D001281AD0032835D048E08A
:1037400001208046012089F811049DF8040010F042
:103750001F0050F040008DF8040020790600A0689A
:103760000700A089ADF8060094F90E00834630E00A
:1037700001208046E07B082801DAE07B00E0082099
:1037800089F811049DF8040010F01F0050F080002B
:103790008DF8040020790600A0680700A089ADF824
:1037A000060094F90E00834613E0012080460120B4
:1037B00089F811049DF8040050F0E0008DF8040031
:1037C000606807002089ADF8060094F90A00834676
:1037D000FFE702208DF81000DFF8D8A09AF87400F7
:1037E0008DF8120004A99AF8400000F02DFC039017
:1037F0000398594640B249B2884201DBDDF80CB06B
:103800004046C0B2002835D09AF8FE00002814D1F6
:103810008DF808B09AF874008DF80A00052202A904
:103820009AF8400000F086FC012804D19DF80800B9
:103830008AF8390001E0032021E09DF8180000908B
:10384000BDF806303A003100C9B201A8FEF72CF9E4
:1038500005002800C0B2002809D1207889F8380472
:1038600099F8810450F0010089F8810402E00020F9
:1038700089F81404D9F8840420612800C0B207B084
:10388000BDE8F08F38B504008DF80040094D0F22D7
:10389000694695F8400000F04DFC012801D185F8FB
:1038A000004131BD6402002088080020245701082F
:1038B000D40C0020580100209649974A0020086047
:1038C00013681847F8B5040015461E4611D030009D
:1038D0000FD0069F00202060084600F044F860608A
:1038E000E66000202761E57220726072A07260615C
:1038F000F2BD0120F2BD2DE9F0410446002574B36C
:1039000000F0CAF8002804BF607A002827D1EFF33E
:10391000108872B6804F6668386A8047B04238BFF8
:1039200030462060012060722572A572794E3068A1
:1039300018B938698047204609E0B869804721688E
:1039400040182060326813689842204602D200F086
:10395000D7F801E000F0C1F888F3108800E00125F5
:103960002846BDE8F0816C494A6A1047F8B5002442
:1039700020B3EFF3108572B6664E32680127134606
:1039800011468772BAB1824244720BD150691472E7
:1039900018B1306000F08BF80DE05F48C1688847CF
:1039A000346008E0814204D00B4649690029F9D10E
:1039B00001E04869586185F3108800E00124204641
:1039C000F2BD38B50446084600250CB901250DE0C6
:1039D000FFF7C9FF6060204600F05EF830B1204676
:1039E000FFF7C4FF2046FFF786FF0546284632BD95
:1039F000F8B5EFF3108572B6474E464F70698047B1
:103A0000316904468847041B386860B301688C42FA
:103A100034BF091B0021016040690028F6D13968D4
:103A2000086828B1B069804739680A68824214D2B0
:103A30003C68606938600021217261722069E16828
:103A40008847E07A012801BFA07A00282046FFF7C6
:103A500052FF38680028E2D105E021B1087A10B998
:103A6000084600F024F885F31088F1BD10B52A4C03
:103A7000E0698047A16ABDE81040084770B5264D4F
:103A80000446E86980470646696A20468847AA6A6C
:103A9000301ABDE8704010471E49096800E04969C6
:103AA00019B18142FBD10120704700207047F8B561
:103AB000194D0446286A8047012121720646AF69E4
:103AC000B84721683018814202D2B84736182660BC
:103AD0002068A968BDE8F440084710B50D490A6898
:103AE000536901E01A465B69516931B11C6801688C
:103AF0008C42F7D35061436110BD5061416110BDEC
:103B0000044A116809B100230B7241611060CEE7CD
:103B10000000000038240020305C01080EB41CB402
:103B20000FF2A411039CD1E90023CDE900230599EC
:103B3000BDF810200C19BDF8181000948A1813B2A3
:103B4000B3F57A7FADF8042006DB009B5B1CA2F581
:103B50007A720093ADF804201CE00EB41CB40FF28E
:103B60007011039CD1E90023CDE900230599BDF82C
:103B70001820641ABDF8101000948A1A11B2002996
:103B8000ADF8042006D5009B5B1E02F57A72009307
:103B9000ADF80420DDE90023C0E9002313BC03B025
:103BA0007047000078B504464BA0464ED0E900238C
:103BB00085B00D46CDE90123316902A8884700F0A0
:103BC00050F803A8FFF7C9FF039831688847BDF98B
:103BD0001000B168884706B070BD0000F0B504461B
:103BE0003FA0384D2969D0E9002385B004A8CDE96C
:103BF000032388470390E8688047ADF808006868A9
:103C000080470190DDE90301DDE9016751E0000033
:103C10001CB5044634A02B49D0E90023CDE900238C
:103C200001A80A6990470090DDE90001C4E900019C
:103C300013BD7FB5234E0446F0680D468047ADF8AE
:103C400008007068804700F00CF801A8FFF785FFB6
:103C50000198BDF908104FF47A7202FB001004B00D
:103C600070BD01902A46DDE901010091034621461D
:103C70007047F0B5044685B04FF47A70B1FBF0F0B0
:103C8000039002464FF47A7000FB1211ADF8101049
:103C90000822002101A801F0B7FF0A4DE86880471B
:103CA000ADF80800686880470190DDE90101DDE9B1
:103CB00003670091034631463A462046FFF72EFF40
:103CC00005B0F0BDC05E010800000000000000006B
:103CD00000000000000000000000000000000000E4
:103CE00000000000000000000000000000000000D4
:103CF00080B518220021DFF82C0301F09AFF4FF461
:103D000080620021DFF8200301F093FF0FF28D1095
:103D1000DFF818130968884702BD2DE9F84785B018
:103D200005000E0014001F000020ADF802005FF037
:103D3000000ADFF8F022107AA84202D27FF00400D5
:103D400055E0D0683040B04202D07FF005004EE030
:103D50005068002806D0002C04D00DF1020101A803
:103D6000526890470DF1380843463A004FF400710D
:103D7000DFF8BC0201F064FF814600F036F96946C5
:103D8000BDF8020010EB090080B200F0D8F810F185
:103D9000010F28D05FF0000A5046BDF8021080B233
:103DA000884210D201A8514689B2405CDFF87812EF
:103DB000BDF800208854BDF80000401CADF800009C
:103DC0001AF1010AE8E743463A004FF40071DFF8C0
:103DD0005802BDF800C0604401F032FF00F00FF956
:103DE00000F00EF803E000F00AF97FF0020006B0E0
:103DF000BDE8F0878B49486070478A490872704770
:103E0000F8B500240025EFF3108672B600F001F932
:103E100000283CD100F0E9F8824F388A798A88423C
:103E200030D0B87801280ED13988388A091AB98279
:103E30000220B87000203880B88A002803D1002002
:103E4000B87000203882B87800280CD1388A798A76
:103E5000884204D2798A388A091AB98203E0388AFA
:103E6000D0F58060B8827048398A0844050086F32E
:103E7000108802F03AF8B98A28006C4AD268904754
:103E8000040006E000F0BBF886F3108801E086F33A
:103E90001088200040B2F2BD0000000070B50400A0
:103EA0000025EFF3108672B65E498878022804D1A7
:103EB000002088700020088205E0088A8A8A10188D
:103EC0008005800D0882088A4A8A904230D0C88ACC
:103ED00001282DD1887801280ED10A88088A121A63
:103EE0008A820220887000200880888A002803D1F6
:103EF0000020887000200882887800280CD1088A69
:103F00004A8A904204D24A8A088A121A8A8203E0B4
:103F1000088AD0F58060888243480A8A10440500E8
:103F200086F31088898A2800404AD268904705E0C5
:103F300086F3108801F0DBFF00F061F870BDF0B48B
:103F400002005FF0FF30EFF3108372B6354C658AE4
:103F5000268AB54216D1658AD5F5806516002F00F0
:103F6000B6B2BFB2BE422BD31600278AB6B2BE424B
:103F700026D20126A670668A2680268A350000266B
:103F800066821DE0258A668AB54216D2658AD5F515
:103F9000806516002F00B6B2BFB2BE4210D3160025
:103FA000278AB6B2BE420BD20126A670668A268048
:103FB000268A35000026668202E0268A658A751BFD
:103FC00016002F00B6B2BFB2BE4209D2668A0E807A
:103FD000668A16FA82F6B605B60D668200242000BF
:103FE00083F3108800B2F0BC7047EFF3108072B614
:103FF0000C49CA8A521CCA8280F310887047EFF3BA
:10400000108072B60749CA8A521ECA8280F310888D
:1040100070470448C08A002801D1002000E0012038
:104020007047000008230020900D0020545F010815
:1040300090110020052884BFC01F022801D801204C
:104040007047002070470000C0B2092821D8DFE87F
:1040500000F005080B0E111420171A1D084601F078
:1040600091BF084602F0FABC084603F063BA08465E
:1040700003F078BE084604F0B9BB084605F026B93F
:10408000084605F075BE084606F0DCBB084607F09A
:1040900021B90FF23060006870470000092809D884
:1040A000DFE800F005090C0F121508181B1E084662
:1040B00002F023B87047084602F094BD084603F0AA
:1040C000D9BA084603F0EBBE084604F028BC0846FF
:1040D00005F095B9084605F0E1BE084606F04FBC6C
:1040E000084607F093B90000092821D8DFE800F05E
:1040F00005080B0E111420171A1D084602F015B8FA
:10410000084602F087BD084603F0CCBA084603F023
:10411000DEBE084604F01BBC084605F088B9084618
:1041200005F0D4BE084606F042BC084607F086B942
:10413000704700000B460928114621D8DFE800F03F
:1041400005080B0E111420171A1D184602F034B87A
:10415000184602F0DCBD184603F0ECBA184603F02E
:1041600008BF184604F045BC184605F0B2B9184619
:1041700005F0FEBE184606F094BC184607F0A5B937
:1041800000207047092821D8DFE800F005080B0E51
:10419000111420171A1D084602F03EB8084602F016
:1041A000E2BD084603F0E3BA084603F009BF08463B
:1041B00004F046BC084605F0B7B9084605F0FCBE59
:1041C000084606F08EBC084607F0A6B97047000006
:1041D000092821D8DFE800F005080B0E111420177C
:1041E0001A1D084602F057B8084602F0EBBD084613
:1041F00003F0DCBA084603F022BF084604F05FBCB7
:10420000084605F0D0B9084605F015BF084606F087
:1042100097BC084607F0BFB90020704710B500F002
:10422000DBF933D8DFE800F0050A0F14191E32233A
:10423000282D2046BDE8104002F045B82046BDE8D4
:10424000104002F0F0BD2046BDE8104003F0C6BAB1
:104250002046BDE8104003F00ABF2046BDE81040EC
:1042600004F045BC2046BDE8104005F0B4B9204636
:10427000BDE8104005F0F7BE2046BDE8104006F04E
:104280009BBC2046BDE8104007F09DB910BD000062
:104290000B460928114621D8DFE800F005080B0E6F
:1042A000111420171A1D184602F03CB8184602F0E7
:1042B000E3BD184603F0BBBA184603F007BF184623
:1042C00004F044BC184605F0B5B9184605F0FABE2E
:1042D000184606F09ABC184607F0A4B900207047AB
:1042E00010B50C46092811463CD8DFE800F0050B54
:1042F00011171D233B292F352046BDE810401A46D3
:1043000002F080B82046BDE810401A4602F009BE0F
:104310002046BDE810401A4603F0DDBA2046BDE84D
:1043200010401A4603F042BF2046BDE810401A462E
:1043300004F07CBC2046BDE810401A4605F0EAB9FE
:104340002046BDE810401A4605F02CBF2046BDE8C7
:1043500010401A4606F0AEBC2046BDE810401A4692
:1043600007F0D0B9002010BD38B50C4611461A46EA
:10437000049B059D092833D8DFE800F0050A0F14D7
:10438000191E3223282D0095204602F0B9F832BDBF
:104390000095204602F021FE32BD0095204603F034
:1043A000F4FA32BD0095204603F07EFF32BD009541
:1043B000204604F0B9FC32BD0095204605F028FAED
:1043C00032BD0095204605F06BFF32BD00952046BA
:1043D00006F0D9FC32BD0095204607F011FA32BD37
:1043E000002032BD092821D8DFE800F005080B0EB7
:1043F000111420171A1D084602F02DB9084602F0C4
:10440000EFBE084603F075BB084603F0F9BF084647
:1044100004F036BD084605F0A6BA084605F0F3BF1D
:10442000084606F0B3BD084607F095BA002070476D
:10443000092821D8DFE800F005080B0E1114201719
:104440001A1D084602F022B9084602F0EDBE0846E1
:1044500003F06ABB084603F0EEBF084604F02BBD2C
:10446000084605F099BA084605F0ECBF084606F084
:10447000B7BD084607F08ABA00207047092821D83E
:10448000DFE800F005080B0E111420171A1D08466E
:1044900002F01EB9084602F0C8BE084603F046BB4B
:1044A000084603F0EABF084604F027BD084605F0B9
:1044B00095BA084605F0E8BF084606F093BD0846E1
:1044C00007F086BA00207047092821D8DFE800F0FD
:1044D00005080B0E111420171A1D084602F0FAB831
:1044E000084602F0A5BE084603F024BB084603F0C8
:1044F000C7BF084604F004BD084605F072BA084676
:1045000005F0C5BF084606F071BD084607F063BA5E
:10451000002070470B460928114621D8DFE800F03B
:1045200005080B0E111420171A1D184602F0EAB8E0
:10453000184602F081BE184603F0FDBA184603F093
:10454000B7BF184604F0F4BC184605F068BA184620
:1045500005F0B5BF184606F04ABD184607F053BA35
:104560000020704710B500F037F833D8DFE800F0CE
:10457000050A0F14191E3223282D2046BDE81040CD
:1045800002F0C2B82046BDE8104002F06ABE2046E4
:10459000BDE8104003F0D0BA2046BDE8104003F05B
:1045A00088BF2046BDE8104004F0C3BC2046BDE8EB
:1045B000104005F035BA2046BDE8104005F080BF38
:1045C0002046BDE8104006F027BD2046BDE810405B
:1045D00007F01ABA092010BD0C4611461A46029B74
:1045E00009287047092821D8DFE800F005080B0EDC
:1045F000111420171A1D084602F066B9084602F089
:10460000C9BE084603F000BB084604F032B80846AD
:1046100004F06FBD084605F0E8BA084606F030B869
:10462000084606F091BD084607F0CBBA7047000077
:1046300010B50C46092811463CD8DFE800F0050B00
:1046400011171D233B292F352046BDE810401A467F
:1046500002F072B92046BDE810401A4602F0BFBE13
:104660002046BDE810401A4603F00FBB2046BDE8C7
:1046700010401A4604F036B82046BDE810401A46ED
:1046800004F06EBD2046BDE810401A4605F0F8BAA9
:104690002046BDE810401A4606F02AB82046BDE87C
:1046A00010401A4606F09CBD2046BDE810401A4650
:1046B00007F0BEBAC8B210BD014870470000000044
:1046C000000300010000000070477047704770470A
:1046D00000207047704770477047002070470020E7
:1046E00070470020704700207047002070477047D7
:1046F00070477047022070470220704702207047C1
:1047000070470020704770477047002070470020B6
:1047100070477047704730B4002513E050F8042B01
:10472000D30744BFA9F101039A18091F042942F8CD
:10473000045BFAD213468C0744BF15809B1CC90743
:1047400048BF1D7050F8041B0029E7D130BC7047EA
:1047500018B591B0044610A900F0E3F8002869D11B
:10476000200008BF0FF2204328D0012C08BF0FF211
:10477000304323D0032C08BF0FF23C431ED0022C41
:1047800004D10FF24C43002200211AE0042C08BF90
:104790000FF2544312D07F2C08BF0FF264430DD0A8
:1047A000802C08BF0FF2704308D0812C08BF0FF295
:1047B000804303D0822C06D10FF28C4300220021CB
:1047C0000220FFF7AAFA1098DFF8AC33017C1098AA
:1047D0000F910022C17B10980E91817B10980D9152
:1047E000417B10980C91017B10980B91C17A109825
:1047F0000A91817A10980991417A10980891017A6A
:1048000010980791C17910980691817910980591B7
:10481000417910980491017910980391C17810980A
:104820000291817810980191417800910220002135
:10483000FFF773FA12B010BD70B5002200F081F8D6
:1048400005D0521CD3B20A2BF8D3032070BD73E0FD
:104850002DE9F841CBB006460D001ABF529C002C42
:10486000022090461F462BD005A807F025FA69467E
:104870003846FFF7E1FF070021D10098411C05A849
:1048800007F02BFA26B11022314605A807F02AFAC4
:104890004246294605A807F025FA05A901A807F010
:1048A0007EFA01A882789DF80710120442EA01629C
:1048B00041789DF8040042EA012202432260384612
:1048C0004CB0BDE8F08110B5B0B004466846AB49C5
:1048D000C02201F00DF80CB902201BE0A8480460CA
:1048E000C0226946204600F0B3FE0FF2743300F098
:1048F00013F80020FFF72CFF0120FFF729FF0FF22C
:10490000783300F009F80320FFF722FF0220FFF7B9
:104910001FFF002030B010BD002200210220FFF751
:10492000FCB970B5002200F00CF805D0521CD3B2CF
:104930000A2BF8D3032070BD03F11000086000209B
:1049400070BD8F4B1C68D5B205EB051563191E7C35
:1049500086427047F8B50246080084B008BF0220BE
:104960000CD00021864C236801EB01152B441E7CE2
:10497000964205D0491C0A29F5D3032005B0F0BDA5
:10498000802A15D16946002200230026002781E8ED
:10499000CC006B467F22102100F031F806462068DB
:1049A000284410226946113000F052FE3046E5E7F7
:1049B0000146102203F1110000F04AFE0020DDE75D
:1049C0001CB57F2B01DB032016BD049C0094FFF770
:1049D0003FFF16BD3EB5144608B902203EBD01AAF0
:1049E000009200250A46014601950020FFF730FF9E
:1049F000010003D101998C4218BF01203EBD2DE971
:104A0000F04104001D4614BF002D0220BEB00E462A
:104A1000174628D0C90806EB11721209B6EB02102E
:104A200018BF05201FD1F022002101A800F028FEA8
:104A300069463846FFF700FF5FEA000812D1009888
:104A400001AA1021401C07F0DAFA002707E001AAAA
:104A5000E919E01907F046FB1037FFB2103EB0B27B
:104A60000028F4D140463EB0BDE8F081F8B584B0EE
:104A7000144608B902201AE07F2A03D1042918BF7E
:104A8000032014D16D46002200230026002785E86C
:104A9000CC000A466B461021FFF7B1FF010006D19A
:104AA00069462046FFF756FF010008BF002005B009
:104AB000F0BDF8B51E001CBF079C002C01D0089D5E
:104AC0000DB90220F2BD069F222F01DB0520F2BDA9
:104AD0003A463146204600F0BBFD791E631C012298
:104AE00089B2701CFFF78BFF08B10720F2BDE07A96
:104AF000C009287014D1E019012310F8042D417861
:104B00008578C07842EA012242EA054242EA006220
:104B1000391F89B22046FFF75DFF10B10120F2BDB9
:104B20000420F2BD10B5040001D1022010BD1548CB
:104B3000416988472060002010BD80B508B9022077
:104B400002BD01460E48006808220CE00C480068CF
:104B5000704780B508B9022002BD014608480368C5
:104B6000082203F1080000F073FD002002BD044894
:104B7000016801F108007047285801082455010810
:104B800034240020245701082323232323232041F6
:104B900070704B65793A2020202020200000000012
:104BA000232323232323204E776B4B65793A202040
:104BB0002020202000000000232323232323204142
:104BC0007070534B65793A202020202000000000AF
:104BD000232323232323204E776B534B65793A20DD
:104BE0002020202000000000232323232323204D06
:104BF00043526F6F744B65793A202020000000000B
:104C0000232323232323204D434B454B65793A200F
:104C10002020202000000000232323232323204DD5
:104C2000434B65795F303A202020202000000000AF
:104C3000232323232323204D43417070534B657955
:104C40005F303A2000000000232323232323204D3C
:104C5000434E776B534B65795F303A20000000007C
:104C6000232323232323204F544141202323232381
:104C700023230D0A000000002323232323232041A4
:104C8000425020202323232323230D0A0000000069
:104C90002DE9F047050088B008BF0A2057D000244E
:104CA00004AFA446A046A146A24687E80017109884
:104CB000DDF844E0EC4600278CE880078DF805001D
:104CC0008DF80630180C8DF808001F0A1B0E4FEAED
:104CD0001E208DF809308DF80B008DF80770012625
:104CE0004FEA1E434FEA1E608DF800608DF80AE01F
:104CF0008DF80C308DF80D008846174603E010340F
:104D0000A8F11008E4B20FFA88FABAF1000F1DDD1D
:104D10008DF80F6004AB3A4610216846FFF76FFE2E
:104D2000761C88B904ABBAF1100FD4BF51461021DC
:104D30008842E4DA011913F800C06A5C8CEA0202C6
:104D40006A54401CC0B2EEE70F2000E0002008B01B
:104D5000BDE8F08778B5079909B90A2072BD069CAD
:104D6000059A49250D704B718A71130A8C72CB71AB
:104D70000026150C120E4A72C8734E708E70CE70DB
:104D80000E710D72220A230C240E4C738E73CA729C
:104D90000B73002072BD30B50022DFF80835D4B2A5
:104DA00013F82450854205D0521CD4B2022CF6DBF5
:104DB0000C2030BD03EB84000860002030BDF8B546
:104DC00084B06C46002500260027AC4684E8E0103D
:104DD000022802D0032820D023E001258DF80050BE
:104DE0008DF804208DF801108DF807300C0A090C9D
:104DF0008DF803101B0A160A120C8DF806208DF888
:104E0000083002468DF802408DF8056001216846A1
:104E1000FFF72CFE30B10F2004E002248DF8004093
:104E2000DEE70B2005B0F0BD09B90A207047DFF8B6
:104E300078241268401E032814D8DFE800F0020826
:104E40000C101069086011691162002070475069E8
:104E500008605169F8E7906908609169F4E7D069E2
:104E60000860F2E70520704710B508B9092010BDA9
:104E7000DFF8344420602822002100F001FC206883
:104E80000121C17081704170002202704FF0FF312A
:104E9000C2600161416181610162C161002010BD98
:104EA000DFF804140A6810600020704708B90A206F
:104EB0007047DFF8F4130A68D3685B1C03600020B6
:104EC00070477CB50E46002115461C4600910CB972
:104ED0000A2076BD6946FFF7A7FF010028D1009898
:104EE00010F1010F10D080B2281A002802DD009DB9
:104EF000451909E0009802D12060072076BD000C1A
:104F000005EB004505F58035DFF89C1325600A6840
:104F1000907860B9009800230021281A63EB010102
:104F2000994204DB01DCB04201D3082076BD0020A9
:104F300076BD30B508B90A2030BD0021DFF86823FE
:104F400013682C224A4303EB8104024404F11C053C
:104F5000491C1562F2DD002030BD1FB50446FFF785
:104F6000F9FC78B984B9DFF8400302689078002131
:104F700000F09CF930B9684600210022002300F0BF
:104F8000BFF908B10F2000E0002004B010BD1CB52F
:104F9000040001D10A2016BD0020019001A8FFF7EE
:104FA000C1FDC1480068019981808088E082204667
:104FB00000F088FD78B904F1180000900123216801
:104FC00013220020FFF7FCFC08B10F2016BD20467D
:104FD00000F078FD00B1112016BD2DE9F8418046A2
:104FE0000D46140014BF002D0A208DB061D0212180
:104FF00004A8AD4E07F0C8F9316800208DF80C0008
:1050000003A88F88029004A9019129462279009271
:105010003A4623684046FFF74CFD08B10F2048E0B0
:105020002279206804A900F013FB204600F03EFA24
:1050300008B110203DE0A579E079217A45EA002504
:10504000306845EA014581688D420DD085600021B8
:105050009DF80C0000F02AF901002AD1042000F08C
:105060003FF9010002D024E0032022E0617AA07A17
:1050700041EA0020E17A40EA01443B4622462946C3
:105080000320FFF79CFE010013D13B462246294630
:105090000220FFF794FE01000BD130689DF80C1040
:1050A000817000224FF0FF31C26081610161416176
:1050B00000200EB0BDE8F0812DE9F8411C46032226
:1050C000002C87B007464FD0DFF8DC81D8F800000D
:1050D000C1688F4238BF062043D394F8200000B93E
:1050E0000222B9420AD2002001970090A36894F8E6
:1050F0002810606AFFF7CCFD010032D1204600F095
:1051000017FD002832D120792568A168061F002DDF
:1051100018BF14F12C0027D0B0B240F20112904217
:10512000A8BF0E201DDA03A802900091019700236A
:1051300000220221B0B2FFF70DFE04F12C00009016
:105140000223B2B2294603A8FFF73AFC08B10F20A8
:1051500007E0204600F0ECFC40B9D8F80000C7603A
:10516000002008B0BDE8F0810A20FAE71120F8E736
:105170002DE9F04FCBB00746549C002C0D461E463F
:105180003DD08DF80C200022009269469DF80C005D
:10519000FFF74AFEC0B90098B04202D310F1010FE8
:1051A00012D1204600F0D6F980B904A93846FFF79D
:1051B000F2FD010073D104980595A16890F8018073
:1051C0008D4205D002206AE0062068E0102066E0EB
:1051D000DFF8D4B0207BDBF80010400900F00109B3
:1051E000887808B94FF0000904F128004168049854
:1051F000069190F802A020792568071F0DB90A20B2
:105200004DE0B8B240F201118842A8BF0E2046DA44
:105210004FF48872002107A800F032FA0599009136
:1052200007A80290019601234A465146B8B2FFF7FB
:1052300091FDBAB229460BA800F00AFA069A103777
:105240005346B9B207A8FFF7C5FB88B994F8200008
:1052500008B94FF00208012001960090059B94F8D0
:105260002810606A4246FFF713FD010004D016E0E3
:10527000012814D00F2012E09DF80C10DBF800007C
:10528000491E03290AD8DFE801F008060402C661B6
:1052900004E0866102E0466100E0066100204BB058
:1052A000BDE8F08F100100202024002038B584B024
:1052B00009B10B2012E069460022002300240025DA
:1052C00081E83C00012804BF20208DF80000042262
:1052D00000216846FFF7CAFB00B10F2005B030BDC2
:1052E0001FB5042818BF0B2008D1684600210022F2
:1052F0000023002400F004F800B10F2004B010BD1A
:1053000080E81E007F220421FFF7B0BB664901F14F
:105310001C02904202D101F10C007047001D704741
:1053200070B505460846604991F820405CB10026FA
:1053300002E0FFF7EBFF761CF1B2A14203D2017845
:10534000A942F6D170BD002070BD10B5564C20604A
:10535000002084F8200004F10C01616004F10C00CD
:10536000A0601422FF2100F08BF9012184F82110A4
:1053700010BD38B54C4C94F82020052A01DB0020E4
:1053800032BDA16803780B70002345784D70521C24
:10539000C078C8708B7084F820200846FFF7B6FFED
:1053A000A060012032BD10B53F4C94F8200038B108
:1053B000401E84F820006068FFF7A8FF60600120AD
:1053C00010BD10B50446384B084693F8201039B18B
:1053D0009A685968FFF7A4FF10B1012144708170E9
:1053E00010BD80B5304B93F8201031B19A685968E0
:1053F000FFF796FF08B1407802BD012002BD38B525
:10540000294D95F820100446686885F8214049B177
:10541000C178447009B901228270FFF777FFA9684B
:105420008842F5D131BD80B51F498A684968FFF7C8
:1054300077FF00B1012002BD2DE9FC411A4D95F81E
:105440002080064600271CE001788DF80010427885
:105450008DF80120C0788DF803000BE068680178B2
:105460003170427872708478012CEDD129688A6895
:1054700030469047FFF797FF14B96846FFF779FF6A
:105480007F1CF8B24045E9DBBDE8F381064890F89F
:1054900020007047044890F82010052901DB012006
:1054A00070470020704700006C22002038B50400CF
:1054B0001CBF2068002801D1022032BD0078607135
:1054C00003222368591CA01D00F0C2F82068011DAA
:1054D000032204F1090000F0BBF82068C179E16003
:1054E000027A41EA0221E160427A41EA0241E16046
:1054F000827A41EA0261E160C07A20742168087B07
:105500002179607411390D2010291FD1206800F114
:105510000D01102204F1120000F09AF81D202168FC
:105520000A5C6262401C83B2401CCD5C42EA0522E8
:1055300083B26262401CCD5C42EA054280B2626284
:10554000085C42EA00626262002032BD0129E6DBAB
:10555000012032BD38B504001CBF2068002801D1ED
:10556000022032BD0078607120684178A1608278A5
:1055700041EA0221A160C27841EA0241A1600279B8
:1055800041EA0261A1604079207320688179E1815C
:10559000C27941EA0221227BE18102F00F02102A46
:1055A00037DA00F1080104F1100000F051F8002191
:1055B00004F12805207B84F82010297000F00F00EA
:1055C0000830217982B28B1A1B1F012B0DDB236857
:1055D0009A5C84F82020401C091A0A1F80B22A70A5
:1055E0001918606AD2B200F033F8206821790144BA
:1055F000081F01786960427841EA02216960827877
:1056000041EA02416960C07841EA006169600020B6
:1056100032BD012032BD310029490860704770B5A4
:10562000274A284D146843F2390305FB04341460FB
:105630006FF00046B4FBF6F66FF00042091A02FB69
:105640001644491C94FBF1F501FB1541401870BD4F
:1056500003E011F8013B00F8013B13465A1E9BB2D0
:10566000002BF6D170471044401E03E011F8013BB7
:1056700000F8013913465A1E9BB2002BF6D1704731
:10568000130003D00A46194600F076B9704770B58A
:1056900003004FF0FF3001D1002070BD00240A4EFE
:1056A00009E09A5C5040082200F010F8521E85EA8A
:1056B0005000F9D1641CA2B28A42F2D3C04370BD3B
:1056C000500100206D4EC6412083B8ED00F0010569
:1056D0006D1E26EA0505704710B56E4CFC220021B0
:1056E0002046FFF7CDFF002200202260606010BD41
:1056F000F8B5044609B90120F2BD0023654D05F156
:1057000008001E0600EB16564FF0000C1FFA8CF036
:10571000305CE0B90CF1010C1FFA8CF01028F5D3C5
:10572000286800B92E60686800B10660002030600B
:1057300017466E603471B76092B2701DFFF788FF34
:10574000641F02D0E41E022C07D8012006E05B1C77
:10575000D8B20F28D3D10220F2BD002030737F1CB5
:10576000D5F8F8003F18C5F8F8700020F2BD10B564
:1057700008B9012010BD474A1168884206D041B1DE
:105780000B68834218BF1946F9D102E00368136021
:1057900000215468844208BF516009B103680B605E
:1057A00000210160D2F8F83081685B1A5B1EC2F8F4
:1057B000F83010220021FFF763FF002010BD10B564
:1057C0003448006800E0204630B1017B04680029BD
:1057D00008BFFFF7CCFFF6E710BD10B52D480068F5
:1057E00000280AE0FFF7C3FF06E001790468491FBB
:1057F000F8D0C91E0229F5D92000F6D1002010BD2D
:1058000008B9012070472349D1F8F8200260002030
:1058100070472DE9F041804616461E48046800276F
:105820000D46002E18BF002D0FD101201EE020795B
:10583000F0557F1CA268FFB292B2611DF019FFF70C
:1058400007FFA0682468C719FFB25CB1A168A8EB84
:105850000700491C8842EAD226682046FFF787FFE6
:105860003400F9D12846FFF7CBFF0020BDE8F081D6
:1058700008B901207047074909680022027000E05A
:10588000096821B10A7B012AFAD1012101700020A7
:10589000704700003818002001460020891E112999
:1058A00015D8DFE801F009110B110F0D0B0B1114C6
:1058B000140D14140F1113130320704702207047A6
:1058C000062070470120704705207047042070476C
:1058D00062B38B0708D0521E11F8013B00F8013B60
:1058E00000F024808B07F6D1830740F0208000BFB2
:1058F000103A07D330B4B1E83810103AA0E83810A5
:10590000F9D230BC530724BFB1E80810A0E8081052
:1059100044BF51F8043B40F8043BD20724BF31F8A0
:10592000022B20F8022B44BF0B7803707047121F24
:1059300017D35B0009D151F8043B20F8023B1B0C44
:10594000121F20F8023BF6D20BE051F8043B00F89E
:10595000013B1B0A20F8023B1B0C121F00F8013B05
:10596000F3D238BF121D521E24BF11F8013B00F8BC
:10597000013BF8D87047320062F30F2262F31F42F6
:10598000401810F0030308D0C91A1FD3DB0748BF23
:1059900000F8012D28BF20F8022D130030B4144662
:1059A0001546103928BF20E93C00FAD8490728BF1E
:1059B00020E90C0048BF40F8042D890028BF20F8DA
:1059C000022D48BF00F8012D30BC7047C91818BF20
:1059D00000F8012DCB0728BF00F8012D70474300C8
:1059E00000280AD0B0FA80F18840D1F19D01C905A4
:1059F000020672F1004241EB102070472DE9F04F92
:105A0000044685B0A0780028884693461F4655D1A5
:105A100094F910A094F91190A0683860002561797C
:105A2000012945D102208DF800006946A27C8DF83D
:105A30000220E07CFEF708FB46B25645A8BFB246FE
:105A4000B24508BF3D6033D0A089A168E289814298
:105A500028BF0125101881422AD308218DF8001093
:105A60006946E07CFEF7F0FA8146A068E189B0FB68
:105A7000F1F201FB120001281AD122218DF8001049
:105A80008DF801A06946A07C8DF80200E07CFEF74D
:105A9000DBFA824640B2B04202BF002520790128DD
:105AA00006D102218DF8101002A9E07CFEF71CFB44
:105AB00088F800A08BF80090284600E0002005B090
:105AC000BDE8F08F10B504001CBF2068002801D18C
:105AD000012010BD2179162901DC022010BD637957
