:020000040800F2
:10000000F82C0020D9450108F7E30008F9E30008BF
:1000100005E4000807E4000809E400080000000007
:100020000000000000000000000000000BE40008D9
:100030000DE40008000000000FE4000811E40008CF
:10004000194601081D46010813E40008214601086D
:1000500025460108294601087DE4000881E40008DE
:1000600085E4000889E400088DE4000831E4000814
:1000700037E400082D4601083DE4000825E40008A7
:100080002BE40008314601083546010839460108CD
:100090003D4601084146010891E400084546010833
:1000A000494601084D4601085146010855460108D8
:1000B000594601085D460108614601086546010888
:1000C00043E4000849E400084FE4000869460108D9
:1000D00055E400085BE4000861E400086D4601088F
:1000E0007146010897E400089DE400087546010880
:1000F000794601087D4601088146010885460108C8
:10010000894601088D460108A3E4000891460108CC
:10011000954601089946010819E400081FE4000803
:100120009D460108A1460108A5460108A946010807
:10013000AD460108B14601083EB5DFF8F44C02F0C7
:100140001FFC6061684602F0D3FCDFF8E80CDDE9D3
:10015000002300F66821C1E90023256845F0100559
:100160002560D0F8780A00281EBF00690028804763
:100170000DF10C0DBDE8304000A328E04D414320B7
:100180007478446F6E650D0A000000002DE9F0419F
:1001900004460D4616469846DFF8947C02F0F0FBC4
:1001A0007860BC60BD81FE8187F810803868DFF818
:1001B000841C40F008003860D1F8780A00281EBF7F
:1001C000006900288047BDE8F04100BF02A301227A
:1001D0000021022002F02FBD4D4143207278446F70
:1001E0006E650D0A0000000080B5DFF8440C016860
:1001F00041F004010160DFF83C0CD0F8780A0028D7
:100200001EBF006900288047BDE8005000A3DEE75C
:100210004D414320747854696D654F75740D0A0023
:10022000DFF80C0C016841F002010160DFF8040CFA
:10023000D0F8780A18B10069002818BF0047704745
:1002400080B5DFF8EC0B016841F001010160DFF8D7
:10025000E40BD0F8780A00281EBF00690028804708
:10026000BDE8005000A3B2E74D41432072785469C5
:100270006D654F75740D0A00DFF8B80B90F8FC102F
:10028000022918BF062180F8B01B704710B5DFF8AF
:10029000A44BD4F8700A94F8441B40F08000C4F8D2
:1002A000700A012904BF002000F09FFD94F8B10BF3
:1002B00040F0220084F8B10BBDE81040DCE7F8B54F
:1002C000DFF8704B054694F8FC00002702280E4624
:1002D00001D000F02EFD02F0DAFD012806D1022047
:1002E00002F0CBFD002002F0CDFD012794F8FC00C8
:1002F000012815D102F0CDFD012806D1002002F021
:10030000BDFD002002F0BFFD012702F0C4FD012861
:1003100006D1002002F0B3FD002002F0B5FD25E07B
:1003200027BB04F53B6794F8441B387880B9012952
:1003300008BF84F8695B284602F05BFEE06A02F0C1
:1003400027FBD4F8E41A884210D300F0EEFC09E051
:10035000012908BF84F8696B304602F04AFE00F0BC
:10036000EBFC03D0787840F020007870BDE8F140D5
:1003700082E7DFF8C01AD1F8700A002804BF91F8AC
:10038000B20B012801D10020704701207047000006
:100390002DE9F84FA0B0EFF3108072B6DFF890BAF5
:1003A000DBF8001003910022CBF8002080F31088C6
:1003B0000398DFF8804A002804F5346504F5276ABD
:1003C00004F6A43604F6643700F0EC82C0F30010A3
:1003D000002864D000F0B0FC01D000F0AAFC04F5C5
:1003E0002B68DAF87010404602F075FA404602F0C9
:1003F00008FADAF8741004F6C82002F06CFA04F671
:10040000C82002F0FEF900F097FC1CBF28790128F3
:1004100014D1162104F13C008DF8041001A90079D3
:1004200002F048FE0146DAF8740004F6283809188C
:10043000404602F050FA404602F0E3F9DBF81410AF
:100440006A79E1628DF81020059109A802F06AFB33
:1004500004F58272D2E90001DDE9098900910346C1
:1004600041464A4609A802F002FBDDE90901CDE94F
:1004700007010122A96806918DF8112004F1FC0101
:10048000087D10B900218DF8111004F13C0004A979
:10049000007902F039FE287908B9002179710398B2
:1004A000C0F3C00000283CD09BF91010BBF90E002F
:1004B000DBF80880BBF80C908DF804100022029243
:1004C00004F18001ADF80000CA6CBDF8000006928E
:1004D00000218DF806103972308101229DF8041038
:1004E000307B8DF80520B172F0720021DFF8602AB0
:1004F000E981697469612983A976E96129732962AF
:100500003970D06A804700F010FC4946404602F03E
:10051000BCFC012806D1BDF800009DF80410F88746
:10052000317018E294F8FC00012817D102F0B1FCF8
:10053000012807D1002002F0A1FC002002F0A3FC5A
:1005400004200AE002F0A7FC012807D1002002F0F5
:1005500096FC002002F098FC0520F07298F800103C
:10056000DFF8ACBA8DF800104809012800F06F815F
:1005700003281ED005281AD0072840F0D581DFF8BF
:10058000D4B9A9F1010292B208F10101584603F071
:10059000EDF80021697303202873A9F10100717B34
:1005A000C5F814B041F0020128767173C0E1012052
:1005B00028730D229BF8150095F910108DF8120084
:1005C0008DF811108DF8102094F88000012804BFD8
:1005D0000E218DF81010DFF880B99BF8040004A9F3
:1005E00002F068FDA9F10D02002112B29142B8BFDC
:1005F000114600B28842A8BFB9F10C0FC0F28F813A
:10060000FF2004F668128DF848001192CDF8208082
:100610008DF8249008A803F03EF9002840D10A9AEA
:100620009DF82C102A6211F00F0F1EBF9DF840009C
:1006300000284FF0000810D19DF8480010B94FF085
:1006400001080AE011F00F0F2AD19DF840000028A0
:100650000CBF4FF002084FF0030804F1D40E002045
:10066000DEF800300290934202BF04F1D20210780B
:10067000012817D101208DF806005278DEF81C0001
:100680008DF8052002680292069394F8FC20022A55
:1006900004BF0320F072B8F1030F08BF11F0600F20
:1006A00040F03D8115208DF8100004A99BF804004E
:1006B00002F000FD04F586710A689DF805100792A6
:1006C00011B1012903D03BE04FF004090FE09DF880
:1006D0001E10012909D1B8F1000F16BFB8F1030FA0
:1006E0004FF002094FF0010901E04FF00309BDF896
:1006F0002E2081B202AB484603F047FA9DF8001065
:1007000049098DF807100DF1480BF0B1072813D1F6
:1007100004F1FC020821907C002804BF9DF807002A
:10072000052802BF606BDBF80420904209D104F178
:1007300039030120587004E0082808BF0A2100D0BE
:1007400001210298E8616973EBE008A80090029B20
:1007500006999DF805004A4603F070FB20B1022877
:1007600014BF0C200B20DBE0687300229DF80610FC
:100770009DF82C00A9732A76C0F300116974400912
:10078000002100F001006961A87638727A7102993F
:10079000F07AE961002814BF0128A2629DF80610D2
:1007A00009B1022113E09DF80720DFF89C1C052AFF
:1007B0000AD1012304F1FC024B70917C11B9DBF8E2
:1007C00004106163012102E000224A7000212973B4
:1007D000030039799DF82C2018BF012806D1012982
:1007E00006BFC2F34010002803F077FC9DF82C20D0
:1007F000B8F1030F02F00F021FD8DFE808F0120D66
:100800000214F07A9DF904309DF8482000900021F0
:10081000119800F0A3FB01E000F080FA9DF8400081
:1008200010E000F07BFA11999DF840006961012207
:100830009DF8481029766A7604E001206873FFF776
:1008400025FDE87BE873707B40F0020065E0B9F1BC
:10085000100F64DD04F1FC02CDF858808DF85C9037
:10086000107D00285BD103F0C3FE014616AAFF20CD
:1008700003F018FA002844D19DF861009DF8621039
:1008800040EA01209DF8631004F1800240EA014033
:10089000906404F180011998C8649DF86800C0F361
:1008A000021100F00F008BF808008BF810008BF895
:1008B00001109DF8690000B901204FF47A71DFF84A
:1008C0009826DFF8888B484350610DF16A0100F5E6
:1008D0007A7090611491002088F81200A9F1110338
:1008E0008DF8543014A9107902F082FC022088F8A7
:1008F0001400012002F091FB01280BD101210020FE
:1009000006E0012002F089FB012803D10121072024
:1009100002F051FB707B40F00800707308E001208A
:100920006873FFF7B3FC16E001206873FFF7AEFCB5
:100930002879012802D1387A012802E094F8FC00D5
:10094000022804BF002000F050FA707B40F0200025
:100950007073FFF791FC0398C0F3800098B100F02A
:10096000EBF901D000F0E5F9FFF786FC0220787181
:1009700002F03FFB2879012804BF0121E970707B58
:1009800040F0200070730398C0F3400018B10621B6
:100990000520FFF794FC0398C10703D50421032029
:1009A000FFF78DFC02F08EFA707BC0F34010002838
:1009B00000F041810020B073DAF80000010644BF66
:1009C00020F08200CAF80000707BDFF88C95DFF819
:1009D0007CBA10F0050F10D00C2002F01EFB01288D
:1009E00002BF707B00F00500042806D1DAF8000091
:1009F00020F00200CAF800007EE0707BC0F38000A7
:100A0000C8B1012002F009FB012804D102F0E3FA89
:100A100058B9287009E0052002F0FFFA012804D037
:100A2000062002F0FAFA012805D1DAF8000020F0D9
:100A30000200CAF80000717BC8075DD53879002232
:100A400004F69828002818BF032800F046810128E2
:100A500035D1E87801284FD195F801C0AB786345CE
:100A600005D2C1F3400018B1387A012800D1012223
:100A70009BF81200002840F04181002A40F01581C7
:100A800063451CD25B1CAB70DBB203EBD370400838
:100A9000A3EB4003012B12D122208DF8000004F1BA
:100AA0006001087D8DF80200694694F839008DF8E0
:100AB000010099F8040002F0FDFA84F839000021E1
:100AC000707BE97000F0DF007073404601F0D8FEE3
:100AD00000F01DF9012000F0F6FC002818BF0B28DB
:100AE0000AD094F83900A978B87179720920787120
:100AF00002F07FFA00F038FF94F8B15BDAF80000FA
:100B000048BBE90744BF05F0FE007073707BC0F37B
:100B1000800111B100F0FB0070730120E907B07390
:100B200005D5DAF804100A6804F668309047C5F372
:100B3000800050B104F67C3002F078FA02F0A0FA9E
:100B400018B1707B40F00400707302F0AAF9707B5A
:100B500000F0DF007073DAF8000068B900218DF84A
:100B60000010684603F004FB9DF80000012803D143
:100B7000707B40F0100070730025DAF80000002848
:100B800057D12421204602F010FE616A88421CBF22
:100B90006062012501F044FBD9F8001088421CBFB7
:100BA000C9F8000045F0020501F035FBDBF818102C
:100BB00088421CBFCBF8180045F00405BC2104F5A1
:100BC0008C7002F0F2FDD4F8D41188421CBFC4F836
:100BD000D40145F00805A02104F5EC7002F0E5FD14
:100BE000D4F8781288421CBFC4F8780245F010058A
:100BF0004FF4936104F51F7002F0D7FD04F21477EF
:100C0000396888421CBF386045F02005142104F57E
:100C1000E36002F0CAFDB96988421CBFB86145F0C3
:100C20004005DAF8080000281FBFC16800292846DF
:100C300088470120B07304F6AC35707BC0F3C00167
:100C400049B1DAF8042000F0F70070732946D36840
:100C500004F539609847707BC0F3001078B100222A
:100C60008DF801200721DAF804208DF800102946BC
:100C7000D36868469847707B00F0EF007073707B14
:100C8000C0F3400149B1DAF8042000F0FD007073B0
:100C90002946536804F64C309847307B022808BF39
:100CA00000F03DFE21B0BDE8F08F387A08B17B72CC
:100CB00027E002208DF8080004F5EC71009104F59E
:100CC0001F720192694699F8040002F043FA00206D
:100CD00028713872A878787213E02A7894F8600046
:100CE00082420ED2C1F34000002808D09BF80000D9
:100CF00038B1F07A00287FF4E2AE02E0002A3FF437
:100D0000DEAE404601F0BCFD00F001F8F2E6DAF894
:100D1000000020F02000CAF800007047F07A9DF92A
:100D20000430009000210CA818E104F6C82001F05E
:100D3000A7BD8749C86A004794F8FC00022870479D
:100D400010B501F031FDD4F8700A20F02000C4F88D
:100D5000700A012000F0B7FB002818BF0B2810D044
:100D600004F6693094F8391094F8422B41700271FE
:100D700009210170092002F03CF9BDE8104000F0A3
:100D8000F3BD10BD10B52B4890F8452B00F6E821B7
:100D90000A7000F1610200F52B6092F90030147DB9
:100DA000D27FCB700C7400234A744B8219E0214A25
:100DB00092F8B00B002800D1704710B502F6FC2164
:100DC00092F8450B087002F164000368447C007FD0
:100DD0004B6048740C7400238B740120C87402F6B5
:100DE000C820BDE8104000F07FBD10B5DFF8BC4B57
:100DF00004F6283001F044FD04F64330417801291F
:100E000004BF01220270FFF797FF05D194F8B10BE0
:100E100040F0200084F8B10BD4F8780A00281CBFF9
:100E20000069002802D0BDE81040004710BD000056
:100E30001424002094020020F8B5DFF8705B444CC5
:100E400095F8FC100746032019B1022955D04CD360
:100E5000F2BD3A0005F16C0606D105F16401D1E955
:100E60000023C6E90023F2BD012F08D1012002F0C2
:100E700019F8010048D1012185F8FC10F2BD022FBC
:100E800042D1022085F8FC0005F53167384605F6A9
:100E9000FC21142203F04EFC0220F87400202C21C7
:100EA0004143294491F8D220012A03D0401C002854
:100EB000F5DD12E001F1E80005F644320168316029
:100EC0000079307179605078717A38703974032103
:100ED000307D7874F9740120B874002185F8441BC2
:100EE000E06A804700F01BFD0DE0384601F0DAFFB4
:100EF000010009D185F8FC70F2BD2FB9002085F8FA
:100F0000FC00E16A88470020F2BD1CB5DFF8602DC7
:100F10008DF8010002F174031C78197B8DF80240F2
:100F20000D248DF80040012904BF0E208DF800002B
:100F300092F84000694602F0BDF8C0B216BDDFF875
:100F4000300D90F8B11B41F0100180F8B11B7047D3
:100F5000043F0108FC0B0020D00200202DE9FE4FC9
:100F600004468EB00F460DF10A0000218DF80810DE
:100F70008DF80F100180DFF8FC0CDFF8FC1CDFF8A7
:100F800090A0DFF8F88C099108900FE0A05D089A16
:100F900000F00F000121814091802F46089B58707E
:100FA00000220DF10A01042003F022F89DF83C1004
:100FB000F8B2884280F044825FFA87F914F8090099
:100FC00003F0EAF89DF83C1048448142C0F23882B0
:100FD00014F80900DFF8D4B97F1C7D1C801E11288D
:100FE000FEB2E7D8DFE810F01600270012008900F3
:100FF000BD00D4000001140157012C022C026A012B
:101000002C022C02CF01E001FA011102BEE700BF61
:10101000F4020020042002F000F80128C6D10421C7
:1010200000F04EFA0999A05D0870E9B20998625C77
:1010300042706F1CBAE79DF80F00002100288DF860
:101040000E10ADF80C108DF80910AFD101218DF8FC
:101050000F10A2199DF83C100898C91B491C531E7B
:101060008DF8181005930DF1090301789AF8140012
:101070009AF800208DF81A108DF819008DF81D20AF
:1010800001930DF10D0398F8001098F801008DF808
:101090001C108DF81B000BF586710A6898F8080083
:1010A000049203A900910DF10E0204A902F092F935
:1010B00000F0F8F90BD19DF80E009DF80D1088F89E
:1010C000010088F800109DF80C008AF800004FF02D
:1010D000000B06E0012202A9032002F089FF0BF1B8
:1010E000010B9DF80900052190FBF1F15FFA8BF2ED
:1010F0008A42EFDBC7197F1E58E707218DF80810D9
:101100006F1CA05DC0F302108DF80100E8B2A15D74
:1011100001F00F018DF8001000F0A9F902F098F924
:1011200000F0C0F910D19DF800009DF800108AF879
:1011300008008AF810100198CAF80400CAF80C00D8
:101140009DF801008AF8010001229DF808008DF841
:101150000A000DF10A01052002F04AFFFFF7EFFE39
:1011600024E7DBF8780AFF2100281CBF006800286C
:1011700001D0804701469DF940008DF80A1000F02B
:101180003F008DF80B0002220DF10A0106200BE74B
:1011900003208DF8080004ABA2578DF80420E8B2B4
:1011A00000936F1C225C0492F9B21046625C7F1CB3
:1011B00040EA022000F054F90490014664204143C3
:1011C00004910022F8B205927F1C215698F808007D
:1011D0008DF81810694602F061F900F05DF9BFD48E
:1011E00000F066F90720DFE6A15D11F00F012F4640
:1011F00008BF01214FF47A70414301F57A72C8F8B3
:101200001C20C8F8181000220DF10A010820A3E7DD
:10121000A15D00222F46ADF80020880644BF0122C0
:101220008DF80120C80644BF01228DF8002001F08E
:101230000F018DF80210694698F8080002F054F981
:1012400010F1010F8CD09DF8010000BF80A18AF839
:1012500015009DF80200085C03F0B0FACAF8180007
:1012600002219DF800008DF812008AF814008DF814
:10127000101004A998F8080001F01CFF9BF9391020
:1012800040B28142B8BF014688F8011000220DF13A
:101290000A01092088E603218DF80810E8B2A25D52
:1012A0008DF800206F1C00F0E2F802F043F900F026
:1012B000F3F867D400F0FCF80A204DE70A2001F0AB
:1012C000ACFE01285ED10A2100F0FAF804A8002142
:1012D000C0E9001106A8EAB2C0E900110AA86F1C13
:1012E000C0E90011A15D04910846A15C40EA01201B
:1012F00000F0B6F8F9B204907F1C625C40EA02602C
:1013000004904FF47A71F8B27F1C205CADF81400A1
:1013100010FB01F00012ADF81400DDE90401CDE985
:1013200006010246DFF8380B82180692684601F083
:10133000DFFBDDE90023CDE90A230BF6682EDEE9A9
:1013400000010346DDE906500091024629460CA83B
:1013500001F08DFBDDE90C010346DDE90A50009147
:10136000024629460CA801F063FBDDE90C23CDE918
:101370000623DDE9060101F09FFB01F09DFD012040
:101380008BF8640B12E60D2001F047FE0128F9D11D
:101390000D2100F095F89BF8B00B042818BF052824
:1013A00001D001F085FD01E6E8B26F1CFBB2A15D42
:1013B000225CE05C7F1C41EA0221FAB241EA004172
:1013C000A05C642200F00F00514301F072FD8DF823
:1013D0000A007F1C00F070F81120E5E50E2001F0F6
:1013E0001CFE012810D10E2100F06AF8E9B2A05DC0
:1013F000625C40EA02206F1CFBB2DFF8682AE15C05
:10140000526801F058FD7F1CD0E5E9B26F1CFBB2B9
:10141000A05D625CE15C40EA022040EA0140642198
:10142000484301F04AFD7F1C012807BF01218DF8C8
:101430000A1000228DF80A2000F03EF81320B3E5D0
:1014400011B0BDE8F08F0000CD0200209003002015
:10145000080A0C0D0E10121415181A1B1D1E21243B
:10146000F9B204907F1C625C40EA02407047215C44
:101470000191F8B27F1C225C41EA0221F8B201918D
:101480007F1C225C41EA02410191642041430191A9
:10149000694698F8080070478DF808009DF9080023
:1014A000002870478DF8080000F0070007287047F3
:1014B0009DF808008DF80A0001220DF10A0170471D
:1014C000002001F078BD2DE9F84F8CB0824601F084
:1014D000DEFC012808BF0E200ED0DFF8D08498F87B
:1014E000FC00012809D101F0D4FC012803D001F04F
:1014F000D2FC012801D10F2056E1D8F83000DFF8E6
:10150000686908F5346528B9A868F1884143081A64
:10151000C8F8300008F63407387830B104286CD1A8
:1015200008F6380003F08DF903E008F6380003F000
:1015300052F900285FD1387A98F83910A8F83007A6
:101540008DF82010D8F83000069030798DF8220000
:1015500001A801F0E7FA08F58272D2E9000103461A
:10156000DDE9014000910246214601A801F07FFA21
:10157000DDE90101CDE909010122D8F82C0007902D
:101580000021B8F83007ADF82E008DF82C108DF83A
:101590002120307D20B98DF82C2000228DF82120CB
:1015A00008F1300008F14004009008F6B4332078C8
:1015B00008F6453206A902F00BF8010008F5376974
:1015C00008F5276B1BD00B2808BFBAF1010F13D108
:1015D000D9F8441000290DD0DBF8000040F02000BD
:1015E000CBF8000008F69828404601F074F9404610
:1015F00001F007F9D7E01120D6E00320D4E008F18C
:10160000610A98F939209AF900309AF81410207874
:1016100002F044F808F6E821009141B26368227AAA
:10162000207801F031FE08F6FC2100916368227AEF
:101630009AF90710207801F027FE08F6F4202269B5
:1016400001684369D4F814C0307D8A189C4420B9DD
:10165000A2698A18E16903EB010C0021CBF8702024
:10166000CBF874C00191C0B101A802F049FD08B1E6
:10167000132099E0019898F867A98DF8000098F96F
:101680003900FFF742FC9DF800105144884202D314
:10169000B1F5807F01DB082086E068798DF80000D5
:1016A000002198F839009DF800208DF809008DF888
:1016B00001108DF8082008F6483398F838008DF8A6
:1016C0000A000DF1010208F178004FF0030A0168E9
:1016D00040680490039102A9B8F83007ADF81400EF
:1016E000207801F033FE08F669300121017098F886
:1016F00039209DF80110427081709DF80000A968A2
:10170000C9F80800C9F80010C9F8101001F0C5FBAD
:10171000012805D1A86801F0D2FB08B1102043E0F0
:101720003078012808BF01F0CCFB01F0B9FB0020A4
:1017300001906E7998F839403878DFF8089BB8B195
:10174000042835D101A802F015FA10B14FF0120AA1
:101750002EE0287810B9A878012802DD0198401EF3
:1017600001904B4601983246214602F00AFB02E006
:10177000484602F071FAC8B9387ADBF80010A8F8C8
:10178000300741F002012879CBF8001010B9297810
:10179000491C297008F23270DFF8AC2AB8F830170B
:1017A000936AC9B29847002000F0EBBF4FF0110ACE
:1017B0005046F9E72DE9F043DFF8B48408F581706D
:1017C00008F1280E08F6223500218173CEF80010AA
:1017D000A97708F64236012108F1B80C01223170D0
:1017E0000180EA7700229CF80C009CF80D108EF81E
:1017F000100008F1A1048DB0727088F8FF208EF8F7
:10180000111008F1A409207888F8610008F1640734
:10181000D9E90001C7E9000108F1AC00D0E90023D3
:1018200008F16C00C0E90023E07C387408F51F72F1
:10183000217DDCF80000797478610020DCF8041068
:10184000B0708EF81200B96101208DF8100008F513
:10185000EC710291039202A99EF8180001F07AFC43
:101860000021F17008F6FC213A684A6000200870F7
:101870003A7F787C08744A74002001228874CA7404
:1018800008F53160142202F055FF01202870022172
:101890000022D8F8780A69700092019218B1416864
:1018A00000910069019008F5396108F64C32059104
:1018B000069208F67C3108F6B1320791089208F1D9
:1018C000CC0108F1400209910A9208F1440108F1A3
:1018D000D0020B910C92694608F5E36205A801F06D
:1018E000CBFA0DB0BDE8F083F8B50C4600F0C8FFA8
:1018F000DFF85459DFF87863286B06F1400780471A
:10190000387806F53562214601F0F8FC012805D14A
:10191000F868696B8847E07C86F8B00BF1BDF8B5D4
:10192000224C94F9701004F1400604F53167736895
:10193000327A3078009701F0A7FC04F622350220B5
:1019400068700121297004F535623078394601F05C
:10195000D5FC012807D1DFF8F0184A6B002090472A
:10196000687884F8B00BF1BDC14901F6AF308278D8
:10197000C2F3400222B10078002818BF012806D027
:1019800091F8FE00012802D1886A401C886201F5A6
:101990003460002202700271C270D1F8700A20F027
:1019A0000200C1F8700A0120704700009402002074
:1019B0002DE9F84F88B05FEA0009164618BF5FEAC4
:1019C00001080FD0D9F8000000281CBFD9F8040086
:1019D000002807D0D9F8080000281CBFD9F80C004F
:1019E000002801D1032036E1304601F059FB08B947
:1019F000092030E1484601F0A2FADFF874B24FF452
:101A0000E6620021584601F0C9FE4FF4A1620021B0
:101A10000BF5E66001F0C2FE0BF624340120A0773E
:101A20000BF1400560770BF1FC0A2E7000200BF1E2
:101A300080068AF8000030700F20DFF8F4298DF856
:101A40000400CAF8102001A900F00AF900B1012031
:101A50008AF8040001A90A208DF804000BF1C407DC
:101A600000F0FEF8387001A9062000F0F7F8787051
:101A700001A910208DF804000BF1A00700F0F0F888
:101A8000F06001A9112000F0E9F8306101A91220ED
:101A900000F0E4F8706101A9132000F0DFF8B061F4
:101AA00001A9142000F0DAF8F06101A9172000F074
:101AB000D5F8787001A9182000F0D0F87860F860A7
:101AC00001A9192000F0CAF83872387401A91E2043
:101AD00000F0C4F8387501A91F2000F0BFF8787530
:101AE00001A9202000F0BAF8B86101A9212000F076
:101AF000B5F8F86101A90B2000F0B0F8208001A929
:101B00000C2000F0ABF860800A2101203870716071
:101B10000622327269600BF51F7206212972F06885
:101B2000E8603169296170696861B169A961012161
:101B3000F069E8618BF8601000200BF5EC718DF80E
:101B400014000391049203A9287801F003FB0BF51C
:101B50002764C4F80880FFF72DFE0120C4F8049024
:101B60008AF801000BF6B139002089F80000012144
:101B700021600022CBF830000090CBF82C204FF0F1
:101B8000FF31DFF8B0380BF6982000F021FE00207E
:101B900000900022DFF8A0384FF0FF310BF52B60EA
:101BA00000F016FE002000900022DFF890384FF081
:101BB000FF310BF6C82000F00BFE00200090002241
:101BC000DFF87C384FF0FF310BF6283000F000FED4
:101BD00006A800F0A7FFDDE906010BF58272DFF829
:101BE0006438C2E90001E360DFF85C08DFF85C18E4
:101BF0006061E161DFF85808DFF858182061A161E1
:101C00000BF67C20DFF8404621688847D8F808109A
:101C10000BF58C7002F098FB68B9584601F088FF0C
:101C200048B902F0D9F908B1132014E00BF1D00043
:101C300001F0E3FF08B111200DE06069804701F079
:101C400079FD9AF80100A16D8847E06A804701217B
:101C500089F80110002009B0BDE8F08F8DF804006C
:101C6000287801F027BA02490020C1F8700A7047AD
:101C70009402002092030020180E0020CC020020C5
:101C8000F8B50C46DFF8D0178B6A01F174020546EF
:101C900088B092F9510092F95060029300278DF8B4
:101CA00000008DF8016001970CB9032046E0002088
:101CB0008DF81000059301F6243001F5867603882F
:101CC00040881278376891F8FE60ADF81A00ADF8D8
:101CD00018308DF81E2003978DF8116002AB91F833
:101CE00039008DF81C000DF1010291F8380091F8CF
:101CF00040108DF81D008DF81F1003A8694602F0F2
:101D000005FE9DF90000FFF700F9607001A802F0E0
:101D1000F7F908B1132011E0019810280BD261786F
:101D20000A46824207D3091A2170019949198A4249
:101D300003D3002002E000202070082009B0F0BD8D
:101D4000FEB5044600250CB90320FEBD2778DFF858
:101D5000641A282F01F1FC0201F1800301F1400017
:101D600001F1600600F27680DFE807F01517191C14
:101D70001F2123747474747474747425272A2E318B
:101D80003437403E484A4C4E505254575D5A606278
:101D9000656967746C0010784BE0107D49E002F0D3
:101DA00016FC4DE002F024FC4AE0907841E0986C8B
:101DB00046E0D86C44E050783BE0197821714DE062
:101DC0001D228DF8002014E001F1640007E001F10C
:101DD000A40004E001F16C0001E001F1AC00D0E9E5
:101DE0000023C4E9012339E01B2100E01A218DF80A
:101DF00000106946007801F05DF921E0307818E0C4
:101E0000C0681DE000691BE0406919E0806917E0C7
:101E1000C06915E093F845000BE091F8390008E03F
:101E200093F8440005E091F8380002E0406807E0CC
:101E3000007A207112E0F06902E061600EE0D86B78
:101E400060600BE001F586710868606001F06AFC73
:101E5000A06003E0204601F027F805462846FEBDB5
:101E6000803DD51214240020900300202DE9FE4F60
:101E7000044600250CB90320C6E1DFF8DCB5DBF829
:101E8000701A880748BF0120F6D42278DFF8B8839B
:101E9000272A0BF180000BF1FC090BF160060BF116
:101EA000C40A0BF1380700F2AA81DFE812F028001B
:101EB0002C00320036003C004000440048004E0038
:101EC00054005A00600066006C0072007D008700BC
:101ED000A8018A009A00A300BB00CC00C600D7006E
:101EE000DE00E100E400E700EA00ED00F900150182
:101EF00009012001240128012B012E0199012079DB
:101F0000FEF79AFF7EE1207902280BD089F81400B1
:101F100079E1606802F052FB02E0606802F05AFB6F
:101F2000002803D069E1207989F802006BE160683C
:101F3000CAF8040067E16068CAF8080063E16068F5
:101F40000028EFD00146002028E060680028E9D092
:101F50000146012022E060680028E3D0014602200B
:101F60001CE060680028DDD00146032016E06068B0
:101F70000028D7D001467F2010E060680028D1D02B
:101F8000014680200AE060680028CBD0014681200D
:101F900004E060680028C5D00146822001F042FEBE
:101FA000002840F028812EE1207989F80100D8F836
:101FB00058108847D8F82C00804724E12179017017
:101FC00021E100F032F9012847D160680090002239
:101FD00000F033F9012840D1D4E901010BF164028A
:101FE00028E000F022F9012837D1D4E901010BF1F2
:101FF000A4021FE000F019F901282ED1D4E9010153
:102000000BF16C0299F80030C2E90001022B08D1F3
:1020100099F81400002804D0D8F82C008047FFF766
:102020007EFCF0E000F001F9012816D1D4E90101AD
:102030000BF1AC02C2E90001E5E061680191012207
:102040008DF8082003E0616801918DF8085001A91E
:10205000387A01F0F3F8002806D1CEE02079002884
:10206000FBD01028F9DA3070CDE060687861CAE002
:102070006068B861C7E06068F861C4E060683862B1
:10208000C1E060687862BEE000F0C0F8062200F0AF
:10209000D4F80128E1D19DF800008AF80100B2E0EF
:1020A00094F90400317D8DF800008DF802100522AE
:1020B00000F0C3F80128D0D19DF800007870A2E0AC
:1020C00000F0A4F80A2200F0B8F80128C5D19DF864
:1020D00000008AF8000096E000F098F8092200F06D
:1020E000ACF80128B9D19DF8000038708BE0616828
:1020F0004160F96087E021790172397483E060689A
:10210000F06180E06168C1637DE06068002874D0A0
:10211000044672D0012918BF012574D1242101F091
:1021200044FB616A884204D128222146584601F0C6
:102130001DFB00F075F8E16B884206D1182204F10E
:1021400028010BF1280001F011FB00F064F8D4F82D
:102150001411884213D1D82204F140010BF1400040
:1021600001F004FB0BF531609BF8451BF268017030
:1021700042600122717D017482740221C17404F5F0
:102180008C76BC21304601F010FBD4F8D411884283
:1021900005D1C02231460BF58C7001F0E7FA04F549
:1021A000EC76A021304601F000FBD4F8781288428A
:1021B00005D1A42231460BF5EC7001F0D7FA04F5F5
:1021C000E3661421304601F0F0FAD4F82C17884267
:1021D00019D1182231460BF5E36001F0C7FA12E07D
:1021E000A079012809DC60680BF5867108606068D9
:1021F00001F0BAFC38B1112006E0032503E02046C7
:1022000000F054FE05462846BDE8FE8F94F9040010
:102210008DF800007047D42104F1400001F0C5BAE8
:10222000142104F1280001F0C0BA94F90800717D6E
:102230008DF800008DF801100722387A694600F009
:10224000AFBF0000CC0A0020043F01082DE9F04197
:1022500086B0002104460225ADF800100CB9032019
:10226000C1E0FEF786F801283CD000F00DFF012800
:1022700038D000F005FFDFF8E08128B914220021F2
:1022800008F67C3001F08AFA98F8B11B012088F832
:102290007D0B41F0040188F8B11B012120788DF8F5
:1022A000040000228DF805108DF8072008F644364A
:1022B0002078012808F1380710D0042851D00528CB
:1022C00057D0062871D00A2878D00C2800F0A380B7
:1022D0000D2877D00E2800F0958076E098F8701AD7
:1022E000880601D501207EE0FFF764FA94F9041016
:1022F000387A002201F044F9787007208DF8050043
:102300000020FEF799FD08F63400002108F2327231
:10231000FF23017042600372417202F069F90146C5
:10232000082208F63E0001F021FA02F050F90146B9
:10233000082208F6460001F019FA0020FFF7C3F85A
:10234000054630B9D8F8B40B206101A800F00BFEA7
:1023500048E094F90410387A012201F011F97870FC
:1023600033E000256946022001F042FE002850D1EA
:10237000E8E7A18870787A783B788DF808008DF8C6
:102380000920ADF814108DF80A3002A9386C7A6C67
:1023900003900492387A01F05BF9D8F8700A40F0A3
:1023A0000200C8F8700A0025CCE7DFF80C34A288D8
:1023B00094F90C10A068DE6BB047EEE70025694683
:1023C0000D20D1E798F8FC0080B1D8F8B40B20615B
:1023D00000F056FE30B998F8B11B307001F0FB01E7
:1023E00088F8B11B284606B0BDE8F081277907F0D0
:1023F000070000F054FD8DF80070002501226946A9
:102400001020B1E76946122001F0F2FD00250028F6
:1024100098D01325D9E78DF8071000F031FD28B9C1
:1024200000F02BFD002000F02DFDBCE70125CCE7DE
:1024300000030001410D0008850D0008AF0D0008E4
:10244000EB0D0008390100088D0100082102000889
:10245000E901000841020008940200202DE9F24F32
:102460008CB0054602270024002D4FF0000A8DF89D
:102470000040A34600F08680FDF77BFF012800F0B6
:102480008080DFF830831422002108F6683001F0E4
:1024900085F908F6683101204870012208F62430D9
:1024A00000268277297821B1012908D003291AD082
:1024B00026E008F6243193464A77402608E0E87B78
:1024C00093460828A8BF082008F6243180264877BC
:1024D00095F804A0AC68A989ADF8021095F90E2012
:1024E0008DF800200CE008F6243193464A776C689A
:1024F0002889ADF80200E02695F90A108DF8001041
:1025000008F1380998F874008DF82A008DF82870C1
:102510000AA999F8080000F0CDFD9DF9001040B21D
:102520008142B8BF0146BBF1000F26D008F1FC077D
:10253000B87888B998F874008DF80A008DF80810FA
:10254000052299F8080002A900F02AFE012819D1F5
:102550009DF8080089F8010099F9011099F9002007
:102560008DF805108DF80420D8F828100491387DD6
:1025700050B90727002088F8440BD8F8B40B28611D
:102580003846FEE00320FCE7F87810B90021C8F8CF
:102590003010B878C101387801280CBF41F0100B19
:1025A00001F0EF0B99F80200012808BF4BF0200B57
:1025B00008F5867001220168D8F828000591079077
:1025C0004FEA0B61C90F8DF819108DF8182004AB74
:1025D0007A480188408899F80020ADF82200ADF8CB
:1025E00020108DF825204A4698F8740099F80110BB
:1025F0008DF826008DF8241008F1390199F80800AB
:102600008DF827000BF0BF0B05A802F07FF94BEA0D
:102610008017BDF802B00020A8F8300788F8440BF6
:102620000390009004B983465A46214608F6680094
:1026300001F09CF808F5E66088F867B98670F00448
:10264000000E0228DFF878B132D004282DD00728F8
:1026500040F08A80002C1CBF98F86729002A09D016
:10266000214608F2337001F081F898F86709401CA0
:10267000A8F830079DF83000FEF725FF0028074630
:1026800074D09DF805009DF8041089F8010089F8C0
:102690000010002F74D198F8B11B28788BF8000037
:1026A00041F0010188F8B11B67E7012088F8440B6D
:1026B00008F63404042008F23271FF2220706160B1
:1026C0002272667208F1740008F65806816D86F869
:1026D00000A0E160277408F6680198F86709307275
:1026E000716003A801F046FA08B11227C9E700217A
:1026F000ABF80410039803996082CBF80C1068467D
:1027000001F0FEFC40BB00980028B3D099F901000D
:10271000FEF7FBFB98F8671908F6B83AB9B10099CB
:1027200010290ED208F6480269460F2001F0F1FC8C
:1027300090B9009807F0F00700F00F0007432774E6
:1027400098E75246694601F0E4FC28B992E7524600
:10275000694601F0DEFC08B1132792E73070C6F835
:1027600004A00099317285E702278AE7049989F865
:102770000200C8F8281001F0A2FC002889D0132715
:10278000F8E60DB0BDE8F08F38B50A4D044695F86F
:1027900040008DF800400F22694600F001FD01283D
:1027A00008BF85F8004131BD024C04F6982000F0C6
:1027B00067B8000094020020043F0108B80D002013
:1027C000FC0D00209849994A0020086013681847BA
:1027D000F8B5040015461E4611D030000FD0069FF4
:1027E00000202060084600F048F86060E6600020A5
:1027F0002761E57220726072A0726061F2BD0120F3
:10280000F2BD2DE9F0410446002594B300F0CEF866
:10281000002804BF607A00282BD1EFF3108672B62F
:10282000824FD4F80480386A8047404538BF40461C
:102830002060012060722572A572DFF8EC81D8F863
:10284000000018B93869804720460AE0B869804717
:10285000216840182060D8F800201368984220466C
:1028600002D200F0D7F801E000F0C1F886F310883A
:1028700000E001252846BDE8F0816C494A6A10470E
:10288000F8B5002420B3EFF3108572B6664E3268B7
:102890000127134611468772BAB1824244720BD1A6
:1028A0005069147218B1306000F08BF80DE05F4889
:1028B000C1688847346008E0814204D00B4649690A
:1028C0000029F9D101E04869586185F3108800E0DA
:1028D00001242046F2BD38B50446084600250CB94F
:1028E00001250DE0FFF7C9FF6060204600F05EF8AB
:1028F00030B12046FFF7C4FF2046FFF782FF0546B0
:10290000284632BDF8B5EFF3108572B6474E464FF4
:1029100070698047316904468847041B386860B392
:1029200001688C4234BF091B002101604069002806
:10293000F6D13968086828B1B069804739680A68F3
:10294000824214D23C686069386000212172617251
:102950002069E1688847E07A012801BFA07A002851
:102960002046FFF74EFF38680028E2D105E021B18C
:10297000087A10B9084600F024F885F31088F1BDF4
:1029800010B52A4CE0698047A16ABDE810400847AD
:1029900070B5264D0446E86980470646696A2046B8
:1029A0008847AA6A301ABDE8704010471E49096876
:1029B00000E0496919B18142FBD101207047002034
:1029C0007047F8B5194D0446286A804701212172E5
:1029D0000646AF69B84721683018814202D2B8472D
:1029E000361826602068A968BDE8F440084710B58D
:1029F0000D490A68536901E01A465B69516931B1B2
:102A00001C6801688C42F7D35061436110BD50616E
:102A1000416110BD044A116809B100230B72416184
:102A20001060CEE700000000F024002038430108C9
:102A30000EB41CB40FF2A811039CD1E90023CDE918
:102A400000230599BDF810200C19BDF8181000944A
:102A50008A1813B2B3F57A7FADF8042006DB009B29
:102A60005B1CA2F57A720093ADF804201CE00EB452
:102A70001CB40FF27411039CD1E90023CDE90023AB
:102A80000599BDF81820641ABDF8101000948A1A30
:102A900011B20029ADF8042006D5009B5B1E02F59B
:102AA0007A720093ADF80420DDE90023C0E9002329
:102AB00013BC03B07047000078B504464CA0464EE6
:102AC000D0E9002385B00D46CDE90123316902A884
:102AD000884700F050F803A8FFF7C9FF0398316852
:102AE0008847BDF91000B168884706B070BD000086
:102AF000F0B5044640A0384D2969D0E9002385B0DF
:102B000004A8CDE9032388470390E8688047ADF81F
:102B10000800686880470190DDE90301DDE901678D
:102B200050E000001CB5044635A02B49D0E9002335
:102B3000CDE9002301A80A6990470090DDE9000172
:102B4000C4E9000113BD7FB5234E0446F0680D466D
:102B50008047ADF808007068804700F00CF801A8C5
:102B6000FFF785FF0198BDF908104FF47A7202FB58
:102B7000001004B070BD01902A46DDE9010100910A
:102B8000034621467047F0B5044685B04FF47A708D
:102B9000B1FBF0F00390024610480F4D00FB02110C
:102BA000ADF810100822002101A801F013FFE86819
:102BB0008047ADF80800686880470190DDE90101B1
:102BC000DDE903670091034631463A462046FFF7A8
:102BD0002FFF05B0F0BD00008445010818FCFFFF81
:102BE00000000000000000000000000000000000E5
:102BF00000000000000000000000000000000000D5
:102C0000000000000000000010B5DFF86442182248
:102C10000021204601F0F3FE4FF48062002104F110
:102C2000180001F0ECFEDFF84C120FF249100A68B0
:102C3000BDE810401047F0B585B000F053F838BF3C
:102C40006FF0040048D3E8680840884218BF6FF06E
:102C5000050041D16B68002B18BF002A01D000F09D
:102C60003DF80AAE334622464FF4007105F5836005
:102C700001F0CCFE074600F0E9F8BDF80200C719E4
:102C80006946B8B200F0B6F810F1010F20D000206C
:102C900009E001A982B2401C8B5C3B76BDF80010B4
:102CA000491CADF80010BDF80010BDF802206F18E7
:102CB00081B29142EDD3334622464FF4007107F1C1
:102CC000180001F0A3FE00F0C9F800F019F803E0C5
:102CD00000F0C4F86FF0020005B0F0BD0DF1020184
:102CE00001A818471C460023ADF80230604D2B7A2E
:102CF000834270475E49486070475D49087270477B
:102D000070B50026EFF3108472B6594DE88A58BBAF
:102D100000F09CF8698A288A884223D0AA78012A80
:102D200009D12B882E80181A022286B20EB90022F1
:102D30002A82AA70A8822A8AA87828B98A4234BF2F
:102D4000891AC2F58061A982A81800F1180684F3D7
:102D5000108801F0B0FF474AA98AD36830469847E7
:102D6000064603E000F07AF884F31088304670BD20
:102D70000000000070B5EFF3108172B63C4A907805
:102D8000022802D10023937004E0138A908AC318AA
:102D9000C3F309031382108A538A984223D0D48A3A
:102DA000012C20D19478012C0AD115880026168098
:102DB000281A022486B20EB90024148294709082DC
:102DC000148A907828B99C4234BF1B1BC4F58063D9
:102DD00093821019183081F31088918A254AD3689C
:102DE000BDE87040184781F3108801F066FFBDE828
:102DF000704033E0F0B54FF0FF32EFF3108372B65E
:102E00001B4C258A668AAE4201D0B5420ED2C6F569
:102E10008066B7B2B8420AD3A84213D2668A268027
:102E20000125A5700025268A658200E0AE1BB6B29A
:102E3000B04207D2628A0A800022618A4018C0F339
:102E40000900608283F310881046F0BDEFF3108014
:102E500072B60749CA8A521CCA8206E0EFF3108094
:102E600072B60349CA8A531ECB8280F3108870471A
:102E7000CC0E0020C8450108704770477047704766
:102E8000002070477047704770470020704700204F
:102E9000704700207047002070470020704770473F
:102EA0007047704702207047022070470220704729
:102EB000704700207047704770470020704700201F
:102EC00070477047704730B50168846842184168A0
:102ED00002EB5103C90703D54C4401E0491C08D15A
:102EE0009A4218BF12F9011B01D10C3030BD12F803
:102EF000015B002904F8015BF0D4491EF7D5EFE728
:102F0000664901F11C02904202D101F10C007047A8
:102F1000001D704770B505460846604991F820408D
:102F20005CB1002602E0FFF7EBFF761CF1B2A14294
:102F300003D20178A942F6D170BD002070BD10B552
:102F4000564C2060002084F8200004F10C016160E0
:102F500004F10C00A0601422FF2100F01FFC0121ED
:102F600084F8211010BD38B54C4C94F82020052A67
:102F700001DB002032BDA16803780B700023457887
:102F80004D70521CC078C8708B7084F820200846A1
:102F9000FFF7B6FFA060012032BD10B53F4C94F89A
:102FA000200038B1401E84F820006068FFF7A8FFB9
:102FB0006060012010BD10B50446384B084693F8F8
:102FC000201039B19A685968FFF7A4FF10B10121A8
:102FD0004470817010BD80B5304B93F8201031B132
:102FE0009A685968FFF796FF08B1407802BD012042
:102FF00002BD38B5294D95F820100446686885F85B
:10300000214049B1C178447009B901228270FFF7AB
:1030100077FFA9688842F5D131BD80B51F498A681C
:103020004968FFF777FF00B1012002BD2DE9FC419F
:103030001A4D95F82080064600271CE001788DF88F
:10304000001042788DF80120C0788DF803000BE065
:10305000686801783170427872708478012CEDD103
:1030600029688A6830469047FFF797FF14B9684689
:10307000FFF779FF7F1CF8B24045E9DBBDE8F3813B
:10308000064890F820007047044890F82010052961
:1030900001DB0120704700207047000078230020EA
:1030A000052884BFC01F022801D8012070470020D6
:1030B00070470000C0B2092821D8DFE800F00508F9
:1030C0000B0E111420171A1D084601F041BE0846C8
:1030D00002F0A4BB084603F00DB9084603F022BD78
:1030E000084604F05DBA084604F0C4BF084605F07F
:1030F0000DBD084606F06EBA084606F0B3BF0FF2E3
:103100003060006870470000092809D8DFE800F047
:1031100005090C0F121508181B1E084601F0D3BE36
:103120007047084602F03EBC084603F083B90846E3
:1031300003F095BD084604F0CCBA084605F033B854
:10314000084605F079BD084606F0E1BA084607F0E2
:1031500025B80000092821D8DFE800F005080B0E8B
:10316000111420171A1D084601F0C5BE084602F0CA
:1031700031BC084603F076B9084603F088BD08461E
:1031800004F0BFBA084605F026B8084605F06CBD45
:10319000084606F0D4BA084607F018B87047000091
:1031A0000B460928114621D8DFE800F005080B0E70
:1031B000111420171A1D184601F0E4BE184602F03B
:1031C00086BC184603F096B9184603F0B2BD1846FF
:1031D00004F0E9BA184605F050B8184605F096BD57
:1031E000184606F026BB184607F037B8002070478F
:1031F000092821D8DFE800F005080B0E111420176C
:103200001A1D084601F0EEBE084602F08CBC0846C6
:1032100003F08DB9084603F0B3BD084604F0EABADE
:10322000084605F055B8084605F094BD084606F076
:1032300020BB084607F038B870470000092821D89D
:10324000DFE800F005080B0E111420171A1D0846C0
:1032500001F007BF084602F095BC084603F086B9A6
:10326000084603F0CCBD084604F003BB084605F051
:103270006EB8084605F0ADBD084606F029BB084605
:1032800007F051B80020704710B500F0DBF933D8D3
:10329000DFE800F0050A0F14191E3223282D2046FE
:1032A000BDE8104001F0F5BE2046BDE8104002F038
:1032B0009ABC2046BDE8104003F070B92046BDE836
:1032C000104003F0B4BD2046BDE8104004F0E9BA58
:1032D0002046BDE8104005F052B82046BDE8104039
:1032E00005F08FBD2046BDE8104006F02DBB2046FE
:1032F000BDE8104007F02FB810BD00000B460928AC
:10330000114621D8DFE800F005080B0E1114201734
:103310001A1D184601F0ECBE184602F08DBC184686
:1033200003F065B9184603F0B1BD184604F0E8BAD9
:10333000184605F053B8184605F092BD184606F039
:103340002CBB184607F036B80020704710B50C4665
:10335000092811463CD8DFE800F0050B11171D23A2
:103360003B292F352046BDE810401A4601F030BFFA
:103370002046BDE810401A4602F0B3BC2046BDE826
:1033800010401A4603F087B92046BDE810401A469F
:1033900003F0ECBD2046BDE810401A4604F020BB07
:1033A0002046BDE810401A4605F088B82046BDE822
:1033B00010401A4605F0C4BD2046BDE810401A462C
:1033C00006F040BB2046BDE810401A4607F062B840
:1033D000002010BD38B50C4611461A46049B059DC9
:1033E000092833D8DFE800F0050A0F14191E32232C
:1033F000282D0095204601F069FF32BD009520463A
:1034000002F0CBFC32BD0095204603F09EF932BDA0
:103410000095204603F028FE32BD0095204604F0BA
:103420005DFB32BD0095204605F0C6F832BD009523
:10343000204605F003FE32BD0095204606F06BFBEA
:1034400032BD0095204607F0A3F832BD002032BD02
:10345000092821D8DFE800F005080B0E1114201709
:103460001A1D084601F0DDBF084602F099BD084666
:1034700003F01FBA084603F0A3BE084604F0DABB07
:10348000084605F044B9084605F08BBE084606F02C
:1034900045BC084607F027B900207047092821D805
:1034A000DFE800F005080B0E111420171A1D08465E
:1034B00001F0D2BF084602F097BD084603F014BAE7
:1034C000084603F098BE084604F0CFBB084605F056
:1034D00037B9084605F084BE084606F049BC0846E0
:1034E00007F01CB900207047092821D8DFE800F058
:1034F00005080B0E111420171A1D084601F0CEBF47
:10350000084602F072BD084603F0F0B9084603F021
:1035100094BE084604F0CBBB084605F033B9084614
:1035200005F080BE084606F025BC084607F018B92D
:1035300000207047092821D8DFE800F005080B0EAD
:10354000111420171A1D084601F0AABF084602F000
:103550004FBD084603F0CEB9084603F071BE0846D9
:1035600004F0A8BB084605F010B9084605F05DBE9A
:10357000084606F003BC084607F0F5B8002070477F
:103580000B460928114621D8DFE800F005080B0E8C
:10359000111420171A1D184601F09ABF184602F0A0
:1035A0002BBD184603F0A7B9184603F061BE1846B4
:1035B00004F098BB184605F006B9184605F04DBE54
:1035C000184606F0DCBB184607F0E5B80020704747
:1035D00010B500F037F833D8DFE800F0050A0F1413
:1035E000191E3223282D2046BDE8104001F072BF7D
:1035F0002046BDE8104002F014BD2046BDE8104052
:1036000003F07AB92046BDE8104003F032BE2046F0
:10361000BDE8104004F067BB2046BDE8104005F04F
:10362000D3B82046BDE8104005F018BE2046BDE8DE
:10363000104006F0B9BB2046BDE8104007F0ACB81A
:10364000092010BD0C4611461A46029B09287047F6
:10365000092821D8DFE800F005080B0E1114201707
:103660001A1D084602F010B8084602F073BD08465D
:1036700003F0AAB9084603F0D6BE084604F00DBC14
:10368000084605F080B9084605F0C2BE084606F0B7
:1036900023BC084607F057B97047000010B50C4628
:1036A000092811463CD8DFE800F0050B11171D234F
:1036B0003B292F352046BDE810401A4602F01CB8C1
:1036C0002046BDE810401A4602F069BD2046BDE81C
:1036D00010401A4603F0B9B92046BDE810401A461A
:1036E00003F0DABE2046BDE810401A4604F00CBCD8
:1036F0002046BDE810401A4605F090B92046BDE8C6
:1037000010401A4605F0BCBE2046BDE810401A46DF
:1037100006F02EBC2046BDE810401A4607F04AB914
:10372000C8B210BD0148704700000000000300014E
:103730000000000029490860704770B5274A284DED
:10374000146843F2390305FB043414606FF000463B
:10375000B4FBF6F66FF00042091A02FB1644491C4E
:1037600094FBF1F501FB1541401870BD03E011F821
:10377000013B00F8013B13465A1E9BB2002BF6D1C9
:1037800070471044401E03E011F8013B00F8013976
:1037900013465A1E9BB2002BF6D17047130003D07C
:1037A0000A46194607F04AB9704770B503004FF052
:1037B000FF3001D1002070BD00240A4E09E09A5C60
:1037C0005040082200F010F8521E85EA5000F9D14E
:1037D000641CA2B28A42F2D3C04370BD8C020020A6
:1037E0006D4EC6412083B8ED00F001056D1E26EA3E
:1037F0000505704738B504001CBF2068002801D1BA
:10380000022032BD0078607103222368591CA01D7C
:10381000FFF7ACFF2068011D032204F10900FFF748
:10382000A5FF2068C179E160027A41EA0221E160E6
:10383000427A41EA0241E160827A41EA0261E16052
:10384000C07A20742168087B217960740D202129B9
:103850001CD1206800F10D01102204F11200FFF7C5
:1038600085FF1D2021680A5C6262401C0D5C42EAF3
:103870000522401C62620D5C42EA0542401C626205
:10388000085C42EA00626262002032BD11390129FF
:10389000E8DB012032BD38B504001CBF20680028D9
:1038A00001D1022032BD0078607120684178A160AA
:1038B000827841EA0221A160C27841EA0241A16016
:1038C000027941EA0261A160407920732068817920
:1038D000E181C27941EA0221227BE18102F00F02FB
:1038E000102A35DA00F1080104F11000FFF73EFF5D
:1038F000002104F1280584F82010207B297000F0B5
:103900000F00217908300B1A1B1F012B0CDB2368D9
:103910001A5C84F82020401C091A0A1F2A70191802
:10392000606AD2B2FFF722FF206821790144081FA4
:1039300001786960427841EA02216960827841EA4F
:1039400002416960C07841EA00616960002032BDCF
:10395000012032BD2DE9F04788B0050008BF0A20DC
:1039600058D0002404AFA446A046A146A24687E84A
:1039700000171098DDF844E0EC4600278CE880073B
:103980008DF805008DF80630180C8DF808001F0A18
:103990001B0E4FEA1E208DF809308DF80B008DF8B4
:1039A000077001264FEA1E434FEA1E608DF8006043
:1039B0008DF80AE08DF80C308DF80D00884617461A
:1039C00003E01034A8F11008E4B20FFA88FABAF153
:1039D000000F1EDD8DF80F6004AB3A4610216846DB
:1039E00000F051FD761C08B904AB01E00F2011E096
:1039F000BAF1100FD4BF514610218842E1DA011903
:103A000013F800C06A5C8CEA02026A54401CC0B21F
:103A1000EEE7002008B0BDE8F08778B5079909B94E
:103A20000A2072BD069C059A49250D704B718A715A
:103A3000130A8C72CB710026150C120E4A72C873D1
:103A40004E708E70CE700E710D72220A230C240EF1
:103A50004C738E73CA720B73002072BD30B5002296
:103A6000DFF80C35D4B213F82450854204D0521C30
:103A7000D4B2022CF6DB04E003EB840008600020E3
:103A800030BD0C2030BDF8B584B06C460025002652
:103A90000027AC4684E8E010022802D0032820D09A
:103AA00023E001258DF800508DF804208DF80110D9
:103AB0008DF807300C0A090C8DF803101B0A160A42
:103AC000120C8DF806208DF8083002468DF8024061
:103AD0008DF805600121684600F00CFD30B10F2023
:103AE00004E002248DF80040DEE70B2005B0F0BDB5
:103AF00009B90A207047DFF87C241268401E0328A9
:103B000014D8DFE800F002080C1010690860116991
:103B1000116200207047506908605169F8E79069A8
:103B200008609169F4E7D0690860F2E70520704702
:103B300010B508B9092010BDDFF8384420602822EC
:103B40000021FFF72BFE20680121C17081704170B8
:103B5000002202704FF0FF31C2600161416181615A
:103B60000162C161002010BDDFF808140A6810600E
:103B70000020704708B90A207047DFF8F8130A6878
:103B8000D3685B1C0360002070477CB50E460021A3
:103B900015461C4600910CB90A2076BD6946FFF710
:103BA000A7FF010028D1009810F1010F10D080B2BA
:103BB000281A002802DD009D451909E0009802D16D
:103BC0002060072076BD000C05EB004505F580352B
:103BD000DFF8A01325600A68907860B90098002388
:103BE0000021281A63EB0101994204DB01DCB04299
:103BF00001D3082076BD002076BD30B508B90A2073
:103C000030BD0021DFF86C2313682C224A4303EBFC
:103C100081040244491C04F11C0500291562F1DDF0
:103C2000002030BD1FB5044600F0D7FB78B984B939
:103C3000DFF8400302689078002100F09DF930B968
:103C4000684600210022002300F0C0F908B10F20CF
:103C500000E0002004B010BD1CB5040001D10A2012
:103C600016BD0020019001A800F09DFCC14800682D
:103C7000019981808088E082204600F0ACFD78B90F
:103C800004F118000090012321681322002000F0A5
:103C9000DBFB08B10F2016BD204600F09CFD00B1F3
:103CA000112016BD2DE9F8418DB080460D46140057
:103CB00014BF002D0A2061D0212104A8AD4E06F0CA
:103CC000F1FE316800208DF80C0003A88F88029067
:103CD00004A901912946227900923A462368404678
:103CE00000F028FC08B10F2048E02279206804A9E0
:103CF000FFF73CFD2046FFF77DFD08B110203DE0B9
:103D0000A579E079217A45EA0025306845EA014540
:103D100081688D420DD0856000219DF80C0000F077
:103D20002BF901002AD1042000F040F9010002D053
:103D300024E0032022E0617AA07A41EA0020E17ABF
:103D400040EA01443B46224629460320FFF79BFEFA
:103D5000010013D13B46224629460220FFF793FE7D
:103D600001000BD130689DF80C10817000224FF0DB
:103D7000FF31C26081610161416100200EB0BDE888
:103D8000F0812DE9F8411C460322002C87B007463C
:103D90004FD0DFF8E081D8F80000C1688F4238BF0B
:103DA000062043D394F8200000B90222B9420AD277
:103DB000002001970090A36894F82810606AFFF72C
:103DC000C9FD010032D1204600F03BFD002832D170
:103DD00020792568A168061F002D18BF14F12C005A
:103DE00027D0B0B240F201129042A8BF0E201DDAD7
:103DF00003A8029000910197002300220221B0B293
:103E0000FFF70BFE04F12C0000900223B2B229460A
:103E100003A800F019FB08B10F2007E0204600F0CE
:103E200010FD40B9D8F80000C760002008B0BDE818
:103E3000F0810A20FAE71120F8E700002DE9F04FA1
:103E4000CBB00746549C002C0D461E463DD08DF845
:103E50000C200022009269469DF80C00FFF748FEF6
:103E6000C0B90098B04202D310F1010F12D1204620
:103E7000FFF711FD80B904A93846FFF7EFFD0100F7
:103E800073D104980595A16890F801808D4205D002
:103E900002206AE0062068E0102066E0DFF8D4B077
:103EA000207BDBF80010400900F00109887808B990
:103EB0004FF0000904F1280041680498069190F839
:103EC00002A020792568071F0DB90A204DE0B8B27D
:103ED00040F201118842A8BF0E2046DA4FF48872E2
:103EE000002107A8FFF75AFC0599009107A8029046
:103EF000019601234A465146B8B2FFF78EFDBAB289
:103F000029460BA8FFF732FC069A534607F1100129
:103F100007A800F0A3FA88B994F8200008B94FF078
:103F20000208012001960090059B94F82810606A11
:103F30004246FFF70FFD010004D016E0012814D01F
:103F40000F2012E09DF80C10DBF80000491E032939
:103F50000AD8DFE801F008060402C66104E08661C1
:103F600002E0466100E0066100204BB0BDE8F08F42
:103F70004C020020D424002038B584B009B10B20B5
:103F800012E06946002200230024002581E83C005D
:103F9000012804BF20208DF800000422002168467B
:103FA00000F0A8FA00B10F2005B030BD1FB50428FD
:103FB00018BF0B2008D168460021002200230024EE
:103FC00000F004F800B10F2004B010BD80E81E001E
:103FD0007F22042100F08EBA10B56E4CFC22002125
:103FE0002046FFF7DBFB002200202260606010BD4E
:103FF000F8B5044609B90120F2BD0023654D05F16D
:1040000008001E0600EB16564FF0000C1FFA8CF04D
:10401000305CE0B90CF1010C1FFA8CF01028F5D3DC
:10402000286800B92E60686800B106600020306022
:1040300017466E603471B76092B2701DFFF796FB41
:10404000641F02D0E41E022C07D8012006E05B1C8E
:10405000D8B20F28D3D10220F2BD00203073D5F89A
:10406000F8003F187F1CC5F8F8700020F2BD10B5AD
:1040700008B9012010BD474A1168884219D1036868
:10408000136000215468844208BF516009B103687D
:104090000B6000210160D2F8F83081685B1A5B1E6A
:1040A000C2F8F83010220021FFF778FB002010BD85
:1040B00019460029E6D00B688342F9D1E2E710B532
:1040C0003448006800E0204630B1017B04680029D4
:1040D00008BFFFF7CCFFF6E710BD10B52D4800680C
:1040E00000280AE0FFF7C3FF06E001790468491FD2
:1040F000F8D0C91E0229F5D92000F6D1002010BD44
:1041000008B9012070472349D1F8F8200260002047
:1041100070472DE9F04180461E4816460468002786
:104120000D46002E18BF002D0FD101201EE0207972
:10413000F0557F1CA268FFB292B2611DF019FFF723
:1041400015FBA0682468C719FFB25CB1A168A8EB91
:104150000700491C8842EAD226682046FFF787FFFD
:104160003400F9D12846FFF7CBFF0020BDE8F081ED
:1041700008B901207047074909680022027000E071
:10418000096821B10A7B012AFAD1012101700020BE
:1041900070470000381A002001460020891E1129AE
:1041A00015D8DFE801F009110B110F0D0B0B1114DD
:1041B000140D14140F1113130320704702207047BD
:1041C0000620704701207047052070470420704783
:1041D00018B591B0044610A900F0E4F8002869D1A0
:1041E000200008BF0FF2244328D0012C08BF0FF293
:1041F000344323D0032C08BF0FF240431ED0022CBF
:1042000004D10FF25043002200211AE0042C08BF11
:104210000FF2584312D07F2C08BF0FF268430DD025
:10422000802C08BF0FF2744308D0812C08BF0FF216
:10423000844303D0822C06D10FF290430022002148
:104240000220FEF7F8FC1098DFF8B033017C1098DC
:104250000F910022C17B10980E91817B10980D91D7
:10426000417B10980C91017B10980B91C17A1098AA
:104270000A91817A10980991417A10980891017AEF
:1042800010980791C179109806918179109805913D
:10429000417910980491017910980391C178109890
:1042A00002918178109801914178009102200021BB
:1042B000FEF7C1FC12B010BD70B5002200F07FF80F
:1042C00004D0521CD3B20A2BF8D300E080E00320C4
:1042D00070BD2DE9F841CBB006460D0090461F4653
:1042E0001ABF529C002C02202BD005A806F0DDFB43
:1042F00069463846FFF7E0FF070021D10098411CCE
:1043000005A806F0E3FB26B11022314605A806F009
:10431000E2FB4246294605A806F0DDFB05A901A8F7
:1043200006F036FC01A882789DF80710120442EAD4
:10433000016241789DF8040042EA012202432260B2
:1043400038464CB0BDE8F08110B5B0B004466846C0
:10435000AB49C02200F0EEF90CB902201BE0A948DD
:104360000460C02269462046FFF700FA0FF274335A
:1043700000F013F80020FFF72BFF0120FFF728FFC4
:104380000FF2783300F009F80320FFF721FF022035
:10439000FFF71EFF002030B010BD002200210220D8
:1043A000FEF749BC70B5002200F009F804D0521C99
:1043B000D3B20A2BF8D300E00AE0032070BD914B82
:1043C0001C68D5B205EB051563191E7C8642704743
:1043D00003F110000860002070BDF8B5024684B0FB
:1043E000080008BF02202DD00021864C236801EB75
:1043F00001152B441E7C964203D0491C0A29F5D393
:104400001FE0802A15D169460022002300260027DC
:1044100081E8CC006B467F22102100F034F806467C
:1044200020682844102269461130FFF79FF9304672
:1044300008E00146102203F11100FFF797F9002070
:1044400000E0032005B0F0BD1CB57F2B01DB03208D
:1044500016BD049C0094FFF73CFF16BD3EB5144604
:1044600008B902203EBD01AA009200250A46014675
:1044700001950020FFF72DFF010003D101998C4227
:1044800018BF01203EBD2DE9F041BEB004000E462C
:1044900017461D4614BF002D022028D0C90806EB80
:1044A00011721209B6EB021018BF05201FD1F022BD
:1044B000002101A8FFF772F969463846FFF7FCFEB4
:1044C0005FEA000812D1009801AA1021401C06F0F2
:1044D0008EFC002707E001AAE919E01906F0FCFCB0
:1044E0001037FFB2103EB0B20028F4D140463EB0C3
:1044F000BDE8F081F8B584B0144608B9022017E091
:104500007F2A03D1042918BF032011D16D46002250
:1045100000230026002785E8CC000A466B461021C0
:10452000FFF7B1FF010003D169462046FFF755FFB1
:1045300005B0F0BDF8B51E001CBF079C002C01D0D3
:10454000089D0DB90220F2BD069F222F01DB052038
:10455000F2BD3A4631462046FFF708F9791E631C42
:10456000012289B2701CFFF78EFF08B10720F2BD4F
:10457000E07AC009287014D1E019012310F8042D45
:1045800041788578C07842EA012242EA054242EA4F
:104590000062391F89B22046FFF760FF10B1012089
:1045A000F2BD0420F2BD10B5040001D1022010BDFF
:1045B0001548416988472060002010BD80B508B9C2
:1045C000022002BD01460F48006808220CE00D4899
:1045D0000068704780B508B9022002BD014609484D
:1045E0000368082203F10800FFF7C0F8002002BDAD
:1045F0000448016801F10800704700000840010804
:10460000043D0108EC240020043F01082323232358
:104610002323204170704B65793A202020202020F0
:1046200000000000232323232323204E776B4B65B8
:10463000793A20202020202000000000232323237B
:10464000232320417070534B65793A20202020208D
:1046500000000000232323232323204E776B534B9A
:1046600065793A2020202020000000002323232306
:104670002323204D43526F6F744B65793A202020DD
:1046800000000000232323232323204D434B454BCD
:1046900065793A20202020200000000023232323D6
:1046A0002323204D434B65795F303A202020202082
:1046B00000000000232323232323204D4341707057
:1046C000534B65795F303A200000000023232323F9
:1046D0002323204D434E776B534B65795F303A204F
:1046E00000000000232323232323204F5441412093
:1046F0002323232323230D0A000000002323232345
:1047000023232041425020202323232323230D0A47
:104710000000000062B38B0708D0521E11F8013B65
:1047200000F8013B00F024808B07F6D1830740F0AE
:10473000208000BF103A07D330B4B1E83810103AE7
:10474000A0E83810F9D230BC530724BFB1E80810F4
:10475000A0E8081044BF51F8043B40F8043BD207DE
:1047600024BF31F8022B20F8022B44BF0B780370D2
:104770007047121F17D35B0009D151F8043B20F892
:10478000023B1B0C121F20F8023BF6D20BE051F843
:10479000043B00F8013B1B0A20F8023B1B0C121FD4
:1047A00000F8013BF3D238BF121D521E24BF11F88E
:1047B000013B00F8013BF8D87047310050B1B0FA26
:1047C00080F18840C1F19D01C905020672F10042E5
:1047D00041EB1020704710B504001CBF2068002872
:1047E00001D1012010BD2179162901DC022010BD64
:1047F0006379037008222068A11D401CFEF7C1FFE9
:104800002068082204F10E010930FEF7BAFF216882
:10481000E08A48742168E08A000A88742168A069E7
:10482000C8742168A069000A08752168A069000C95
:1048300048752168A069000E887517202071002036
:1048400010BD70B504001CBF2168002901D10120F2
:1048500070BD227B04F1280502F00F02287808328F
:1048600000B1521C23791018001D834201D202208E
:1048700070BD607908702268A1685170A0682168D5
:10488000000A88702168A068000CC8702168A068C0
:10489000000E08712168207B48712168E0898871C9
:1048A0002168E089000AC87104F11001227B2068A8
:1048B00002F00F020830FEF759FF267B287806F039
:1048C0000F06083620B1216894F820008855761C20
:1048D00020682A78616A3044FEF748FF2978236807
:1048E0006A6870181A5469682268401C090A1154D1
:1048F000401C69682268090C1154401C69682268D0
:10490000090E1154401C2071002070BD2DE9F04F9C
:10491000044685B0A0780028884693461F4655D1A6
:1049200094F910A094F91190A0683860002561797D
:10493000012945D102208DF800006946A27C8DF83E
:104940000220E07CFEF7B6FB46B25645A8BFB24651
:10495000B24508BF3D6033D0A089A168814228BF1D
:104960000125E289101881422AD308218DF8001010
:104970006946E07CFEF79EFB8146A068E189B0FBBA
:10498000F1F201FB120001281AD122218DF800104A
:104990008DF801A06946A07C8DF80200E07CFEF74E
:1049A00089FB824640B2B04202BF0025207901282F
:1049B00006D102218DF8101002A9E07CFEF7CAFB97
:1049C00088F800A08BF80090284600E0002005B091
:1049D000BDE8F08F10B5044610460A460146204651
:1049E00006F02CF8204610BD03E011F8013B00F85A
:1049F000013B13465A1E9BB2002BF6D170471300A1
:104A000003D00A46194606F019B870472DE9F84F49
:104A100094B00029D8BF002040F31681491E0290AF
:104A2000064600910DF10C09154601930AE0714606
:104A30000029A1F1010E04DD2021401E06F8011B12
:104A4000F5D16D1C029A2978B21A19B900988242E0
:104A5000C0F2F780009B02989A4280F2F2802529EA
:104A600018BF06F8011BECD115F8011F00233029EF
:104A700008BF012330390A294FF0FF370BD2002736
:104A800005E015F8012B0A2101FB0727303F2978A3
:104A900030390A29F5D3297858294FF00A0A4BD022
:104AA00063291CD0642918BF69294AD0732921D0F1
:104AB00075294DD0782941D025291CBF252106F81C
:104AC000011B009A311A914242DA2978002914BF59
:104AD00006F8011B6D1E37E0202006F8010B7F1E33
:104AE000002FF9DC0198001D0190001F006806F8F6
:104AF000010BA6E70199091D019151F8048DB8F148
:104B0000000F08BF0FF25018404606F037FB04466E
:104B1000BC42A7EB040A05DA20225146304605F0D4
:104B20008DFF56440020A042BEBF18F8011B06F8B6
:104B3000011B401CF7DB84E743F040034FF0100AF1
:104B400006E043F0020303E0009A311A9142F2DBDF
:104B5000990705D5019A121D019252F8041D04E02F
:104B60000199091D0191091F0968DFF8E480BE461B
:104B7000009F301A381A4FF0FF325C0648BFDFF84A
:104B8000D480AAF10207232F28BF0026D3D2DF0743
:104B90004CBF302720274FF0000C9C0748BF00294E
:104BA00004D54FF02D0C4942AEF1010E002421B97D
:104BB00030228DF80C2001240DE0B1FBFAFB0AFB3A
:104BC0001B1118F8011009F80410641C5FEA0B01AE
:104BD000F3D1002C00D42246D907AEEB020E0AD442
:104BE00071460029A1F1010E05DD2021401E06F8C5
:104BF000011BF5D125E7BCF1000F03D0401E06F8DC
:104C000001CBF7D071460029A1F1010E09DD401E4C
:104C100006F8017BF6D114E73021401E06F8011B8F
:104C2000F9D011464A1E8C42F6DB21464C1E002963
:104C30007FF7FDAE19F8041006F8011B401EF4D1F1
:104C4000FFE600203070104615B0BDE8F08F000080
:104C50005C400108844001083C4E554C4C3E00002D
:104C600080B5FDF7AFFDFDF7CFFF0FF22100FEF796
:104C700041F80220FEF741F806F08AFABDE8044048
:104C80000121012006F091BA06F0A5BA3EB504460E
:104C90000D4601A8FDF72CFFBDF90800DDF8043032
:104CA0000BA200901021204600F00BF8204606F0E1
:104CB00065FA288037BD012100E00021022006F0BE
:104CC0006CBA08B400B501ABFFF7A0FE5DF808FBB5
:104CD000256473253033643A0000000010B5DFF816
:104CE000E8190A6A0446904738B1DFF8E009DFF8AE
:104CF000E01904198C428041C00F10BDF8B5074679
:104D00000FF6302284B00C46D55700F0D8F8DFF803
:104D1000B829566A072F01460CD1012003900523BC
:104D20000093E4B200224FF47A70029401920023BF
:104D3000454308E0082300930122E4B200200392D7
:104D40000294019001232A461846B04705B0F0BDF1
:104D5000FEB50FF62821DFF87C390A680092017849
:104D60005A68491E382902F5906300F2A680DFE8F0
:104D700001F01D20A4A4A477A455A43A3C3E4047CA
:104D800055575A5D60636669727477797B7E9D8042
:104D900080828524A4A4A4A4A4A4A4A4A4A4A4A4B8
:104DA000A4928896A4A49296A4989F00C07810B963
:104DB00034E0807890B3022278E00FF6C41191E8D5
:104DC000E0006C4684E8E00090F901108DF80010D6
:104DD000807800B102208DF80200019302926846AB
:104DE00006F0FDFC68E0002260E0402155E0202252
:104DF0005CE0817861B990F901000FF6601205E07E
:104E0000817829B990F901000FF65812115C44E03D
:104E100090F901100FF65412535C23E000213CE09E
:104E200040F6B83242E04FF47A7136E04FF4FA625D
:104E30003CE041F2883130E041F2707236E04FF4EC
:104E400080412AE04FF47A71DFF88C08FEF775FC98
:104E500000F5FA6030E000202EE0DFF8802825E041
:104E600002211AE0009328E002F28C4115E01022A2
:104E70001CE0012111E04FF0834217E0DFF86018D9
:104E80000BE011228DF80020022100228DF8011084
:104E90008DF8022011E0DFF84C1800910DE003229C
:104EA00004E090F901000FF68C010A5C009204E026
:104EB00090F9010000F003F800900098FEBD0FF695
:104EC0007C0106F0ACBCF8B500F10C01DFF8044839
:104ED0002568D1E9006700973346427881686668A3
:104EE00000780C24604334181820667A4643A819C9
:104EF00006F02AFAF1BDF8B586B0044668460FF60A
:104F00001C01DFF8D0571822FFF714FC6968227AD9
:104F100001F590601AB1022A2ED024D330E0206827
:104F200000281CBF616800292AD069602860182207
:104F30006946FEF71BFC0FF6540168680FF6580629
:104F400091E81C0080E81C0096E8805000F10C05F8
:104F5000032185E88050A0F88C14012200F28C41D6
:104F600000F5906005E000224A600A6101F28C4180
:104F7000012206F0DAF903E0028881890A430280FF
:104F800007B0F0BD80B5034651B105290CD0062904
:104F900013D0072913D0092918BF0A2918D01FE0F8
:104FA0001868BDE8024099E6997893F90000002955
:104FB0001ABF0722022107220DE0052209E05978D5
:104FC00093F9000000291ABF07220221072202E0FC
:104FD00007220021585606F06AF910B1012002BDDF
:104FE000002002BD70B586B0044650208DF80C003C
:104FF0002079102802BF2168C87B00282FD1002506
:10500000022620682844017801910A46417842EA44
:10501000012201926421837842EA03424A430192C9
:105020000022029206E00728EBDB002001908DF8B9
:105030000C000290019838B101A904918DF8146018
:1050400004A800F0B9FA04E08DF80060684600F0AA
:1050500003FB761CF0B2ED1C0F28EDB2E3DD06B0C9
:1050600070BD10B5DFF86C1604794B6814B1012CD3
:1050700008D00CE00168012203F5906006F055F9B4
:10508000012010BD0168012203F28C40F6E70020E8
:1050900010BDFEB50C4615461E460728A8BF0720C2
:1050A00070700FF29867394606F0B9FBB07096F948
:1050B0000100072803D1322006F0B6FA06E057F8BF
:1050C00020100FF27062105C06F0A6FA0746DFF8B7
:1050D000F805C16D884706F1080306F10C0200933C
:1050E000019203462A462146384606F0A2FAF7BD49
:1050F0002DE9F0470446DFF8D07578688AB094F956
:105100000160D4F804808946804708B100205CE043
:10511000E07C58B92178DFF8BC250C204143506869
:1051200050F80180001D405800B180460FF2046025
:1051300010F906A0F96840468847A068D7F818C05B
:10514000A17C072E18D10025099108950795069591
:10515000012105910495039580B202904FF47A7174
:10516000DFF884350093052011FB0AFA0190002333
:1051700052464CF2503110E00125099180B2089559
:105180000022079206920592029004920820039250
:10519000019000920123A17852461846E047617CB5
:1051A000012907BF0FF2BC50815D0FF2B051895D3C
:1051B0000D317A6DC9B228469047E07C32464146AF
:1051C00006F04EFB89F8006001200AB0BDE8F087C8
:1051D0002DE9F04F8BB08A4604460FF2585094F9EF
:1051E000011046562378DFF8EC74DFF8DC94786819
:1051F0000C214B43C118934691F809C03A68182016
:1052000010FB0CFC02EB0C0000F070FA804694F9E5
:105210000100FFF754FE0A90A2686168404606F05C
:105220002EFA8DF824000C202278796842438858A1
:10523000D9F80C10884794F90100D9F81CC0072848
:1052400014D14FF47A6000250890079506950595CE
:10525000012004900395052202924FF47A70019583
:1052600010FB06F6009646F2A8120EE04FF47A62A2
:1052700000200125089207900690059004950821CA
:10528000039002910195009600220A9B9DF924103B
:105290002846E04723787A6894F901100C204343AC
:1052A000D05806F0FDFAA18994F90100FFF726FD18
:1052B000CBF800002846A189D9F85420C9B29047FC
:1052C0008AF8008001200BB0BDE8F08F2DE9F04F87
:1052D0008DB00446894692469B46062101A805F0FA
:1052E000E1FB4FF000080726ADF80080DFF8E4533B
:1052F00001E0C0B90626207A804531DA606801A94C
:10530000404406F02BF958B340445FFA80F89DF80A
:105310000710BDF80800ADF8000000294FF0070E97
:10532000E7D0881FE6D16B68002601270C20B74024
:105330007043062907D1185868B1BDF8000007432B
:10534000ADF8007007E0BDF800203A4203D01858CD
:1053500008B90EF0FE0E761C102EE6DB7646CAE784
:1053600002208DF80C0003A8617A8DF80E10FFF76B
:10537000EFFC8DF818601023A17A8DF819109DF8B4
:1053800005108DF81A109DF806108DF81B109DF869
:1053900004108DF81C10E17A8DF81D10217B8DF81A
:1053A0001E1094F90D208DF81F208DF82030072253
:1053B000CDF824D08DF828008DF8292001AB69683C
:1053C0000B918DF8302000218DF831100DF1050181
:1053D0002268059205A80DF1060206F0E0F80446E1
:1053E000072C0BD168680C22002100F59060FEF7B5
:1053F000D5F96968BDF80000A1F8800416989DF8F9
:10540000051089F800109DF806208AF800209DF804
:1054100004108BF8001080F8008020460DB0BDE825
:10542000F08F38B5044607256068FFF757FC00B9D0
:10543000062500210722605605F039FF08B905F05E
:10544000FD0594F901000722002105F030FF08B99D
:1054500005F0FB05284632BD1FB50268116803241C
:1054600039B901798DF80010684600F0F5F890B967
:1054700010E0019200798DF8080001A800F09CF876
:1054800048B1042802D0052802D003E0022402E03B
:10549000012400E00024204604B010BD0020704725
:1054A00038B5054603246868FFF718FC00B90224E4
:1054B000884A297852680C204143505808B904F0B2
:1054C000FD04032C02D16868121D5050204632BDE5
:1054D000022070472DE9F8410646144698460022FE
:1054E000002395B011A80F4600218C4680E80E10CD
:1054F000ADF808100321774DADF80A1001226B6852
:10550000002103F5906005F0F4FE08B900F04CF8B6
:1055100006F10C03707A8DF80C00317A8DF80D10BD
:105520006968059101F5906204921022296806913C
:10553000ADF81C200DF10A01089132680992012290
:1055400070680A90B17A8DF82C108DF82D20D3E96F
:105550000001CDE90C01307D8DF83800F18A96F913
:105560000800FFF7CBFB03A90DF109020F90109182
:105570000092019402AB11AA414609A806F0EBF88B
:10558000040009D19DF80810491E0020FEF7D5F847
:1055900011A9085C387003E00C2801D100F004F870
:1055A000204616B0BDE8F0816868B0F8801441F07C
:1055B0000301A0F880147047F8B506460027357936
:1055C0000024012D28DD102D01DB0320F2BD306801
:1055D00090F908300722002143F3030005F067FE2D
:1055E00000B901273068037A0722002143F3031032
:1055F00005F05DFE00B901273068017A41F303121E
:1056000041F303018A42B8BF01270068FFF766FB38
:1056100000B90124274201D00620F2BD0FB10520B8
:10562000F2BD0CB10420F2BD2A4F316878680C2419
:1056300014FB05F40C222044FEF798F87868021950
:10564000002151720121B0F8803401FA05F51D43A3
:10565000A0F880540020F2BD70B501780A46022AF5
:1056600001DA002070BD1B4B5B680C204243981888
:1056700000240025002680E87000BDE8704010225C
:1056800003F5906005F01BBE70B504460C2522782A
:10569000104E706831686A4302441820537A4343BD
:1056A000C81800F023F82278716815FB02F54D59EF
:1056B000A268616805F0E3FFA289034BDC6B014639
:1056C0002846A04770BD0000043F0108403576C958
:1056D000415DC6007C24002018FCFFFF00EA06376D
:1056E0009A99094040F709378545010090F9021061
:1056F00094F9020006F08FB80023012808BF0223A6
:105700001CA080560A1A9A4204DB062AACBF052167
:10571000091A00E01946C8B2704700006400000092
:105720000000000000000000000000000000000079
:10573000000000000C0B0A090807073248E80100C6
:1057400048E8010048E8010048E8010048E8010095
:1057500048E8010090D003000000000033333373A9
:10576000F2F2F2F233333373DEDEDEDE00000B35AD
:105770007DF2F2F2000102030405FFFE00000000CA
:1057800000070010000000000000000000EA0637DB
:10579000000000005000000040F709370000000042
:1057A0005000000010B5DFF8181A0A6A0446904746
:1057B000C8B1DFF8100ADFF8102A0019904208D2A9
:1057C000DFF8083ADFF8041AB0FBF3F301FB13002B
:1057D00008B1002010BDDFF8F809DFF8F819041946
:1057E0008C428041C00F10BD38B50D4684B00446D0
:1057F00000F0D4F801220392EDB200210FF61C2232
:10580000029501910823009301461257DFF8B04931
:10581000656A01230120A84705B030BDFEB50FF62B
:105820004C21DFF8B4390A685B68DFF8B0190092E0
:1058300003F590640578DFF894296D1E382D00F289
:10584000AB80DFE805F01D21A9A9A926A975A982C9
:105850003E40424E825A5D606366696C75999B77E3
:10586000797C7E8082848728A9A9A9A9A9A9A9A948
:10587000A9A9A9A9A9948A989BA994989B9DA400D9
:10588000C078002877D002E08078002850D002222B
:105890007BE0022170E00FF6D81191E8E0006A4643
:1058A00082E8E00090F901108DF80010807800B1D6
:1058B00002208DF8020002930194684605F08FFFE4
:1058C00069E0402158E020225FE090F901108078E3
:1058D000002819BF0FF67412505C0FF65012505C7E
:1058E00059E090F90110807818B90FF65012505C09
:1058F00051E00FF66812515C3EE040F6B8313BE0F3
:105900004FF47A7241E04FF4FA6135E041F28832A7
:105910003BE041F270712FE04FF4804235E04FF4EC
:105920007A71DFF8BC08FDF708FF00F5FA6032E095
:10593000002121E000942FE003F28C411CE048227A
:1059400023E0009328E0012116E000221DE0DFF8AB
:10595000941811E0DFF8902817E0132003220121AA
:105960008DF800008DF801208DF8021014E0007908
:1059700006F021F80FE0082100910DE0082204E074
:1059800090F901000FF694010A5C009204E090F98E
:10599000010000F003F800900098FEBDDFF84C18FD
:1059A00005F03DBFF8B500F10C01DFF82C48256883
:1059B000D1E90067009733464278816866680078CD
:1059C0000C24604334181820667A4643A81905F061
:1059D000BBFCF1BDF8B586B0054668460FF624015C
:1059E000DFF8F4471822FEF7A5FE287A18B102283E
:1059F00048D047D35EE0286800281CBF69680029AA
:105A000058D06160002200F19C010A704A70206049
:105A100018226946FDF7AAFE606800220C21502773
:105A200000F1080C01FB02F3DFF8C457DFF8C4678C
:105A300000F042F8402AF5DB4022662701FB02F322
:105A4000DFF8B457DFF8B46700F036F8482AF5DB22
:105A500000F28C414FF6FF720A804A808A80CA8029
:105A60004D81FF220A8100F59060062205F05DFC61
:105A70006068236800F59061062203F1900005F04C
:105A800054FC17E0606800F28C41062200F590603B
:105A900005F04BFC002021686368903103EB400562
:105AA00031F81020B5F88064324021F81020401CF5
:105AB0000628F0DB07B0F0BD05FB0265C5500CF809
:105AC000037000F109060025521CF554704780B59B
:105AD000034641B1491F012909D9891E10D0891EE9
